:080000006F60C0370000000032
:10000800B71402409305E0408CC483A20400370370
:100018000001B3E2620023A0540083A30400370E5A
:100028000002B3F3C301E38A03FE83AE8400370FF3
:100038000080B3EEEE0123A4D401894F23A2F4017A
:1000480003A94400A14933793901E30B09FE1305DB
:10005800C00E9705FFFF9385E5FA1766FFFF1306A5
:10006800662363FAC5008322050023A05500110505
:100078009105E3EAC5FE1765EFDF1305A538976517
:10008800FFFF938525211766FFFF1306A62063FA55
:10009800C5008322050023A0550011059105E3EA58
:1000A800C5FE1765EFDF1305E53597050000938555
:1000B80065051386018463FAC5008322050023A021
:1000C800550011059105E3EAC5FE13850184938562
:1000D800812C6377B500232005001105E36DB5FE7B
:0400E8008280000012
:1000EC000000000000000000140310201603102074
:1000FC000000000074071020000000000000000049
:10010C00740710207407102000000000000000008D
:10011C0074071020740710207407102000000000D2
:10012C007407102074071020740710207407102017
:10013C0000000000000000000000000000000000B3
:10014C0000000000000000000000000000000000A3
:10015C0074071020000000000000000000000000E8
:10016C0074071020740710207407102074071020D7
:10017C0074071020740710207407102074071020C7
:10018C0074071020740710207407102074071020B7
:10019C0074071020740710207407102074071020A7
:1001AC007407102074071020740710207407102097
:1001BC007407102074071020740710207407102087
:1001CC007407102074071020740710207407102077
:1001DC007407102074071020740710207407102067
:1001EC007407102074071020740710207407102057
:1001FC007407102074071020740710207407102047
:10020C007407102074071020740710207407102036
:10021C007407102074071020740710207407102026
:10022C007407102074071020740710207407102016
:10023C00260310202E0310207407102074071020A2
:10024C0074071020740710207407102074071020F6
:10025C0074071020740710207407102074071020E6
:10026C00740710207407102074071020801F1020B2
:10027C0074071020740710207407102074071020C6
:10028C0074071020740710207407102074071020B6
:10029C0074071020740710207407102074071020A6
:1002AC007407102074071020740710207407102096
:1002BC007407102074071020740710207407102086
:1002CC007407102074071020740710207407102076
:1002DC007407102074071020000000007407102011
:1002EC0074071020000000000000000074071020AC
:1002FC00000000000000000074071020740710209C
:10030C007407102074071020740710207407102035
:10031C007407102074071020740710207407102025
:10032C007407102074071020740710207407102015
:10033C0074071020397101436EC619A039714153ED
:10034C006AC866CA62CC5ECE19A0397101535AD004
:10035C0056D252D44ED64AD826DA22DC06DE3301E7
:10036C006140828241114AC026C222C406C68282E2
:10037C00B24D4101024D924C224CB24B4101024B09
:10038C00924A224AB2494101024992442244B24063
:10039C00410182802A8309CA8383050023007300EC
:1003AC007D16050385056DFA82802A8311C623000C
:1003BC00B3007D16050365FE82801021942105058E
:1003CC0085056313D60075FA3305D640828015C2B5
:1003DC002A8385466367B500FD561307F6FF3A93EB
:1003EC00BA9583830500230073007D163693B6956A
:1003FC006DFA828001A037E700E0B707EFBE938764
:10040C0007083CC701A0EF10F02073002030EF204C
:10041C00506473002030EFF2FFF4592A312CEF2096
:10042C00106F716513050520EF2010781305803EC1
:10043C00EF20F07383A58180376510201305859913
:10044C00EF307072B707112083A5471E3765102057
:10045C001305859AEF30307113054006EF2030718B
:10046C00EF30E02401A0411102C602C402C23717CA
:10047C0002401C43939707291CC3B71702409C43A7
:10048C0037070200F98F3EC4B24785073EC6A24724
:10049C0091E73247B7070001E311F7FEB7170240A7
:1004AC009C4337070200F98F89CB85473EC422470E
:1004BC0085476306F7004101828002C4CDBFB717A0
:1004CC0002409847019B98C798471367070198C744
:1004DC009847F1769386F60F758F98C7984798C70B
:1004EC0098471377F7F198C798471367070298C78F
:1004FC00B71702409C4793F7070E13070002E399C6
:10050C00E7FE371702401C43939787291CC3B71784
:10051C0002409C4337070002F98FF5DBB717024006
:10052C0098471317F74998C79847B7060090FD16D8
:10053C00758F98C7B71702409C4737070070F98F23
:10054C00F5FBB7170240D8431377F7F0D8C3D8435D
:10055C00D8C3D843B706FDFFFD16758FD8C3D84353
:10056C0013171729D8C3B726024098423AC212472C
:10057C00719B3AC21247136717003AC2124798C2CE
:10058C0098471317F72998C7D843719BD8C3D843FA
:10059C0013672700D8C3B7170240DC43B18B214740
:1005AC00E39BE7FE09BFEFF2FFDBF52B6D3DE9BBEB
:1005BC00B717024098431367170098C3D843B70680
:1005CC005C30758FD8C3B7170240DC43B18BE5FFA5
:1005DC00B7170240D84313176749D8C39847131766
:1005EC00F74998C79843B706A76AFD16758F98C345
:1005FC0098431317274998C39847B7C6FF0F758FB1
:10060C0098C798471367470098C73707FF00D8C7A4
:10061C00985BB706600C758F98DBD85BB7E6F0FF7C
:10062C0093860608758FD8DBD85BB70608009386CF
:10063C000602558FD8DB85BF371702405C43B18B60
:10064C001847B7060070758F9146638CD706A14684
:10065C006380D70881CBB7877D019387078423A458
:10066C00F18039A0B7877D019387078423A4F1809B
:10067C00B7160240D84211833D8BB70711209387E0
:10068C000711BA979C2303A781803357F700DC42EC
:10069C00C1838D8BB70611209386061EB6979C23BB
:1006AC00B357F70023A0F184B7F600E083A606D178
:1006BC004166F18E639B0618370711202322F71E23
:1006CC008280B7877D019387078423A4F1804DB77F
:1006DC00B70700506309F71263F1E702B707006030
:1006EC00630AF712B7070070631AF714B76773073A
:1006FC009387079423A4F180A5BF01CFB7070040CF
:10070C00631EF712B7479C1C9387078023A4F180C4
:10071C0085B7B71702409447FD8A98471377070EA1
:10072C009C47A18393F7F70385071306000A630917
:10073C00C7021306000E6304C70613060008630401
:10074C00C7081306000C6307C70813060002630AE8
:10075C00C70837877D0113070784B357F70239A001
:10076C003767CD1D13070750B357F7021147638C3A
:10077C00E6001386A6FF1947636CC70613075005DE
:10078C003357C74835C73707112013070712369759
:10079C001823B307F702858323A4F180D1BD371743
:1007AC000240505B41823707112013070710329724
:1007BC00182337867D01130606843307C702058389
:1007CC00B357F70265B737479C1C13070780B3571D
:1007DC00F70269BF3767730713070794B357F7021C
:1007EC0071B737877D0113070784B357F702BDBF75
:1007FC00370711201307071236971823B307F70290
:10080C0023A4F180B5B5B767CD1D9387075023A4FA
:10081C00F180B9BDB7170240D85B4183B7071120EF
:10082C0093870710BA979C2337877D01130707849A
:10083C00B387E702858323A4F1801DBDB7877D01B3
:10084C009387078423A4F18025B5B707112023A231
:10085C00E71E828001A0011106CE22CC0010B70742
:10086C0000089C432326F4FE1520AA872326F4FEB9
:10087C008327C4FE93F707F02326F4FE8327C4FED8
:10088C0099833E85F240624405618280B72702401D
:10089C00C84F098182809C4513F8F700C18B8DCF1E
:1008AC0013681800504D014711A00507BD4763E4BC
:1008BC00E702B317E0289621FD8EE398D7FE931636
:1008CC0017008D47B397D7003376F640DC41B397CA
:1008DC00D7005D8ED9BF50CD9C21A9C7104181474F
:1008EC0019A054C985071D47636DF702B316F0288C
:1008FC009A21758FE398E6FE13972700BD48B398AD
:10090C00E800337616413317E800598E9845930862
:10091C008002E30817FD93088004E31517FD14C942
:10092C00D1B710C19A219307F00F63FCE704504133
:10093C00014721A05CC92DA805079D4763E2E70488
:10094C0093078700B317F0289621FD8EE396D7FE08
:10095C0093162700BD48B398D80033761641B316CA
:10096C00D800558E83A8850093068002E384D8FCBA
:10097C0083A8850093068004E390D8FC1CC96DBF46
:10098C0050C182801C45FD8D99C105458280014571
:10099C0082805C45FD8D99C1054582800145828030
:1009AC000CC982804CC982809D4763F7B70093873E
:1009BC0085FF93F7F70F11A0AE8737170140130788
:1009CC000780630FE50237170140130707C0630C5C
:1009DC00E50637170140630BE50A3717014013078B
:1009EC0007406308E50E37270140130707806305AE
:1009FC00E51237270140130707C06302E516828012
:100A0C001D476372B702B70601408C468A073D4703
:100A1C003317F70033F7E54098C69846B317F6003E
:100A2C00D98F9CC68280B7060140CC428A073D47CD
:100A3C003317F70033F7E540D8C2D842B317F600A6
:100A4C00D98FDCC282801D476372B702B7060140A2
:100A5C008C4A8A073D473317F70033F7E54098CAAD
:100A6C00984AB317F600D98F9CCA8280B70601400A
:100A7C00CC468A073D473317F70033F7E540D8C615
:100A8C00D846B317F600D98FDCC682801D47637237
:100A9C00B702B70601408C4E8A073D473317F70063
:100AAC0033F7E54098CE984EB317F600D98F9CCE0D
:100ABC008280B7060140CC4A8A073D473317F700BE
:100ACC0033F7E540D8CAD84AB317F600D98FDCCA39
:100ADC0082801D476372B702B70601408C528A07A9
:100AEC003D473317F70033F7E54098D29852B317C8
:100AFC00F600D98F9CD28280B7060140CC4E8A0773
:100B0C003D473317F70033F7E540D8CED84EB3172F
:100B1C00F600D98FDCCE82801D476372B702B70610
:100B2C0001408C568A073D473317F70033F7E540F1
:100B3C0098D69856B317F600D98F9CD68280B706F4
:100B4C000140CC528A073D473317F70033F7E54095
:100B5C00D8D2D852B317F600D98FDCD282801D4779
:100B6C006372B702B70601408C5A8A073D473317A8
:100B7C00F70033F7E54098DA985AB317F600D98F97
:100B8C009CDA8280B7060140CC568A073D47331762
:100B9C00F70033F7E540D8D6D8563316F600B367CE
:100BAC00C700DCD6A9BDEFF2EFFB411102C202C4B3
:100BBC0002C685451305C00FEF00807DB7A7024024
:100BCC00984B137707F03AC002471367B7013AC046
:100BDC00024798CBD84B137707FC3AC002471367F0
:100BEC00E7003AC00247D8CBBD31B7F7FF1F83A748
:100BFC00477093F7070FDDC7B7F7FF1F83A7477041
:100C0C0093F7F7F0370771411307D750638DE7124D
:100C1C00370771411307D7506367F70A37075041FD
:100C2C001307D750638DE718370760411307D75068
:100C3C006394E718930700707C821304800222C629
:100C4C004C00B714014013850480B131930740C0A8
:100C5C007C8222C64C00138504C03539F9777C821E
:100C6C0022C64C00371501403D319307309F7C82E2
:100C7C0022C64C00138504403939E17793C7F7DF5E
:100C8C007C8222C64C00B72401401385048021319C
:100C9C0095679387F7837C8222C64C00138504C02A
:100CAC00DD3E19AA8545370500800927B787004026
:100CBC0003A747421367170023A2E7428145370574
:100CCC000080ED2515BF370772411307D750639588
:100CDC00E70E89649387F4FD7C821304800222C69C
:100CEC004C0037190140130509807536E17793875D
:100CFC00C70F7C8222C64C00130509C0693EF977E8
:100D0C00938707037C8222C64C003715014061365D
:100D1C00930700307C8222C64C0013050940A53E87
:100D2C00F114648222C64C00B72401401385048060
:100D3C009D369167938707FC7C8222C64C001385F5
:100D4C0004C0913E95A89307E01C7C82130480029A
:100D5C0022C64C00B7140140138504802D3EE17768
:100D6C009387470E7C8222C64C00138504C025361F
:100D7C00F977938707037C8222C64C003715014014
:100D8C00193E930700307C8222C64C001385044028
:100D9C001936930740387C8222C64C00B724014098
:100DAC0013850480CD3C9167938707FC7C8222C617
:100DBC004C00138504C0C53441016FF0EFDC930780
:100DCC0000107C821304800222C64C00B714014030
:100DDC0013850480C934930740027C8222C64C00E0
:100DEC00138504C04D3CF977938707027C8222C699
:100DFC004C00371501404534DD577C8222C64C002F
:100E0C0013850440493C930770787C8222C64C00C1
:100E1C00B724014013850480BD3CE17793C777FC70
:100E2C007C8222C64C00138504C0B53471B71305FF
:100E3C000504B7C700E03345F5201841B7F700E0CB
:100E4C0083A707D193D70749A2079397F729630480
:100E5C00F700014582800545828093F5F50FB7F7C1
:100E6C0000E083A707D193D70749A207DD8DB7C749
:100E7C0000E03345F5200CC18280B7C700E037375E
:100E8C00A55A23A4E7208280EFF2CFCD41112A840A
:100E9C002E894621B3C4040893F404FCB3C404089B
:100EAC000A8555241247B7470F0093870724B35779
:100EBC00F702B3C707089306B00363F4F600930771
:100ECC00C003DD8C46A01620B3C60608F99AB3C63B
:100EDC00060816A08326090061661306066A636974
:100EEC00D60486063357D702334707088D4663E38B
:100EFC00E60011478507B3C707081EB05AAC1E2081
:100F0C0093E717001EA01E20B3C7070893F757BF1F
:100F1C00035749008356A900558FD98F1EA08357BC
:100F2C00C90003578900D98F1EA441016FF0CFC5AA
:100F3C008355690031667D166383C50433A6D620BC
:100F4C00B366D6203357D702334707081317E72861
:100F5C008566FD16F98E99E213671700E176558FB9
:100F6C00334707089306C012B387D7029306803E17
:100F7C00B3C7D7028507B3C707081EB041B7B3A6DE
:100F8C00D6203357D70233470708D9B791C51E214E
:100F9C0093E717001EA182801E21B3C70708F99B97
:100FAC00B3C707081EA1828091C51E2193E70710C5
:100FBC001EA182801E21B3C7070893F7F7EFB3C7B2
:100FCC0007081EA1828091C51E2193E707201EA150
:100FDC0082801E21B3C7070893F7F7DFB3C7070852
:100FEC001EA182800EA9828009C693E515000EA968
:100FFC00828093F5E50FE5BF5E291A2D4207D98F44
:10100C00370700017D17F98FED8F6384B700014519
:10101C00828005458280411102C602C42AC493D73E
:10102C00C5013EC6B7070001FD17FD8DB24799CB30
:10103C00A247D1073EC4A24788436D8D11C1054517
:10104C0041018280C181A247E1073EC4EDB7B7D50B
:10105C0000E09C4118410E079306F00FB396E60092
:10106C00B3F6D7405C41B397E7001045130827004F
:10107C0033160601D18F504513084700331606016D
:10108C00D18F10491308570033160601D18F5049E0
:10109C0019073317E600D98FD58F9CC18280232086
:1010AC000500232205002324050023260500232800
:1010BC000500232A0500828037D700E01C4393E704
:1010CC0007081CC3828037D700E01C439397F7288E
:1010DC001CC38280B7D700E0DC4B3365B5203315D9
:1010EC00A0287D8D11C1054582803365B52033154F
:1010FC00A028B7D700E088CF82803365B5203315A0
:10110C00A028B7D700E0C8CF8280411102C6B7D75C
:10111C0000E0938707023EC6B2473345F5202AC646
:10112C00B2478CC341018280411102C6B7D700E09F
:10113C00938707023EC6B2473345F5202AC6B2470D
:10114C00884341018280371702405C43B18B1847BA
:10115C00B7060070758F91466380D70AA1466383EA
:10116C00D70A99C7B7877D01938707841CC131A023
:10117C00B7877D01938707841CC1B7160240D842FC
:10118C0011833D8BB707112093870715BA979C23C2
:10119C0018413357F700DC42C1838D8B93868181D4
:1011AC00B6979C23B357F7005CC1B7F600E083A653
:1011BC0006D14166F18E639D061A1CC53717024095
:1011CC0058436349071A371602405442AD829D8A30
:1011DC001387018136971823B3D7E7005CC55842B3
:1011EC0039830D8B9386C180369718231377F70FAD
:1011FC00B3D7E7025CC58280B7877D0193870784EC
:10120C001CC1A5BFB70700506305F71263F0E702D6
:10121C00B70700606305F712B70700706314F71483
:10122C00B7677307938707941CC181BF19CBB707A6
:10123C0000406319F712B7479C1C938707801CC1A9
:10124C002DBFB71702409447FD8A98471377070EB6
:10125C009C47A18393F7F70385071306000A6309DC
:10126C00C7021306000E6303C706130600086303C8
:10127C00C7081306000C6306C708130600026309AF
:10128C00C70837877D0113070784B357F70239A0C6
:10129C003767CD1D13070750B357F7021147638CFF
:1012AC00E6001386A6FF1947636BC70613075005A4
:1012BC003357C7482DC73707112013070716369722
:1012CC001823B307F70285831CC145BD37170240AD
:1012DC00505B4182370711201307071432971823EC
:1012EC0037867D01130606843307C7020583B3577F
:1012FC00F7026DB737479C1C13070780B357F702EB
:10130C0071BF3767730713070794B357F70279B7A1
:10131C0037877D0113070784B357F70241B73707A7
:10132C0011201307071636971823B307F7021CC1B1
:10133C00A9B5B767CD1D938707501CC13DBDB71725
:10134C000240D85B4183B707112093870714BA97E3
:10135C009C2337877D0113070784B387E7028583B6
:10136C001CC121BDB7877D01938707841CC131B592
:10137C0018C5A9B5B7170240DC43AD83FD8B9507A3
:10138C0037479C1C13070780B357F7025CC5828054
:10139C0099C5371702405C4FC98F5CCF8280B71755
:1013AC000240D84F3375A740C8CF828099C53717F4
:1013BC0002401C53C98F1CD38280B717024098532C
:1013CC003375A74088D382801A218D6793870704D1
:1013DC007D8F03DE050083DE250003D3450083D813
:1013EC00650003D88500B225D625FE25336EDE01B7
:1013FC003363C301B3E86800336818013366060130
:10140C00D18ED58FD98F1EA15E2D7D771307F77FD7
:10141C00F98F5EAD9E291EA9828091C51E2193E78E
:10142C0007041EA182801E21B3C7070893F7F7FBA0
:10143C00B3C707081EA182804EA582804A258280F0
:10144C001E25ED8F99C30545828001458280B737F3
:10145C000140938707C0630CF502B73701409387AF
:10146C0007406306F502B70700406302F502938755
:10147C000740630EF500B717004093870780630899
:10148C00F500B7170040938707C0631EF5001E21B7
:10149C00B3C7070893F7F7F8BA21D98F93F7F7CFAB
:1014AC00FA21D98F1EA1DE215EB59E211EB5B7375C
:1014BC000140938707C06308F500B7370140938755
:1014CC0007406314F5009C251EB985475EA98280F0
:1014DC001E31B3C70708F99BB3C707081EB11631F5
:1014EC00B3C606085221334606081A2D334707089F
:1014FC001377C7F89E215D8FF59A9E25DD8EBE2150
:10150C00D58FB7360140938606C06308D500B73631
:10151C00014093860640631ED500DD9BB625D58F12
:10152C00ED9BD621D58F1376F6CFD625558EF62585
:10153C00558E52A11AADFA215AB91EB182801E31B4
:10154C00B3C70708BD9BB3C707081EB11631B3C696
:10155C0006085A2133470708122DE5779387F7CFF2
:10156C007D8E9E21A207B3C707085D8E93F6F6FD0C
:10157C009E259207B3C70708DD8EBE219207B3C71D
:10158C000708D58FB7360140938606C06308D5008F
:10159C00B736014093860640631ED50293F7F7F7E2
:1015AC00B6259206B3C60608D58F93F7F7FBD6215E
:1015BC009206B3C60608D58FFD769386F63F758FD7
:1015CC00D6258A06B3C60608D98EFA250A073347EC
:1015DC000708558F5AA112ADFA211ABD1EB182808F
:1015EC001E31B3C7070893F7F7EFB3C707081EB14F
:1015FC001231334606085A2133470708562DB3C615
:10160C00060893F6C6F89E21DD8E1376F6DF9E252E
:10161C00A207B3C707085D8EBE21A207B3C7070890
:10162C00D18F37360140130606C06308C500373624
:10163C00014013060640631FC5027D761306F67F34
:10164C00F18FB2252206334606085D8E1376F6BF5F
:10165C00DE21A207B3C70708D18F75767D16718F6F
:10166C00D225120633460608598EFA25120733473F
:10167C000708518F5AA156ADFA215ABD1EB182806E
:10168C001E317D777D17F98F1EB11A315E21B3C7DC
:10169C000708522DE5769386F6CF758E9621A20615
:1016AC00B3C60608D18E79767D16718F92253206D7
:1016BC0033460608598EBA21320733470708518F33
:1016CC0037360140130606C06308C50037360140A3
:1016DC0013060640631AC50071767D167D8EDE25D5
:1016EC009A07B3C70708D18F5EA156ADFE21231010
:1016FC00F5041AB1828091C51E2193E717001EA133
:10170C0082801E21B3C70708F99BB3C707081EA127
:10171C00828091C9835745046177D98FB3C7070875
:10172C002312F50482808357450421677D17F98FB6
:10173C002312F504828091C51E2193E707081EA190
:10174C0082801E21B3C7070893F7F7F7B3C70708C2
:10175C001EA182801E2DB3C70708DD9BCD8F1EAD49
:10176C0082801E2D7D771307F77FF98FA205B3C5F5
:10177C000508DD8D0EAD82805E2DB3C70708DD9B9D
:10178C00CD8F5EAD82805E2D7D771307F77FF98F4D
:10179C00A205B3C50508DD8D4EAD82804EB98280A1
:1017AC000EBD82804EBD82802310B5048280EFE294
:1017BC007FBB41112A84AE849A25FD77F98FBD66D3
:1017CC00638AD7081A28FE20F576FD16758FD98FF7
:1017DC001EA85A24D6209224BE24D18ED58F8D6675
:1017EC009386369F758FD98F5EA45E28B3C7070882
:1017FC00DA2493F7F7CFD98F5EA80A85EFF0BF9460
:10180C0092476545B335F50290400A06814633058B
:10181C00F502EF20A07B13074006B357E502939621
:10182C004700370600107D16F18FB387E702B30728
:10183C00F54092079387270333D7E7021306F0632B
:10184C006374F60293870601B3C707081EA441010F
:10185C006FE09FB35E2DB3C70708CD9B318B5D8FB7
:10186C005AAD23940500B9BF3D8BB367D700E9BFD0
:10187C0091C55E259397D7285EA582805E257977E2
:10188C007D17F98F5EA582802A8793F7F50F9583D4
:10189C008546B315B028638ED70089466382D7027C
:1018AC008D466382D70291466397D7001307C50113
:1018BC0019A01307C50019CA1C43CD8F1CC3828005
:1018CC0013070501CDBF13074501F5B71C43B3F54D
:1018DC00B7400CC3828093F5F51F4EA182804A213C
:1018EC001375F51F82801E21ED8F99C305458280EB
:1018FC000145828093F7F50F958385463317B02801
:10190C00638ED70089466386D7028D466386D702DD
:10191C0091466397D7005E2D7D8F19A05E257D8F34
:10192C00A181B315B0281E21ED8F11CB99EB014588
:10193C0082801E297D8FEDB75E297D8FD5B701453D
:10194C00828005458280EFE2FFA14111930750058B
:10195C005C849307F0FADC844885CC8585476389E1
:10196C00F50089476386F502094541016FE0DFA167
:10197C00182258869307450093F7F70FAE9793F705
:10198C00F70F3E97D88699452800BD2E0145F1BF2B
:10199C001C225C861832D88611051375F50FAA9592
:1019AC0013F5F50FAA9793F7F70F3E9758879D45B8
:1019BC002800992E014555BFEFE25F9841112A8A04
:1019CC00AE8B328BB6890144814A014909A21305B9
:1019DC004006EF103016050433440408A54763F89D
:1019EC00870EFD192684E5A09C8713075005639488
:1019FC00E70C2300FA002300FA0205496DA86317CF
:101A0C000B009C87130750056387E7008547630D20
:101A1C00FB0001494DA0A300FA0003470A02BA9744
:101A2C002300FA02094941A89C871307F00A638432
:101A3C00E700014949A0A300FA0003470A02BA973C
:101A4C002300FA02094985A89C8763847701014920
:101A5C009DA02301FA0003470A02BA972300FA0259
:101A6C00114991A89C8771476367F708A301FA0095
:101A7C0003470A023E972300EA02C1E3414925A825
:101A8C009C8733075A015CA303470A02BA972300C9
:101A9C00FA02850A93FAFA0F83473A00639D5701BD
:101AAC00814A414909A803470A029C87630DF70440
:101ABC00014911A0014913054006EF10B0070504B8
:101ACC0033440408A54763F48700FD190144638877
:101ADC00090285451305F1007522AA84E30905EE78
:101AEC00C147E3E927FDB76710209387079CB347ED
:101AFC00F9209C43828701497DBF21496DBF0D456B
:101B0C0041016FE03F870145E5BFEFE2BF85797189
:101B1C00AA842E84328902C202C402C602C802CA36
:101B2C0002CC02CE02D023020102930750052304FB
:101B3C00F1029307F0FAA304F10293670508230559
:101B4C00F1020547A305E102230601029507A3064E
:101B5C00F102994528104D2ACA860546A6854800EB
:101B6C00A13DAA8711CD014539A83307F40093860E
:101B7C0007038A9683C686FD14A3850793F7F70F90
:101B8C008883E3E4A7FE45616FE01F80EFE28FFDE1
:101B9C0041112A847D2213054006EF10407D130667
:101BAC00800C9385D1810D458D3735E1376510203B
:101BBC00130545A0EF20300F1306800C9385C181CF
:101BCC001145A13725E537651020130545A6EF20F3
:101BDC00900D9547DC871306F10085452145A5330B
:101BEC00A947DC871306F10085452945A93B130558
:101BFC002003EF10C0770122A28537651020130552
:101C0C0085ACEF204076014541016FE0EFF783C7CB
:101C1C00D1818D8B13874183B3A7E7208E23376542
:101C2C001020130545A4EF20007479B783C7C18138
:101C3C008D8B13870183BA978C233765102013057E
:101C4C0045AAEF20407271B781460DA8B707112045
:101C5C009387472703D747103306D5000348060060
:101C6C003386E70023000601050703D60710336708
:101C7C00C7022392E7108506B3C60608E3E8B6FC54
:101C8C00014582802A88370711201307472783577D
:101C9C0047108356271063EAD700958F33C5070882
:101CAC006363B5002E858146A1A037071120130769
:101CBC00472703570710158F33470708BA9733C5C3
:101CCC000708F9BFB70711209387472703D72710B9
:101CDC003306D800B385E7008C210CA2050703D688
:101CEC0007103367C7022391E7108506B3C60608B1
:101CFC00E3EAA6FC8280B70711209387472703D716
:101D0C0027102392E7108280EFE2CFE52A89AE8478
:101D1C00014425A0930500083755004013050580A4
:101D2C00D9366DD9B30789008C233755004013057C
:101D3C000580553605041374F40FE36D94FC6FE0C5
:101D4C00AFE4EFE22FE20111AA8402CA02CC02CE68
:101D5C0002C202C402C602C8854537050400EFF072
:101D6C00EFE485452145EFF0AFE21D46A945371458
:101D7C000140130504C0EFE03FC393070040FC8211
:101D8C008D473ECCE1473ECE4C08130504C0EFE036
:101D9C009FB01D46AD45130504C0EFE0FFC093177F
:101DAC00B028FC8291473ECE4C08130504C0EFE0EE
:101DBC009FAE26C223140100231501002316010037
:101DCC0023180100B1477C874C00375400401305A1
:101DDC000480EFF0DF9D854513050480513C0546DA
:101DEC0093055052130504804534B7E700E03707DC
:101DFC00100023A4E710B707112093874727130778
:101E0C0000102390E710239107102392071005610F
:101E1C006FE08FD7EFE20FD54111A1453755004048
:101E2C0013050580C93401C9B757004013870780D3
:101E3C0083D707805E2393050002375500401305B6
:101E4C000580553401E541016FE00FD43755004052
:101E5C00130505806934C88785451305F100ED33FA
:101E6C00DDB7EFE22FD0797102D202D402D602CCC8
:101E7C0002CE2310010202C402C602C802CA854562
:101E8C00856413855480EFF0AFD00546A145371417
:101E9C00014013050480EFE03FB10546A54513054D
:101EAC000480EFE07FB00546A94513050480EFE000
:101EBC00BFAF0546AD4513050480EFE0FFAE93843C
:101ECC0004F023129102E1473ED68D473ED44C10CC
:101EDC0013050480EFE03F9C95679387F7E1FC8640
:101EEC0093073006FC84231F0100231D01002C08DE
:101EFC0037340140130504C0EFF06FD5930700068B
:101F0C007C8485477C85231801009307803E7C8761
:101F1C002C00130504C0EFF0AFDB2C00130504C03C
:101F2C00EFF0EFE12C00130504C0EFF06FEB2C0089
:101F3C00130504C0EFF0CFF48545130504C0EFF092
:101F4C004FFD8145130504C0EFF0DF80814513057B
:101F5C0004C0EFF01F818145130504C0EFF0DF8151
:101F6C008145130504C0EFF01F828545130504C09D
:101F7C00EFF06FFC8545130504C0EFF0CFF745611A
:101F8C006FE08FC0EFE26FBCAE893289B684938765
:101F9C0001828AA3AEA3D2A3F6A3AA85373401404B
:101FAC00130504C0EFF08FFFCE85130504C0EFF0CE
:101FBC002FFFCA85130504C0EFF0CFFEA6851305CD
:101FCC0004C0EFF06FFE6FE08FBBEFE2AFB9011111
:101FDC0002CA02CC02CE02C202C402C602C88545A5
:101FEC0013050004EFF08FBC85454545EFF04FBA63
:101FFC002146AD4537150140EFE01F9B9317B028E4
:10200C00FC82114422CE4C0837150140EFE0BF880A
:10201C00F167938707203EC22314010023150100AA
:10202C00231601006087231801004C003724004060
:10203C0013050480EFF0AFF70546930550521305D6
:10204C000480EFF07F84B7E700E0214723A6E71078
:10205C00854513050480EFF0BF8105616FE0CFB2B9
:10206C00930550523725004013050580EFF09F88EB
:10207C0085476304F5007300203083A741868507EC
:10208C0023A2F1863725004013050580EFF03F852C
:10209C001375F50F238BA18483C7418489EF9307B4
:1020AC00B00BE31AF5FC2384A1848547A382F18449
:1020BC002382F184C9B783C6518413871600137722
:1020CC00F70FA382E18493878184B69788A3954701
:1020DC00E3F3E7FA2382018481471547636EF70027
:1020EC00138781843E971423138701853E9714A38D
:1020FC00850793F7F70FD5B79387818498338D476E
:10210C006300F70483A78185850723ACF184A5B709
:10211C00138781843E971823BA9693F6F60F85079A
:10212C0093F7F70F1147E375F7FE93878184DC3340
:10213C00638BD70083A7C185850723AEF18425BFA8
:10214C0081478146C5B71387818434233C33A2076A
:10215C00DD8E2394D186582393878186B8A30547B7
:10216C00B8B383A70186850723A0F18629B7EFE2D0
:10217C006F9FB705020037650040130505C0EFE0FF
:10218C009FE965F9854537650040130505C0EFE00B
:10219C00BFE1B7050300850537650040130505C091
:1021AC00EFE09FE57DF56FE02F9EEFE2AF9B2E8475
:1021BC002E86AA8537650040130505C0EFE0DFE2E7
:1021CC0001ECB7050700938525083765004013051A
:1021DC0005C0EFE07FE275F56FE00F9BEFE28F98A3
:1021EC00AA8537650040130505C0EFE0BFDFB705D2
:1021FC0007009385450837650040130505C0EFE0DF
:10220C00BFDF75F56FE04F988545376500401305C6
:10221C0005C06FE05FDBEFE2EF942A84893F8145D4
:10222C001305C00359370145553F2285453FE93F0A
:10223C006FE08F95EFE20F931305E00AE93F13056A
:10224C00500DD13F13050008F9371305800AE1370B
:10225C001305F003C9371305300D753F0145653F74
:10226C00130500044D3F1305D008753751456537EC
:10227C00130500024D370145793F1305100A613FE4
:10228C001305800C493F1305A00D71374945613783
:10229C001305100849371305F00CB53F1305900DC5
:1022AC009D3F1305100F853F1305B00DAD3713057A
:1022BC00000495371305400AB93F1305600AA13F86
:1022CC001305E002893F1305F00AB1376FE0CF8B9D
:1022DC00EFE24F892A89AE84593D81451305C0032D
:1022EC00E93513050004DD3D014401A8B30789005D
:1022FC008823ED35050433440408E36994FE29373B
:10230C006FE08F88130600408145370511201305B7
:10231C00C5376FE08F89EFE2EF8413051002E53DBE
:10232C000145D53D1305F007FD3513052002E535B4
:10233C000145D5351D45C5359305004037051120A0
:10234C001305C53771376FE02F84EFE2AF810111B0
:10235C0002CA02CC02CE02C202C402C602C8854521
:10236C001545EFF0EF82854537050040EFF00F84FF
:10237C001D46B9453714014013050480EFE0CFE248
:10238C009164E4828D473ECCF1473ECE4C08130558
:10239C000480EFE04FD01D46B54513050480EFE0F7
:1023AC00AFE08967FC824C0813050480EFE0AFCEE8
:1023BC00B7270600938707A83EC223140100F177C4
:1023CC00FD177C8523160100930700407C87E48071
:1023DC004C0037640040130504C0EFE0FFAA8545AC
:1023EC00130504C0EFE09FBAB135293F2D370561C5
:1023FC006FD09FF99307A00763E7A70C930780039F
:10240C0063E3B70C930706FE93F7F70F1307E0058A
:10241C006374F700130600021378F60F0118137893
:10242C00F80F13DE350013F375000147B9A8B70791
:10243C0011209387C737B6979023A14EB38E6E4069
:10244C00130FF00F335FDF413376E60190A3339F18
:10245C0068003366E60190A39307700363E4B70248
:10246C0093860608B70711209387C737BE9690222C
:10247C009307F00FB39767007D8E90A2B3D7D84126
:10248C005D8E90A205071377F70F954763EDE70272
:10249C0093167E00AA96BA9637661020B3270821A9
:1024AC00130606AFB3A7C720BA9783C80700E3107B
:1024BC0003F8B70711209387C737B6972380070017
:1024CC0023801701C1B78280EFD23FE82A84AE8403
:1024DC003289B68931A09307800363E69702050918
:1024EC00030609000DC2CE86A68522852137190464
:1024FC001374F40F9307A007E3FF87FCA10493F474
:10250C00F40F0144C9BF6FD09FE7EFD2BFE52A8417
:10251C00894537450040130505C0EFE07FF26DD9C2
:10252C00A28537450040130505C0EFE0FFF0854557
:10253C0037450040130505C0EFE09FF06DD93745D6
:10254C000040130505C0EFE07FEF1375F50F6FD05A
:10255C00BFE3EFD23FE1AA842E8493050002371526
:10256C000140EFE02FC413E5040845372285713F85
:10257C009305000237150140EFE08FC26FD0DFE00A
:10258C00EFD25FDE81451305F007E1378545130572
:10259C005005C1379D4513050005653FB945130529
:1025AC00F007453FC14513053004653791451305C8
:1025BC0080044537B5451305F007613FE145130528
:1025CC008004413FD945130520056137A945130502
:1025DC00F0074137930520031305F0059D3F930544
:1025EC00600913051006B53781451305F0079537BB
:1025FC00894513055005B13F81451305F007913FFF
:10260C009305000213050006A93781451305100632
:10261C008937D1451305F0072D3F9305000B1305A2
:10262C004004053F91451305B0052537930540043B
:10263C001305F005393F85451305D006193FD545DF
:10264C001305F007393791451305C0041937814537
:10265C001305F007FD3D9305000813050004D53D57
:10266C006FD09FD2EFD21FD02A849305000237156A
:10267C000140EFE02FB31375F407413D014571356F
:10268C002A849305000237150140EFE06FB12285D3
:10269C006FD09FCFEFD27FCB011102CA02CC02CEFA
:1026AC0002C002C202C402C62318010085450545BA
:1026BC00EFE01FCE85456145EFE09FCD8545216557
:1026CC00EFE0DFCE19468D4537140140130504C0E9
:1026DC00EFE08FADA147FC82614A52CE8D4426CCEF
:1026EC004C08130504C0EFE00F9B194691451305E8
:1026FC0004C0EFE06FAB4149231A210191473ECE54
:10270C004C08130504C0EFE00F99194695451305C5
:10271C0004C0EFE06FA993090002231A310152CED5
:10272C004C08130504C0EFE00F97231A31014ACE71
:10273C0026CC4C0837150140EFE0EF9593050002CD
:10274C0037150140EFE0CFA523100100930740108F
:10275C007C812312010089477C8385477C84930705
:10276C0000207C85930700037C86231701009D477E
:10277C00FC808A8537440040130504C0EFE0DFC4B9
:10278C008545130504C0EFE05FC9930500023715BA
:10279C000140EFE0EFA013052003EF00503D93053F
:1027AC00A0051305A003EFF0DFDA1545EF00303C70
:1027BC00EFF01FDD1545EF00903B014565352A8490
:1027CC001305F0054535AA842A86A28537651020A5
:1027DC001305C5D2EF103039930790046316F4003B
:1027EC009307600B638DF40037651020130505D833
:1027FC00EF10704B2396018605616FD05FB837657B
:10280C001020130505D6EF10104AEDB7938701E79A
:10281C0003D5274083D707406378F5001D8D13053A
:10282C0005403345050882801D8D3345050882809F
:10283C00138701E783570740B306F700850793F723
:10284C00F73F2310F74088228280AA8603070500F1
:10285C009307D0026305F7008145014521A8930633
:10286C0015008545DDBF3345A520938707FD33252E
:10287C00F520850683870600138707FD1377F70F6E
:10288C002546E372E6FE99C13305A040828003071A
:10289C0005009307D0026305F7000143814619A890
:1028AC0005050543E5BFB3C6D620938707FDB3A640
:1028BC00F620050583070500138707FD1377F70F2F
:1028CC002546E372E6FE1307E0026385E7008547C1
:1028DC00014789A005058547014719A83347E7201B
:1028EC00130606FD3327C720B3C7F7208607050557
:1028FC0003060500130806FD1378F80FA54863EBD3
:10290C000801E3CDB7FC39A03347E7200607B3C76E
:10291C00F7208607E3CAB7FE3385B6023A956304FF
:10292C0003003305A0408280EFD2DFA3AE84E165C3
:10293C009385056AA93FB797980093870768334436
:10294C00F502377767FF130707983304E4022295E3
:10295C001357F5413307F702B335F50237965B0091
:10296C00130606D881463305F502BA95EF10602898
:10297C00018D930730056386F4009307700563940B
:10298C00F4003305A0406FD03FA0EFD2BF9D93055C
:10299C00803EF53DB796980093860668B356D502EF
:1029AC00E1679387076AB357F50213074006B3F73D
:1029BC00E7021306803EB355C502B3F5E502337545
:1029CC00C50213974600158F3347F720931747001E
:1029DC00998FB3C7B720B387C7023E956FD0DF9AE4
:1029EC009377F50F138507FD1375F50F2547637264
:1029FC00A7021387F7FB1377F70F954663FCE600E6
:102A0C001387F7F91377F70F954663FAE60013056A
:102A1C00F00F8280938797FC13F5F70F82809387D2
:102A2C0097FA13F5F70F828003070500930740020E
:102A3C006311F706EFD21F9313041500814429A0EC
:102A4C00050493F7F70FBD8C8307040089C71307A0
:102A5C00A002E397E7FE1307A002639EE7020305BB
:102A6C001400BD3F2A89BD4763EAA7020305240071
:102A7C00853FBD4763E6A702120993174560B3E78C
:102A8C00270193974760139544601D8D13351500EE
:102A9C0021A00145828001456FD01F8F0145EDBFFC
:102AAC000145DDBFAA878306050013074002638535
:102ABC00E6009CC1054529A093071500DDBF8507DD
:102ACC00038707001DC79306A0026304D702637235
:102ADC00C5029306C002E314D7FE23800700130738
:102AEC0015003345B5209386170014C11375F70FE5
:102AFC00F9B79306A0026303D700828023800700F6
:102B0C00EDBF8307050013077004638CE700130700
:102B1C002004638EE702130770046382E704014507
:102B2C00828003071500930600056302D704130780
:102B3C00F7FB1377F70FC146E3EBE6FCCD66938604
:102B4C00168033D7E600058B79D305458280830642
:102B5C00150013074004E390E6FC0545828003074B
:102B6C001500930720046306F70001458280054594
:102B7C00828005458280A54763FAB70CEFD28FFEA1
:102B8C002A84AE8448418307050095EF08448307E7
:102B9C00050089CF5C448385070089C91C4883875D
:102BAC00070089C75C488387070085E7084CEFF06E
:102BBC00DFC91375F50F9387C1E188BB15E99387BE
:102BCC00C1E19C2B3DA0EFF05FDC9387C1E188DF76
:102BDC0075BFEFF07FD51389C1E1232CA9005C48A8
:102BEC00838507000848EFF03FD4232EA9007DBF52
:102BFC0085471389C1E12308F900484CEFF0FFC465
:102C0C00A309A900930540060850EFF05FC82314F0
:102C1C00A9029305803E4850EFF07FC72320A902FC
:102C2C00AD4763F6970048548307050081EB938703
:102C3C00C1E105472389E7046FD00FF59305803E6A
:102C4C00EFF0FFC49387C1E1C8D3D5B78280A54705
:102C5C0063F0B70EEFD20FF12A84484183070500C9
:102C6C00B1EF1C44838707009387F7FB93B71700DA
:102C7C001387C1E11CAB48448307050089CF1C486E
:102C8C008385070089C95C488387070089C71C4C6A
:102C9C008387070095EB484C83070500B9E3085080
:102CAC0083070500ADE7485083070500A5EF938720
:102CBC00C1E105472389E7046FD00FEDEFF0FFCC9E
:102CCC009387C1E188DF71BFEFF01FC69384C1E128
:102CDC0088CC1C4C838507004848EFF0FFC4C8CC57
:102CEC005DBF9305803EEFF09FBAB5679387478F22
:102CFC00B335F50237460F0013060624814633051B
:102D0C00F502EF10A02C9387C1E188DB49BF930536
:102D1C004006EFF0DFB79387C1E1CABB0547238BB1
:102D2C00E70251B7EFF07FB29387C1E1C8DF41B73B
:102D3C008280A14763F5B706EFD2CFE22A844841DF
:102D4C008307050081EF484C830705009DE39387BB
:102D5C00C1E105472389E7046FD00FE393054006D3
:102D6C00EFF0FFB29387C1E1CABB0547238BE702A3
:102D7C00D9BF9305803EEFF09FB1E1679387076A57
:102D8C00B335F50237F63600130606E881463305EF
:102D9C00F502EF10A0239387C1E188DB4DBF828041
:102DAC00C54763E3B7008280EFD2CFDB2A840845A6
:102DBC00EFF0BFA99384C1E1A8A893054006485C35
:102DCC00EFF0FFACAAB4930540062840EFF03FACFF
:102DDC008AB4930540066840EFF07FABCAB48547D0
:102DEC002389F4046FD04FDA8D4763E3B7008280F8
:102DFC00EFD24FD74845EFF05FA59387C1E1C8AB41
:102E0C0005472389E7046FD02FD8994763FBB70692
:102E1C00EFD24FD52A8448418307050089CF1C4443
:102E2C008385070089C95C448387070089C71C48D0
:102E3C008387070085E74848830705008DEF1C4C06
:102E4C00838707009387F7FB93B717001387C1E1BC
:102E5C001CAB85472309F7046FD00FD3EFF0DFAC21
:102E6C009384C1E188CC1C48838507004844EFF06B
:102E7C00BFABC8CCC9B7EFF05FB19387C1E188DFB6
:102E8C007DBF8280EFD20FCEAA84AE87B285FD17AC
:102E9C00B3C6F60A13F4F60F2286EFD0AFCFA29486
:102EAC00238004006FD04FCEEFD2CFCB75712A8424
:102EBC009387C1E1B8430507B8C3EFF0FFB609E942
:102ECC009387C1E1B8470507B8C749616FD0CFCB2D
:102EDC009387C1E1F8430507F8C3130600020C08F9
:102EEC002285EFF03FBC2A846DD1C2442685EF10B9
:102EFC0000639147E3FBA7FC2685EFF09FC071D5DB
:102F0C008D461386240099452800EFF0BFF78D46B7
:102F1C0030009945138581E6EFF0DFF6B765102098
:102F2C00938505DD2800EFD04FC931CDB765102052
:102F3C00938545DD2800EFD04FC839C9B7651020FF
:102F4C00938585DD2800EFD04FC721C9B7651020C8
:102F5C009385C5DD2800EFD04FC629C5B765102075
:102F6C00938505DE2800EFD04FC531C1B765102021
:102F7C00938545DE2800EFD04FC421F9A2850808BF
:102F8C00EFF0BFE899B7A2850808EFF0DFBE35BFB8
:102F9C00A2850808EFF0BFCB0DBFA2850808EFF0A3
:102FAC005FD925B7A2850808EFF09FDF39BFA2854E
:102FBC000808EFF07FE311BFEFD2CFBA01112A84DA
:102FCC0002CA02CC02CE02C202C402C602C88545A5
:102FDC0037050800EFE08FBD85454545EFE04FBB59
:102FEC001D46994537150140EFD01F9C93070004EF
:102FFC00FC828D473ECCE1473ECE4C083715014054
:10300C00EFD07F891D469D4537150140EFD0DF99E4
:10301C0093070008FC8291473ECE4C0837150140BF
:10302C00EFD07F8722C22314010023150100231641
:10303C00010023180100B1477C874C003754004035
:10304C00130504C0EFE0AFF68545130504C0EFE0AF
:10305C003F82130640408145138501E7EFD0EFB462
:10306C009384C1E11306400581451385C1E1EFD07E
:10307C00CFB3054693055052130504C0EFE0DF8033
:10308C00B7E700E00547A38AE7443707200023A4ED
:10309C00E71093050002130504C0EFE0DF8433351D
:1030AC00A000C8A4A145130504C0EFE0DF833335AD
:1030BC00A000C8B48945130504C0EFE0DF823335A6
:1030CC00A000E8A49145130504C0EFE0DF8133357F
:1030DC00A000E8B4239801862387018605616FD090
:1030EC00AFAAEFD22FA893050002B7540040138566
:1030FC0004C0EFE04FFF3335A0001384C1E148A4B6
:10310C00A145138504C0EFE00FFE3335A00048B491
:10311C008945138504C0EFE00FFD3335A00068A48A
:10312C009145138504C0EFE00FFC3335A00068B463
:10313C009305000237550040130505C0EFE0AFFAC8
:10314C0031C137550040130505C0EFE04FF9137539
:10315C00F50F138701E7835527409386150093F6E7
:10316C00F63F9387C1E1D0430506D0C388A78357A8
:10317C000740E38FD7FA938701E7BE9588A1239187
:10318C00D7407DB7EFF08FE89387C1E1AAA711A8CC
:10319C0005472387E186239801862398E186238EB1
:1031AC00A1D8EFF0AFE625C5EFF08FE81315456019
:1031BC0093074002E30EF5FC83C7E186FDD3B547C8
:1031CC00E301F5FEA9476301F50203D701879307D5
:1031DC00E00763E9E702930617002398D1869387EB
:1031EC00C1D9BA9788A375BF03D701879387C1D973
:1031FC00BA9723800700238701861385C1D9EFF086
:10320C00BFCA45B7238701862398018659BF6FD063
:10321C00AF972A879386C1E103C526059387C1E141
:10322C009386070583A8070003A847008C47D0475F
:10323C0023201701232207010CC750C7C1074107E0
:10324C00E392D7FE9C431CC39387C1E123890704F7
:10325C008280EFD22F91A14537550040130505C050
:10326C00EFE06FE801CD9387C1E10547D8B7B757B9
:10327C000040138707C083D707C05E2389453755A5
:10328C000040130505C0EFE00FE609C59387C1E1C7
:10329C000547F8A7914537550040130505C0EFE0E9
:1032AC008FE409C59387C1E10547F8B79305000280
:1032BC0037550040130505C0EFE0EFE219E16FD080
:1032CC00AF8C37550040130505C0EFE04FE1137587
:1032DC00F50F138701E7835527409386150093F666
:1032EC00F63F9387C1E19043050690C388A78357A7
:1032FC0007406388D700938701E7BE9588A1239187
:10330C00D740EFF0AFD09387C1E1AAA74DBF83A7F9
:10331C00018437470F0013070724B3D7E702239C18
:10332C00F186B3C707081307803EB387E70223AAC9
:10333C00F1868280B7F700E0D843799BD8C303D7D6
:10334C0081873307A70223A4070098CB114798C3A2
:10335C0098431367170098C3B7F700E0DC43858BDD
:10336C00E5DF37F700E01C43F99B1CC38280B7F7FD
:10337C0000E0D843799BD8C303A741873307A70242
:10338C0023A4070098CB114798C3984313671700E1
:10339C0098C3B7F700E0DC43858BE5DF37F700E037
:1033AC001C43F99B1CC38280EFC2DFFB01112A84F2
:1033BC0002CA02CC02CE02C202C402C602C88545B1
:1033CC0011652505EFD0DFFC1D469945B71401406A
:1033DC00138504C0EFD04FDD93070004FC828D47AA
:1033EC003ECCE1473ECE4C08138504C0EFD0AFCAAB
:1033FC0022C22314010023150100231601002318F7
:10340C000100A1477C874C00374401401305048020
:10341C00EFE0EFB9854513050480EFE06FC505615A
:10342C006FC09FF6EFC27FF22E84B289814405A84B
:10343C00930500043745014013050580EFE0AFCA42
:10344C0065D91309140083050400B3C50508374575
:10345C00014013050580EFE00FC885044A84E3C9D9
:10346C0034FD4E856FC0BFF1AA8703A58182AA9750
:10347C001387812C63EBE7003707182013070780AD
:10348C006367F70023A4F18282807D5582807D558D
:10349C008280B307A0403365F50A82808D47630AAA
:1034AC00F5008947630CF50037651020130505DF1F
:1034BC00828037651020130585DE828037651020E9
:1034CC001305C5DE8280EFC2FFE9AA842E893284FF
:1034DC003285EFF01FFC634604029306B002379668
:1034EC00980013060668B367C5023347C5023766F2
:1034FC001020130646DFCA852685EF00707B6FC04F
:10350C00BFE89306D002E1BFEFC23FE479712A8491
:10351C00032985039309803EB3593903EFE09FDEFD
:10352C001C2863830718930410042828EFF01FF756
:10353C002A8783484401034834011C38A686376621
:10354C001020130606E0E1452808EF007076994636
:10355C00300881450145EFE03FF7104CC14528008C
:10356C00EFF07FF63400376610201306C6E1E14514
:10357C002808EF00F07399463008A1450145EFE0AB
:10358C00BFF4504CC1452800EFF0FFF33400376610
:10359C001020130646E2E1452808EF0070719946A9
:1035AC003008C1450145EFE03FF2832A0402130ABB
:1035BC00803E33E54A03EFF0DFED930440063347DA
:1035CC009502B3C64A03376610201306C6E2E145DE
:1035DC002808EF00F06D99463008E1450145EFE011
:1035EC00BFEE145833F79602B3D696023766102006
:1035FC001306C6E3E1452808EF00906B99463008A6
:10360C00930500020145EFE03FEC56381E3433F8C9
:10361C009702B3D7970233F79602B3D69602376662
:10362C001020130606E5E1452808EF00706899465E
:10363C003008930580020145EFE01FE9B7F736002B
:10364C00938707E83359F9021307C003B3D6E9028D
:10365C00B3F7E90233F7E602E146B376D9023766EF
:10366C001020130686E6E1452808EF0070649946A1
:10367C003008930500030145EFE01FE57840344026
:10368C0037661020130606E8E1452808EF00506263
:10369C0099463008930580030145EFE0FFE2EFE027
:1036AC009FC745616FC0BFCD93046005BDBDEFC220
:1036BC00DFC9757137651020130505E9EF00B05EA1
:1036CC0085452145EFD0DFCC02CA02CC02CE85471E
:1036DC00FC82C1473ECE8D473ECC4C08371501408D
:1036EC00130505C0EFD02F9B716513050520EFE086
:1036FC00EFC905CD37651020130585EAEF00B05AE8
:10370C00854537140140130504C0EFD0AFA913054C
:10371C004006EFF0DFC58545130504C0EFD04FA878
:10372C0013054006EFF0BFC4E1BF2A8437651020B3
:10373C001305C5EFEF003057EFE0AFF237651020FF
:10374C001305C5F1EF003056930640421306404274
:10375C009305404213054042EFE0DF82752AEFE00B
:10376C00DF8637651020130545F5EF00D053EFE0E9
:10377C007FF2A56413850460EFF01F8493850460C9
:10378C0037651020130585F7EF00F03DEFE0FFBB28
:10379C00994637661020130606FB81450145EFE07C
:1037AC00BFD2994637661020130606FCA145014589
:1037BC00EFE09FD1EFE03FB637651020130505FD14
:1037CC00EF00704E1306000681450818EFC0FFBDD0
:1037DC009305004037150140EFD0CF9A9315B028D0
:1037EC0037150140EFD00F9A22898149014A814453
:1037FC00B9A0854537150140130505C0EFD04F9A88
:10380C00B1A8950426C70C18228595220504954766
:10381C003364F4021374F40F93072003B3F7F40228
:10382C00DDCBB38744411307703E6368F70C081077
:10383C00852E035501029307703E63E6A70C854560
:10384C0037150140130505C0EFD0AF945DD1854508
:10385C0037150140130505C0EFD0CF94EFF07F88EA
:10386C0013854127EFF0FF9A49DD138541270C2979
:10387C002303B1061039A303C1063C292304F10626
:10388C003439A304D1065C292305F106184DBAD6A8
:10389C005C4DBED803280502C2DA83588502231C6E
:1038AC00110783280503C6DE4A392310A1088509B0
:1038BC004D43E37833F513034006337E650272C241
:1038CC00335565022AC03765102013050501EF003A
:1038DC00902981493DB7130559000C181375F50F44
:1038EC00792005099357F941F9833E9913793900E9
:1038FC003309F9401379F90F2DB713854127EFF0F0
:10390C00BFC0268A2DB783566102035641028355E8
:10391C002102EFE02FE725B7EFC2DFA40111EFD0B2
:10392C00CFD52800EFD0AFF702C402C6054422C899
:10393C0002CA02CC02CE2800EFD06FF1EFD0CFF745
:10394C002800EFD0CFF522C422C602C802CA02CC8E
:10395C0002CE2800EFD0AFEFEFD0EFF63765102096
:10396C0013050506EF00303405616FC0FFA1EFC2EF
:10397C007F9F2A84AE840145EFD06FCB8547631CB3
:10398C00F504A14763E18704B76710209387870785
:10399C00B347F4209C4382878C400145EFD0EFF66F
:1039AC00CC400545EFD06FF68C440945EFD0EFF5D0
:1039BC00FC4C370700017D17F98F93158401DD8DC1
:1039CC000D45EFD08FF481450145EFD00FF28545C1
:1039DC000145EFD08FC86FC03F9BCC440145EFD061
:1039EC00CFF28C480545EFD04FF2CC480945EFD0CB
:1039FC00CFF1FC4C370700017D17F98F931584012B
:103A0C00DD8D0D45EFD06FF07DBF8C4C0145EFD0B7
:103A1C00CFEFCC4C0545EFD04FEF8C500945EFD094
:103A2C00CFEEFC4C370700017D17F98F93158401FD
:103A3C00DD8D0D45EFD06FED79B7CC500145EFD052
:103A4C00CFEC83C584020545EFD02FEC81450945A9
:103A5C00EFD0AFEBFC4C370700017D17F98F9315B6
:103A6C008401DD8D0D45EFD04FEAB1BFCC5401453B
:103A7C00EFD0AFE98C580545EFD02FE983C544034F
:103A8C0083C75403A207DD8D0945EFD00FE8FC4C2A
:103A9C00370700017D17F98F93158401DD8D0D45D6
:103AAC00EFD0AFE60DB7CC5C0145EFD00FE6AC40E4
:103ABC000545EFD08FE5EC400945EFD00FE5FC4C08
:103ACC00370700017D17F98F93158401DD8D0D45A6
:103ADC00EFD0AFE3CDBD83C7640303C774032207E4
:103AEC00D98F03C784034207D98F83C59403E2059A
:103AFC00DD8D0145EFD06FE183C5A40383D784042A
:103B0C00C207DD8D0545EFD04FE081450945EFD06B
:103B1C00CFDFFC4C370700017D17F98F931584011B
:103B2C00DD8D0D45EFD06FDE79BDEC440145EFD056
:103B3C00CFDD83D504050545EFD02FDD8145094543
:103B4C00EFD0AFDCFC4C370700017D17F98F9315D4
:103B5C008401DD8D0D45EFD04FDBB5B583D5240544
:103B6C0083D74405C207DD8D0145EFD00FDA83D52D
:103B7C00640583D78405C207DD8D0545EFD0EFD8EA
:103B8C0083C5A4050945EFD04FD8EC4CB70700010D
:103B9C00FD17FD8D6204C18D0D45EFD00FD725B5F6
:103BAC00EFC24FFC2A8481450545EFD0AFD2854743
:103BBC006304F5006FC04FFD0145EFD0EFD62A89A5
:103BCC000545EFD06FD6AA840945EFD0EFD5231069
:103BDC002401135909012311240146A0C18066A0B8
:103BEC0008A4935785005CC481450545EFD0EFD000
:103BFC00D1B7014863C8050E63DB0600B337C000BC
:103C0C00B306D0401348F8FF9D8E3306C040B288EF
:103C1C002A872E83F9E263F2C512C167636CF61A28
:103C2C00B7070001B337F600B307F040E19BE1079B
:103C3C00335EF6009726000093868654F296942203
:103C4C00130E0002B697B306FE40630CFE003393CE
:103C5C00D500B357F500B318D60033E3670033171C
:103C6C00D50013D608013355C302B3C608089357C1
:103C7C0007013373C302B385A6024203B3E767009F
:103C8C0063FAB700C6971303F5FF63E4170163E803
:103C9C00B7321A858D8FB3D5C70233470708B3F7F0
:103CAC00C702B386B602C2075D8F637BD700469707
:103CBC009387F5FF63651701F9156363D700BE851C
:103CCC0042054D8D814563090800B337A000B3054B
:103CDC00B0409D8D3305A040828063FED5008145A8
:103CEC000145D5B7B337A000B305B0409D8D330562
:103CFC00A0407D5811B7C16763E4F618B7070001FF
:103D0C00B3B7F600B307F040E19BE107B3D8F60078
:103D1C00172700001307C746469718231303000202
:103D2C003E97B308E3406311E31863ECB6263335D2
:103D3C00C50013451500814579B75DC2C167637A2B
:103D4C00F62413330610134313000E03B356660008
:103D5C00972700009387C742B697942393070002D6
:103D6C009A96B38ED740639CD708B386C5408545D9
:103D7C00135306013346060833D5660293570701E1
:103D8C00B3F66602330EC502C206D58F63FAC701BD
:103D9C00C6979306F5FF63E4170163EFC7213685D9
:103DAC00B387C741B3D6670233470708B3F7670237
:103DBC003386C602C2075D8F637BC7004697938725
:103DCC00F6FF63651701F9166363C700BE864205EB
:103DDC00558DD5BD9337061093C717008E0789BD37
:103DEC008146972700009387A739B6979423014300
:103DFC00930700029A96B38ED740E388D7F6B31890
:103E0C00D60133DED50013D30801B3576E02B35677
:103E1C00D5003317D50133C60808B395D501CD8E1F
:103E2C0093D50601337E6E023305F602420EB3E5DE
:103E3C00C50163FBA500C695138EF7FF63EA151742
:103E4C0063F8A516F917C695898D33D56502B3C6E7
:103E5C000608B3F56502330EA602C205CD8E63FBD0
:103E6C00C601C6969305F5FF63E0161563FEC613EF
:103E7C007915C69693950701B386C641C98DEDBDDC
:103E8C0093B7061093C717008E07B3D8F600172701
:103E9C0000001307E72E46971823130300023E97E2
:103EAC00B308E340E303E3E8B35EE600B396160120
:103EBC00B3EEDE0033D3E50013DF0E01B357E3039B
:103ECC00B39515013357E5004D8F33CE0E0893563D
:103EDC000701331616013373E303B305FE024203E5
:103EEC00B3E6660063FBB600F6961383F7FF63E355
:103EFC00D60D63F1B60CF917F6968D8EB3D5E60395
:103F0C0033470708B3F6E6033303BE02C206558FE8
:103F1C00637B670076979386F5FF6369D7096377B0
:103F2C006708F9157697C207416FCD8F9306FFFF8F
:103F3C00B3F5D70013DE0701F18E4182B38ED502A3
:103F4C0033076740B306DE0213D30E01B385C502F7
:103F5C00B6959A95330ECE0263F3D5007A9E93D61E
:103F6C000501F2966363D7026305D7003E85814550
:103F7C0099BBC166FD1633F7D5004207B3FEDE00D0
:103F8C00331515017697E373E5FE1385F7FF81452D
:103F9C001DBBB70700016377F60293560601414338
:103FAC0045BB8145054505B32E85E9B5B685A5BF4D
:103FBC00F28759BD9A8791B77915C697D5B37915FC
:103FCC00C697C9B993568601614359B33288AA88FA
:103FDC002E87CDEA63FFC50EC167636AF618B70773
:103FEC000001B337F600B307F040E19BE107335310
:103FFC00F600972600009386A6189A96942213032F
:10400C000002B697B306F340630BF3003397D50069
:10401C00B357F5003318D6005D8FB318D50013567F
:10402C0008013355C702B346080893D70801337704
:10403C00C702B385A6024207D98F63FAB700C297AD
:10404C001307F5FF63E4070163E8B7303A858D8FFA
:10405C0033D7C702B3C80808B3F7C702B386E60262
:10406C00C207B3E8F80063FBD800C2989307F7FFC8
:10407C0063E50801791763E3D8003E874205598D43
:10408C008145828063F5D500814501458280C167F9
:10409C0063E5F618B7070001B3B7F600B307F040B5
:1040AC00E19BE10733D8F600172700001307470DF3
:1040BC0042971823930800023E973388E840639296
:1040CC00E81863EDB6263335C50013451500814558
:1040DC00828045C6C167637BF624133706101347ED
:1040EC0017000E07B356E600972700009387470981
:1040FC00B6979C2393060002BA97B38EF640639D45
:10410C00F608B387C5408545935606013346060825
:10411C0033D5D70213D70801B3F7D7023303C5023F
:10412C00C207D98F63FA6700C2971307F5FF63E4E0
:10413C00070163E067223A85B387674033D7D7021C
:10414C00B3C80808B3F7D7023306C702C207B3E8EF
:10415C00F80063FBC800C2989307F7FF63E50801FA
:10416C00791763E3C8003E874205598D82809337E7
:10417C00061093C717008E079DBD81469727000038
:10418C0093870700B6979C23014793060002BA97C2
:10419C00B38EF640E387F6F63318D60133D3F50029
:1041AC0093560801335ED302B395D501B357F5008E
:1041BC00CD8F3346080813D70701B318D5013373D5
:1041CC00D302B305C603420333676700637BB700B2
:1041DC0042971305FEFF636A07176378B716791EBB
:1041EC0042970D8F3355D702B3C707083377D702E1
:1041FC003303A6024207D98F63FB6700C2971307EC
:10420C00F5FF63E0071563FE67127915C2979315E6
:10421C000E01B3876740C98DE5BD93B7061093C7F0
:10422C0017008E0733D8F60017270000130747F541
:10423C0042971823930800023E973388E840E382A4
:10424C00E8E8335EE600B3960601336EDE00B3D8C1
:10425C00E500935E0E01B3D7D803B3950501335730
:10426C00E5004D8F33430E089356070133160601B4
:10427C00B3F8D803B305F302C208B3E6160163FB27
:10428C00B600F2969388F7FF63E3C60D63F1B60CA4
:10429C00F917F2968D8EB3D5D60333470708B3F6CC
:1042AC00D603B308B302C206558F637B170172970E
:1042BC009386F5FF6369C70963771709F915729738
:1042CC00C207C16ECD8F9386FEFFB3F5D70013D313
:1042DC000701F18E4182338ED50233071741B306A5
:1042EC00D30293580E01B385C502B695C695330318
:1042FC00C30263F3D500769393D605019A96636354
:10430C00D7026305D7003E8581458280C166FD16C4
:10431C0033F7D5004207337EDE0033150501729763
:10432C00E373E5FE1385F7FF81458280B707000133
:10433C006377F6029356060141477DB381450545E7
:10434C0082803A85E9B5B685A5BF2A8E59BDC68748
:10435C0091B77915C297CDB37915C297CDB993564C
:10436C008601614751B35D7122D406D62A842EDAB8
:10437C0032DC36DEBAC0BEC2C2C4C6C603A5C18218
:10438C0011C51C4D81E72AC6E12B32450C4554184A
:10439C00228636CEEF10A017B25022546161828073
:1043AC00011126CA06CE22CC4AC84EC652C4AA84D3
:1043BC0019E11C4502901C4D2E89B5E355239C4CEC
:1043CC008044A5C397270000938787EF631EF404EE
:1043DC00C0407C50858B81EB5E2493F7072081E7EE
:1043EC00284CEF00A0705E24A18B99C31C48D5E328
:1043FC00A2852685DD2A51CDFD547C50858B99E70D
:10440C005E2493F7072099E3284CD525F2406244AB
:10441C004249B249224A2685D24405618280004530
:10442C0055B72685352B79BF97270000938747E72B
:10443C006314F400804471BF97270000938747E40E
:10444C00E319F4F8C04471B71CC4050963C807022A
:10445C001C401387170018C08CA31C44834509000B
:10446C00FD17FDF11CC463D907022286A9452685D8
:10447C007D28FD57E302F5F8A94441B7184C63C4F5
:10448C00E700E39745FD228626855520E31735FD89
:10449C00A5B7FD59294AD1B71C401387170018C07E
:1044AC00294798A3D1BFAA8503A5C1826FF05FEFFE
:1044BC003571A6DA86DEA2DCCAD836C73AC93ECB3D
:1044CC0042CD46CF83A4C18263DC05009307B008BC
:1044DC009CC07D55F6506654D65446590D61828069
:1044EC0093078020FC822AC42ACC2E84814799C150
:1044FC009387F5FF7D5974012C0026853EC83ECE6E
:10450C00231B210136C2EF00301C63552501930794
:10451C00B0089CC061D0A2472380070065BFAA8762
:10452C009823850775FF3385A7407D15828001117F
:10453C0022CC26CA4AC806CE4EC6AA842E893284FC
:10454C0001C51C4D91E3292997270000938747D774
:10455C006317F402C0401C4C1CC45E24A18B99C38D
:10456C001C4895EFA2852685492015C97D59F24036
:10457C006244D244B2494A854249056182809727F8
:10458C0000009387E7D16314F4008044E9B79727C0
:10459C0000009387E7CEE310F4FCC0446DBF1C48C9
:1045AC0008409379F90F1379F90F1D8D5C48634618
:1045BC00F500A2852685912C55F91C440505FD179F
:1045CC001CC41C401387170018C0238037015C489B
:1045DC006388A7005E24858BD9DBA947E319F9F81A
:1045EC00A28526851D2441D551B7411122C426C26E
:1045FC004AC006C683A4C1822A892E8489C49C4CD5
:10460C0099E32685B12E97270000938767CB631318
:10461C00F402C0408317C40013F7870025E713F793
:10462C0007010DEB25472320E90093E707045EA45F
:10463C007D5571A097270000938787C66314F400FB
:10464C008044C9BF97270000938787C3E314F4FC09
:10465C00C044C9B7918B9DC34C5889C99307440476
:10466C006384F5004A85AD2B232A04025E242322A1
:10467C00040093F7B7FD5EA41C481CC05E2493E7AE
:10468C0087005EA41C4899EB5E241307002093F767
:10469C0007286385E700A2854A8545298317C4004E
:1046AC0013F717001DC35848232404003307E040B8
:1046BC0018CC1848014501E713F707083DF7B2403D
:1046CC002244924402494101828013F7270081461B
:1046DC0011E3544814C4F1BF8397C500011122CCD7
:1046EC0026CA06CE4AC84EC613F78700AA842E8463
:1046FC0079E3D8416345E000B8416356E00858546B
:10470C0059C303A9040023A004000C5093D7C74835
:10471C00A9CB70485E24918B99C75C401D8E5C5868
:10472C0099C33C401D8E5C540C5081462685829763
:10473C00FD57630CF5041C480567232204001CC0BC
:10474C005E24F98F91C368C84C5823A0240185CDF1
:10475C00930744046384F50026855921232A040217
:10476C001DA00146854626850297FD572A86E31330
:10477C00F5FA9C40C5D375476385E70059476395A7
:10478C00E70623A024010145B5A098408317C40077
:10479C0001CFF5466305D700D9466319D7041C48E9
:1047AC00232204001CC04DB718482322040093D7C1
:1047BC00C74818C041BF83A90501E38609FC03A9BA
:1047CC0005008D8B23A0350133093941014791E355
:1047DC00D84918C4E35920FB1C540C50CA864E8689
:1047EC0026858297634FA0008317C40093E70704C4
:1047FC005EA47D55F2406244D2444249B2490561FF
:10480C008280AA993309A940F1B79C49411106C687
:10481C0022C426C281EB8144B240224426859244B4
:10482C0041018280AA842E8401C51C4D91E30D2A7E
:10483C00972700009387C7A8631DF402C040831715
:10484C00C400F1DB7850058B11E793F7072099E34F
:10485C00284C692C2685A285EFF01FE87C50AA8491
:10486C00858BDDFB5E2493F70720DDF7284C412474
:10487C0065B7972700009387A7A26314F4008044C0
:10488C007DBF972700009387A79FE31AF4FAC044D3
:10489C007DB7411122C406C62A844EA572A52320D9
:1048AC0005002322050023240500232205062328C6
:1048BC000500232A0500232C0500214681451305FC
:1048CC00C505EFB09FAE971700009387A7F25CD099
:1048DC00971700009387A7F41CD4971700009387B1
:1048EC0067F85CD4971700009387A7FAB24000D002
:1048FC001CD822444101828097050000938525F144
:10490C0049A2411126C2930780069384F5FFB38414
:10491C00F4024AC02E8922C406C6938544077D2E14
:10492C002A8401CD2320050023222501310508C44A
:10493C00138684068145EFB05FA7B24022852244DE
:10494C0092440249410182801385018845A2138556
:10495C00018871AA1385418851AA1385418841AAFF
:10496C00411122C406C62A84EFF0DFFE1C4C91C70D
:10497C002244B24041016FF05FFE9707000093871D
:10498C00E7F71CD42324040423260404232804045A
:10499C0083A7C1836394870085471CCC2285152887
:1049AC0048C022853D2008C42285252048C44840A3
:1049BC0001469145EFF0FFED08440546A545EFF0A3
:1049CC005FED48440946C945EFF0BFEC85471CCC68
:1049DC0045B7411126C24AC006C622C42A89EFF047
:1049EC00BFF683A4C1839C4C81E72685EFF05FF76B
:1049FC00938484048044DC40FD1763D607009C40FC
:104A0C00A5C78440C5BF0317C40021EFC177850734
:104A1C005CC41305840523220406C128EFF03FF380
:104A2C0021462320040023240400232204002328ED
:104A3C000400232A0400232C040081451305C4051B
:104A4C00EFB0BF96232A0402232C0402232404046F
:104A5C0023260404B2402285224492440249410197
:104A6C0082801304840649BF91454A85EFF07FE9A3
:104A7C0088C02A8459F5EFF09FEDB1472320F90047
:104A8C00D1BF797122D44AD04ECE52CC5AC85EC610
:104A9C0006D626D256CA2A892E8A13048504814941
:104AAC00054BFD5B0444832A4400FD1A63D00A02C3
:104ABC0000406DF8B250225492540259624AD24AC4
:104ACC00424BB24B4E85F24945618280DE24637BBA
:104ADC00FB008397E40063877701A6854A85029AD9
:104AEC00B3E9A90093848406C9B78280828082804E
:104AFC005971A2D42E848395E500A6D2CAD086D64D
:104B0C00B284368963D205025E2493F7070895EBCD
:104B1C0013070040B65026542320F90098C00659BC
:104B2C0096540145656182803000EF00D05BE34D07
:104B3C0005FC3247BD67F98F7977BA9793B71700A1
:104B4C00C1BF814713070004F1B7DE25797122D468
:104B5C0006D626D24AD04ECE898B2E8491CF93077F
:104B6C0074041CC01CC885475CC8B25022549254B3
:104B7C000259F2494561828074003000AA84EFF03A
:104B8C003FF7A2492A892685CE85892A19E98317F8
:104B9C00C40013F7072071FBF19B93E727005EA479
:104BAC007DBF97070000938767D59CD45E2408C00F
:104BBC0008C893E707085EA4B247232A340181CFC3
:104BCC008315E4002685EF00905411C55E24F19BFB
:104BDC0093E717005EA45E2433E527014AA471B75E
:104BEC00C5C183A7C5FF011122CC06CE1384C5FF16
:104BFC0063D307003E942AC6EF00F0571387C18891
:104C0C001C43324589EB2322040000C36244F2406A
:104C1C0005616F00D056637DF4001040B306C400EC
:104C2C006396D7009443DC43B29614C05CC0F1BFCA
:104C3C003E87DC4399C3E37DF4FE14433306D7006F
:104C4C00631F86001040B29614C33306D700E39F4F
:104C5C00C7FA9043DC43B29614C35CC345BF63757B
:104C6C00C400B1471CC15DB71040B306C4006396C5
:104C7C00D7009443DC43B29614C05CC040C379B7F0
:104C8C00828041114AC0138981888327090022C47C
:104C9C0026C206C6AA842E8491E78145EF00D03245
:104CAC002320A900A2852685EF0010327D59631AB6
:104CBC0025017D54B240228522449244024941018F
:104CCC008280130435007198E30685FEB305A44079
:104CDC002685EF00702FE31F25FDE1BF011126CAC9
:104CEC0093843500F1984AC8A104B14706CE22CC72
:104CFC004EC62A89B3F4F40A63C4040063FDB400FD
:104D0C00B1472320F9000145F2406244D2444249A4
:104D1C00B24905618280EF0010469389C18883A750
:104D2C0009003E8429E8A6854A85EFF09FF5FD57DA
:104D3C002A84631AF50A03A40900A287D9EB8329F4
:104D4C00040081454A85A299EF0010286396A908B2
:104D5C001C408D044A859D8CF198B147A104B3F495
:104D6C00F40AA685EFF0FFF1FD576307F5061C402A
:104D7C00A6971CC015A01440858E63C906042D4748
:104D8C00637ED70204C0330794006397870223A085
:104D9C00E9005C4014C35CC34A85EF00503E130528
:104DAC00B4009307440061993307F540E30EF5F422
:104DBC003A94898F1CC089BFD8C3E1BF5840639512
:104DCC00870023A0E900C9BFD8C3F9B7A287404028
:104DDC0091BF3E84DC439DB7B1472320F9004A853F
:104DEC00EF00F0390DB704C145BF01114AC803A942
:104DFC00850022CC4EC652C456C206CE26CA5AC014
:104E0C0003AA05002E84B28AB68963E52607839728
:104E1C00C50013F7074829CF58488D448C49B384F3
:104E2C00E4020947330ABA4093F707402A8BB3C40C
:104E3C00E402138716005297B3F4E40AA5C7A685BB
:104E4C00EFF0DFE92A8925C90C485286EFB08FD4E0
:104E5C005E2493F7F7B793E707085EA42328240191
:104E6C0044C85299B38444412320240104C44E897C
:104E7C0063F329014E8908404A86D685EFB02FD5B9
:104E8C001C440145B38727411CC41C40CA971CC055
:104E9C00F2406244D2444249B249224A924A024BFD
:104EAC00056182802686EF00102E2A8945F90C4870
:104EBC005A85EFF0FFD2B1472320FB005E247D55CD
:104ECC0093E707045EA4E9B7DE25357122CD26CB26
:104EDC004AC952C506CF4EC756C35AC1DEDEE2DC04
:104EEC0093F707082A8A2E89B2843684A1C39C4979
:104EFC0095EF93050004EFF07FDE2320A900232813
:104F0C00A9000DE1B1472320FA007D55FA406A440F
:104F1C00DA444A49BA492A4A9A4A0A4BF65B665C11
:104F2C000D61828093070004232AF9009307000285
:104F3C00A304F1029307000302D22305F10222C657
:104F4C00930B5002971A0000938A8A39294B2684B6
:104F5C001C2099C363997709330C9440630E940019
:104F6C00E2862686CA855285EFF03FE8FD57630737
:104F7C00F5189257E2973ED21C2063810718FD5713
:104F8C009304140002C802CE3ECA02CCA309010449
:104F9C0082D48C2015465685EF00701CC2471384B2
:104FAC00140021E513F7070109C713070002A30931
:104FBC00E10413F7870009C71307B002A309E10442
:104FCC0094201307A0026389E602F24726848146E7
:104FDC002546182093051400130707FD6372E60697
:104FEC0085C63ECE15A00504A5B733055541B3972C
:104FFC00A728A2843EC871BF3247930647001843C6
:10500C0036C6634807023ACE18209307E002631CA9
:10501C00F70418309307A002631AF702B247090489
:10502C00138747009C433AC67D57B3E7E70A3ECA4D
:10503C001DA83307E04093E727003ACE3EC8E9B7F6
:10504C00B38767032E848546BA9761B7050402CAF5
:10505C00814681472546182093051400130707FD48
:10506C006374E606E9F60C200D46171500001305CF
:10507C00A527EF00D00E11CD971700009387C726F8
:10508C001D8DC247130700043317A700D98F0504E1
:10509C003EC80C201946171500001305252593044E
:1050AC0014002304B102EF00900B2DC193070000F4
:1050BC0095E74247B2471377071009CF91073EC6D1
:1050CC009257CE973ED261B5B38767032E8485463F
:1050DC00BA9751B79D07E19BA107D5B77800970602
:1050EC0000009386C6D04A860C08528597000000B3
:1050FC00E7000000FD57AA89E314F5FC8357C900AB
:10510C0093F70704E39307E0125509B57800970667
:10511C0000009386C6CD4A860C0852853922D9BF29
:10512C00797156CA9C49BA8A984522D44AD04ECE37
:10513C0052CC06D626D25AC85EC6B3E7E70A1CC2C2
:10514C0003C73504AA892E843289368A19C3850788
:10515C001CC21C4093F7070291C7832709008907DB
:10516C002320F9000440998891E8130B9401FD5B0E
:10517C005C4403270900998F63CCF40483473404FF
:10518C00B336F0001C4093F70702A5EB130634046A
:10519C00D2854E85829AFD576303F5041C40114756
:1051AC008144998B6399E7008327090044449D8CC3
:1051BC008147B3E4F40A1C4418486354F700998FF0
:1051CC00BE94014969047D5B63982405014509A8D7
:1051DC0085465A86D2854E85829A631E75017D5509
:1051EC00B250225492540259F249624AD24A424B6A
:1051FC00B24B456182808504A5BF3307D4001306EA
:10520C000003A301C7040347540493871600A29715
:10521C008906A381E7049DBF85462286D2854E85EB
:10522C00829AE30E65FB050945B7797122D44AD001
:10523C004ECE52CC06D626D256CA5AC803C88501C1
:10524C00930780072A892E84B289368A63E2070382
:10525C00930720069386350463E10703630C081C4F
:10526C0093078005171600001306C6086308F81488
:10527C00930424042301040515A89307D8F993F784
:10528C00F70F5546E366F6FE1716000013060609DF
:10529C00B3C7C7209C43B29782871C4393842504D1
:1052AC00938647009C4314C32381F50485476DA264
:1052BC0090411C43137506089385470029C19C43F4
:1052CC000CC3584063DF07129305D002A301B4044A
:1052DC0018C4635E0702B307F040171600001306EC
:1052EC0066012948B68433F70703FD143297182357
:1052FC0098A03E87B3D70703E37707FF85A09C43AD
:10530C00137506040CC355DD939757605DBF6D9AFA
:10531C0010C0D1B790411C43137506089385470004
:10532C0001C50CC39C4331A0137606040CC37DDA73
:10533C009E231307F006171600001306A6FB631036
:10534C00E80C2148A3010404584018C4E34C07F8A6
:10535C000C40ED990CC0D9F7B68449F7A147631EF0
:10536C00F8001C40858B91CB58401C4863C7E70064
:10537C0093070003A38FF4FEFD14858E14C8528787
:10538C00CE867000A2854A85EFF09FD9FD5A63192D
:10539C00550D7D55B250225492540259F249624A2D
:1053AC00D24A424B456182809C4193E707029CC1E3
:1053BC001308800717160000130606F5A302040550
:1053CC000C401C4313F805081385470063050800BF
:1053DC0008C39C4339A013F8050408C3E30B08FE6B
:1053EC009E2313F7150001C793E505020CC099C362
:1053FC00414889BF18401377F7FD18C0D5BF29481D
:10540C0091B7171600001306E6EE294835BF9041F8
:10541C001C43CC4913780608138547006306080023
:10542C0008C39C438CC339A008C3137606049C4361
:10543C0075DA8EA323280400B68491B71C43D0419F
:10544C0081459386470014C384432685092B01C5E7
:10545C00B30795405CC05C401CC8A301040405B7AD
:10546C0014482686CE854A85029AE30455F31C40DF
:10547C00898B85E74844B2473365F50A21BF8546D9
:10548C005686CE854A85029AE30565F185045C440F
:10549C003247998FE3C5F4FEF1BF8144930A94011E
:1054AC007D5BF5B71C46FD171CC663DA0700184E6A
:1054BC0063C5E700A9476394F5006FF04F871C4262
:1054CC002E851387170018C28CA38280011122CC61
:1054DC0026CA4AC84EC652C406CE2A89AE89328420
:1054EC00B304D6007D5A63149400014509A80C201E
:1054FC004E864A85EFF01FFB0504E31645FFF2408C
:10550C006244D2444249B249224A056182803571D3
:10551C0022CD26CB4AC94EC706CF52C556C35AC157
:10552C00DEDEE2DCAA892E843289B68409C51C4DE4
:10553C0099E3EFF0EFC297170000938767D86318D1
:10554C00F40403A449007C50858B81EB5E2493F713
:10555C00072081E7284CEFF06FD95E24A18B99C30B
:10556C001C48A5E3A2854E85EFF02F8839C97C50E5
:10557C00858BA1C37D55FA406A44DA444A49BA493D
:10558C002A4A9A4A0A4BF65B665C0D618280971731
:10559C0000009387E7D06315F40003A4890065B776
:1055AC00971700009387C7CDE31FF4F803A4C90035
:1055BC0059BF5E2493F70720D5FF284CEFF02FD36B
:1055CC0055BF93070002A304F1029307000302D214
:1055DC002305F10226C6930B5002971A0000938AFA
:1055EC002AD0294BCA849C2099C3639A7709338C9F
:1055FC002441638E2401E2864A86A2854E85EFF013
:10560C00FFECFD576306F5189257E2973ED29C20AB
:10561C0063800718FD571389140002C802CE3ECAD6
:10562C0002CCA309010482D4834509001546568592
:10563C003D26C2479304190029E513F7070109C752
:10564C0013070002A309E10413F7870009C7130726
:10565C00B002A309E104834609001307A002638981
:10566C00E602F247CA8481462546982093851400A9
:10567C00130707FD6372E60685C63ECE15A08504AA
:10568C009DB733055541B397A72826893EC869BFF6
:10569C00324793064700184336C6634807023ACE92
:1056AC0098209307E002631CF70498309307A0023C
:1056BC00631AF702B2478904138747009C433AC622
:1056CC007D57B3E7E70A3ECA1DA83307E04093E7CE
:1056DC0027003ACE3EC8E9B7B3876703AE84854648
:1056EC00BA9761B7850402CA81468147254698203E
:1056FC0093851400130707FD6372E606E9F68C2008
:10570C000D4617150000130525BE912C11CD9717CA
:10571C000000938767BD1D8DC24713070004331724
:10572C00A700D98F85043EC88C2019461715000098
:10573C001305C5BB138914002304B1020D2435C90C
:10574C009307000095E74247B2471377071009CF3C
:10575C0091073EC69257D2973ED269B5B38767037D
:10576C00AE848546BA9761B79D07E19BA107D5B773
:10577C007800970600009386A6D522860C084E85E5
:10578C0097000000E7000000FD572A8AE314F5FC9F
:10579C007C50858B81EB5E2493F7072081E7284CA6
:1057AC00EFF0EFB45E2493F70704E39507DC125592
:1057BC00D9B3780097060000938686D122860C0810
:1057CC004E85EFF09FA6C9B7411122C42A842E85BD
:1057DC0023A8018806C6EFD03FC9FD576316F50014
:1057EC0083A7018991C31CC0B2402244410182802D
:1057FC00411122C42E848395E50006C60124634919
:10580C0005007C48AA977CC8B240224441018280A2
:10581C005E249397C7485EA4C5BFDE25011122CC38
:10582C0026CA4AC84EC606CE93F70710AA842E8401
:10583C003289B68991C78395E50089460146DD28F2
:10584C005E248315E400F2409397C7485EA462443B
:10585C00CE864A86B24942492685D24405611DA8A6
:10586C00411122C42E848395E50006C6E1207D57A4
:10587C005E246319E5009397C7485EA4B2402244A6
:10588C00410182809397C72868C85EA4C5BF8395E1
:10589C00E5003DA0411122C42A842E85B2853686AE
:1058AC0023A8018806C6EFD0FFB7FD576316F50095
:1058BC0083A7018991C31CC0B2402244410182805C
:1058CC00411122C42A842E8523A8018806C6B5223C
:1058DC00FD576316F50083A7018991C31CC0B24024
:1058EC00224441018280411122C42A842E85B28532
:1058FC0023A8018806C6812AFD576316F50083A7E5
:10590C00018991C31CC0B2402244410182804111E3
:10591C0022C42A842E8523A8018806C61D2AFD5779
:10592C006316F50083A7018991C31CC0B2402244C1
:10593C0041018280411122C42A842E85B28536868B
:10594C0023A8018806C6212AFD576316F50083A7F4
:10595C00018991C31CC0B24022444101828093F55D
:10596C00F50F2A966314C500014582801C21E38E35
:10597C00B7FE0505C5BF1385C1876FF02F9713853B
:10598C00C1876FF0CF96011126CA06CE22CC4AC829
:10599C004EC652C4B28499E96244F240D2444249A0
:1059AC00B249224AB28505616FF04FB309EEEFF0B0
:1059BC002FA30144F24022856244D2444249B249A9
:1059CC00224A056182802A8A2E84B1282A8963663C
:1059DC00950093571500E3EF97FCA6855285EFF0E1
:1059EC00EFAFAA8979D5A28533D6240BEFA09F9A65
:1059FC00A2855285EFF0CF9E4E846DBF411122C41B
:105A0C002A842E85B285368623A8018806C6B1283D
:105A1C00FD576316F50083A7018991C31CC0B240E2
:105A2C0022444101828083A7C5FF1385C7FF63D53C
:105A3C000700AA959C413E9582809307800523A878
:105A4C00F1887D5582809307800523A8F1887D55C8
:105A5C0082809307800523A8F188014582809307F3
:105A6C00800523A8F1887D5582809307800523A8A3
:105A7C00F1887D558280000053797374656D436C99
:105A8C006B3A25640D0A0000563346205379737423
:105A9C00656D436F7265436C6B3A25640D0A0000AB
:105AAC00081910201E19102068191020D419102064
:105ABC0084191020D4191020D4191020D4191020B6
:105ACC00A0191020D4191020D4191020D41910208A
