:080000006F40005800000000F1
:10000800B71402409305E0408CC483A20400370370
:100018000001B3E2620023A0540083A30400370E5A
:100028000002B3F3C301E38A03FE83AE8400370FF3
:100038000080B3EEEE0123A4D401894F23A2F4017A
:1000480003A94400A14933793901E30B09FE1305DB
:10005800C00E9705FFFF9385E5FA1746FFFF1306C5
:10006800A64363FAC5008322050023A055001105A5
:100078009105E3EAC5FE1745EFDF1305E5589745F7
:10008800FFFF938565411746FFFF1306E64063FAB5
:10009800C5008322050023A0550011059105E3EA58
:1000A800C5FE1745EFDF1305255697050000938514
:1000B80065051386018563FAC5008322050023A020
:1000C800550011059105E3EAC5FE13850185938561
:1000D800819C6377B500232005001105E36DB5FE0B
:0400E8008280000012
:1000EC000000000000000000C4021020C602102016
:1000FC00000000006E07102000000000000000004F
:10010C006E0710206E071020000000000000000099
:10011C006E0710206E0710206E07102000000000E4
:10012C006E0710206E0710206E0710206E0710202F
:10013C0000000000000000000000000000000000B3
:10014C0000000000000000000000000000000000A3
:10015C006E071020000000000000000000000000EE
:10016C006E0710206E0710206E0710206E071020EF
:10017C006E0710206E0710206E0710206E071020DF
:10018C006E0710206E0710206E0710206E071020CF
:10019C006E0710206E0710206E0710206E071020BF
:1001AC006E0710206E0710206E0710206E071020AF
:1001BC006E0710206E0710206E0710206E0710209F
:1001CC006E0710206E0710206E0710206E0710208F
:1001DC006E0710206E0710206E0710206E0710207F
:1001EC006E0710206E0710206E0710206E0710206F
:1001FC006E0710206E0710206E0710206E0710205F
:10020C006E0710206E0710206E0710206E0710204E
:10021C006E0710206E0710206E0710206E0710203E
:10022C006E0710206E0710206E0710206E0710202E
:10023C00D6021020642010206E0710206E071020AC
:10024C006E0710206E0710206E0710206E0710200E
:10025C006E0710206E0710206E0710206E071020FE
:10026C006E0710206E0710206E0710206E071020EE
:10027C006E0710206E0710206E0710206E071020DE
:10028C006E0710206E0710206E0710206E071020CE
:10029C006E0710206E0710206E0710206E071020BE
:1002AC006E0710206E0710206E0710206E071020AE
:1002BC006E0710206E0710206E0710206E0710209E
:1002CC006E0710206E0710206E0710206E0710208E
:1002DC006E0710206E071020000000006E07102023
:1002EC006E07102000000000000000006E071020B8
:1002FC0000000000000000006E0710206E071020A8
:10030C006E0710206E0710206E0710206E0710204D
:10031C006E0710206E0710206E0710206E0710203D
:10032C006E0710206E0710206E0710206E0710202D
:10033C006E071020397101436EC619A039714153F3
:10034C006AC866CA62CC5ECE19A0397101535AD004
:10035C0056D252D44ED64AD826DA22DC06DE3301E7
:10036C006140828241114AC026C222C406C68282E2
:10037C00B24D4101024D924C224CB24B4101024B09
:10038C00924A224AB2494101024992442244B24063
:10039C00410182802A8311C62300B3007D16050318
:1003AC0065FE828001A037E700E0B707EFBE9387B8
:1003BC0007083CC701A0EF10503173002030EFF25A
:1003CC007FFAE522BD24EF105063716513050520FB
:1003DC00EF10506C1305803EEF10306883A58180C0
:1003EC003745102013058503EF207029B70711201E
:1003FC0083A5471E3745102013058504EF203028B0
:10040C0013054006EF107065B7E700E0416723A2C3
:10041C00E77237F400E0832704D193E7070223281F
:10042C00F4D085450145EF00D024832704D193E710
:10043C0007012328F4D0854537050010EF0010681C
:10044C0089450145EF00B0350145EF00F0243745F3
:10045C00102013050506EF207036EF10507201A026
:10046C00411102C602C402C2371702401C439397C3
:10047C0007291CC3B71702409C4337070200F98FAA
:10048C003EC4B24785073EC6A24791E73247B7073D
:10049C000001E311F7FEB71702409C433707020037
:1004AC00F98F89CB85473EC4224785476306F70001
:1004BC004101828002C4CDBFB71702409847019B0F
:1004CC0098C798471367070198C79847F1769386A2
:1004DC00F60F758F98C7984798C798471377F7F119
:1004EC0098C798471367070298C7B71702409C47ED
:1004FC0093F7070E13070002E399E7FE3717024044
:10050C001C43939787291CC3B71702409C4337079A
:10051C000002F98FF5DBB717024098471317F7491C
:10052C0098C79847B7060090FD16758F98C7B717F0
:10053C0002409C4737070070F98FF5FBB717024054
:10054C00D8431377F7F0D8C3D843D8C3D843B706EA
:10055C00FDFFFD16758FD8C3D84313171729D8C3C1
:10056C00B726024098423AC21247719B3AC21247D0
:10057C00136717003AC2124798C298471317F72906
:10058C0098C7D843719BD8C3D84313672700D8C3E7
:10059C00B7170240DC43B18B2147E39BE7FE09BF51
:1005AC00EFF25FDCFD236D3DC5B3B71702409843F6
:1005BC001367170098C3D843B7065C30758FD8C340
:1005CC00B7170240DC43B18BE5FFB7170240D843A5
:1005DC0013176749D8C398471317F74998C7984317
:1005EC00B706A76AFD16758F98C39843131727494A
:1005FC0098C39847B7C6FF0F758F98C7984713676E
:10060C00470098C73707FF00D8C7985BB706600C40
:10061C00758F98DBD85BB7E6F0FF93860608758F6D
:10062C00D8DBD85BB706080093860602558FD8DB5B
:10063C0085BF371702405C43B18B1847B706007073
:10064C00758F9146638CD706A1466380D70881CB02
:10065C00B7877D019387078423A4F18039A0B787DE
:10066C007D019387078423A4F180B7160240D842FA
:10067C0011833D8BB707112093870711BA979C23E1
:10068C0003A781803357F700DC42C1838D8BB706FB
:10069C0011209386061EB6979C23B357F70023A808
:1006AC00F184B7F600E083A606D14166F18E639B18
:1006BC000618370711202322F71E8280B7877D0189
:1006CC009387078423A4F1804DB7B70700506309C3
:1006DC00F71263F1E702B7070060630AF712B70776
:1006EC000070631AF714B76773079387079423A4F2
:1006FC00F180A5BF01CFB7070040631EF712B747C3
:10070C009C1C9387078023A4F18085B7B717024000
:10071C009447FD8A98471377070E9C47A18393F75C
:10072C00F70385071306000A6309C7021306000EB8
:10073C006304C706130600086304C7081306000CFD
:10074C006307C70813060002630AC70837877D01D1
:10075C0013070784B357F70239A03767CD1D13076A
:10076C000750B357F7021147638CE6001386A6FFB8
:10077C001947636CC706130750053357C74835C76D
:10078C00370711201307071236971823B307F70200
:10079C00858323A4F180D1BD37170240505B418281
:1007AC0037071120130707103297182337867D015E
:1007BC00130606843307C7020583B357F70265B7E0
:1007CC0037479C1C13070780B357F70269BF37677D
:1007DC00730713070794B357F70271B737877D0177
:1007EC0013070784B357F702BDBF37071120130750
:1007FC00071236971823B307F70223A4F180B5B577
:10080C00B767CD1D9387075023A4F180B9BDB717E7
:10081C000240D85B4183B707112093870710BA9722
:10082C009C2337877D0113070784B387E7028583F1
:10083C0023A4F1801DBDB7877D019387078423A472
:10084C00F18025B5B707112023A2E71E828001A0F5
:10085C00011106CE22CC0010B70700089C432326BA
:10086C00F4FE1520AA872326F4FE8327C4FE93F7F3
:10087C0007F02326F4FE8327C4FE99833E85F240BD
:10088C00624405618280B7270240C84F098182808B
:10089C009C4513F8F700C18B8DCF13681800504D91
:1008AC00014711A00507BD4763E4E702B317E02831
:1008BC009621FD8EE398D7FE931617008D47B397BC
:1008CC00D7003376F640DC41B397D7005D8ED9BFA5
:1008DC0050CD9C21A9C71041814719A054C9850747
:1008EC001D47636DF702B316F0289A21758FE398B4
:1008FC00E6FE13972700BD48B398E80033761641FF
:10090C003317E800598E984593088002E30817FDC9
:10091C0093088004E31517FD14C9D1B710C19A21AF
:10092C009307F00F63FCE7045041014721A05CC919
:10093C002DA805079D4763E2E70493078700B317CB
:10094C00F0289621FD8EE396D7FE93162700BD481E
:10095C00B398D80033761641B316D800558E83A8B9
:10096C00850093068002E384D8FC83A88500930657
:10097C008004E390D8FC1CC96DBF50C182805C45DB
:10098C00FD8D99C105458280014582800CC982800C
:10099C004CC982809D4763F7B700938785FF93F717
:1009AC00F70F11A0AE873717014013070780630FAD
:1009BC00E50237170140130707C0630CE50637172C
:1009CC000140630BE50A3717014013070740630822
:1009DC00E50E37270140130707806305E51237271B
:1009EC000140130707C06302E51682801D4763723E
:1009FC00B702B70601408C468A073D473317F7000C
:100A0C0033F7E54098C69846B317F600D98F9CC6C5
:100A1C008280B7060140CC428A073D473317F70066
:100A2C0033F7E540D8C2D842B317F600D98FDCC2F1
:100A3C0082801D476372B702B70601408C4A8A0751
:100A4C003D473317F70033F7E54098CA984AB31778
:100A5C00F600D98F9CCA8280B7060140CC468A0723
:100A6C003D473317F70033F7E540D8C6D846B317E0
:100A7C00F600D98FDCC682801D476372B702B706B9
:100A8C0001408C4E8A073D473317F70033F7E5409A
:100A9C0098CE984EB317F600D98F9CCE8280B706AD
:100AAC000140CC4A8A073D473317F70033F7E5403E
:100ABC00D8CAD84AB317F600D98FDCCA82801D4732
:100ACC006372B702B70601408C528A073D47331751
:100ADC00F70033F7E54098D29852B317F600D98F48
:100AEC009CD28280B7060140CC4E8A073D47331713
:100AFC00F70033F7E540D8CED84EB317F600D98FB0
:100B0C00DCCE82801D476372B702B70601408C565B
:100B1C008A073D473317F70033F7E54098D69856C8
:100B2C00B317F600D98F9CD68280B7060140CC5201
:100B3C008A073D473317F70033F7E540D8D2D85230
:100B4C00B317F600D98FDCD282801D476372B702CF
:100B5C00B70601408C5A8A073D473317F70033F725
:100B6C00E54098DA985AB317F600D98F9CDA828050
:100B7C00B7060140CC568A073D473317F70033F7C9
:100B8C00E540D8D6D8563316F600B367C700DCD686
:100B9C00A9BDEFF22FFD411102C202C402C6854568
:100BAC001305C00FF52DB7A70240984B137707F02C
:100BBC003AC002471367B7013AC0024798CBD84BEB
:100BCC00137707FC3AC002471367E7003AC00247A5
:100BDC00D8CBBD39B7F7FF1F83A7477093F7070F23
:100BEC00DDC7B7F7FF1F83A7477093F7F7F03707F9
:100BFC0071411307D750638DE71237077141130703
:100C0C00D7506367F70A370750411307D750638DE6
:100C1C00E718370760411307D7506394E718930719
:100C2C0000707C821304800222C64C00B714014071
:100C3C0013850480B139930740C07C8222C64C00D6
:100C4C00138504C0B131F9777C8222C64C0037156C
:100C5C0001403D399307309F7C8222C64C0013859E
:100C6C0004403D31E17793C7F7DF7C8222C64C000C
:100C7C00B724014013850480213995679387F78346
:100C8C007C8222C64C00138504C0193119AA8545F3
:100C9C00370500802525B787004003A74742136717
:100CAC00170023A2E742814537050080012D15BFAF
:100CBC00370772411307D7506395E70E8964938702
:100CCC00F4FD7C821304800222C64C0037190140CB
:100CDC0013050980753EE1779387C70F7C8222C686
:100CEC004C00130509C06D36F977938707037C8296
:100CFC0022C64C0037150140613E930700307C82C0
:100D0C0022C64C00130509406136F114648222C6D8
:100D1C004C00B7240140138504809D3E9167938756
:100D2C0007FC7C8222C64C00138504C0953695A81E
:100D3C009307E01C7C821304800222C64C00B7147B
:100D4C00014013850480A936E1779387470E7C8296
:100D5C0022C64C00138504C0253EF9779387070300
:100D6C007C8222C64C00371501401D36930700309B
:100D7C007C8222C64C0013850440193E93074038F0
:100D8C007C8222C64C00B7240140138504800936AE
:100D9C009167938707FC7C8222C64C00138504C0A4
:100DAC00C53C41016FF04FDE930700107C821304A9
:100DBC00800222C64C00B714014013850480C93C44
:100DCC00930740027C8222C64C00138504C0C934B0
:100DDC00F977938707027C8222C64C0037150140B5
:100DEC00453CDD577C8222C64C00138504404D34B3
:100DFC00930770787C8222C64C00B724014013857F
:100E0C0004807934E17793C777FC7C8222C64C004E
:100E1C00138504C0B53C71B713050504B7C700E0D2
:100E2C003345F5201841B7F700E083A707D193D7D6
:100E3C000749A2079397F7296304F70001458280BD
:100E4C000545828093F5F50FB7F700E083A707D12E
:100E5C0093D70749A207DD8DB7C700E03345F520CE
:100E6C000CC18280B7C700E03737A55A23A4E7200E
:100E7C00828091C937C700E083270730B397A72832
:100E8C002320F730828037C700E083270730B397E1
:100E9C00A7482320F73082803315A028B7C700E07D
:100EAC0023A4A7308280B7D500E09C4118410E07DF
:100EBC009306F00FB396E600B3F6D7405C41B397B8
:100ECC00E70010451308270033160601D18F504553
:100EDC001308470033160601D18F10491308570029
:100EEC0033160601D18F504919073317E600D98FF5
:100EFC00D58F9CC18280232005002322050023244A
:100F0C0005002326050023280500232A05008280DE
:100F1C0037D700E01C4393E707081CC3828037D700
:100F2C0000E01C439397F7281CC38280B7D700E0DE
:100F3C00DC4B3365B5203315A0287D8D11C10545DB
:100F4C0082803365B5203315A028B7D700E088CF51
:100F5C0082803365B5203315A028B7D700E0C8CF01
:100F6C008280411102C6B7D700E0938707023EC6C4
:100F7C00B2473345F5202AC6B2478CC34101828063
:100F8C00411102C6B7D700E0938707023EC6B247AD
:100F9C003345F5202AC6B247884341018280377712
:100FAC0000401C43F99BC98F1CC337F700E0832713
:100FBC0007D193E747002328F7D085476388F504CA
:100FCC0083A701873707014083260740D58F23204D
:100FDC00F74023AA0184B7F700E07D5723A2E7C8A6
:100FEC0003A707D11367870023A8E7D0730050101D
:100FFC00B707014083A7474103A70187F98F99EFF2
:10100C0083A7018781CF73005010DDB7832707D1E9
:10101C00DD9B2328F7D07300501035A0B707014093
:10102C0083A6474123AAD18403A7018703A60740BF
:10103C003377E64023A0E74003A7018783A6474107
:10104C00558F23AAE74037F700E0832707D1ED9BA4
:10105C002328F7D08280371702405C43B18B1847A6
:10106C00B7060070758F91466380D70AA1466383DB
:10107C00D70A99C7B7877D01938707841CC131A014
:10108C00B7877D01938707841CC1B7160240D842ED
:10109C0011833D8BB707112093870715BA979C23B3
:1010AC0018413357F700DC42C1838D8B93868181C5
:1010BC00B6979C23B357F7005CC1B7F600E083A644
:1010CC0006D14166F18E639D061A1CC53717024086
:1010DC0058436349071A371602405442AD829D8A21
:1010EC001387018136971823B3D7E7005CC55842A4
:1010FC0039830D8B9386C180369718231377F70F9E
:10110C00B3D7E7025CC58280B7877D0193870784DC
:10111C001CC1A5BFB70700506305F71263F0E702C7
:10112C00B70700606305F712B70700706314F71474
:10113C00B7677307938707941CC181BF19CBB70797
:10114C0000406319F712B7479C1C938707801CC19A
:10115C002DBFB71702409447FD8A98471377070EA7
:10116C009C47A18393F7F70385071306000A6309CD
:10117C00C7021306000E6303C706130600086303B9
:10118C00C7081306000C6306C708130600026309A0
:10119C00C70837877D0113070784B357F70239A0B7
:1011AC003767CD1D13070750B357F7021147638CF0
:1011BC00E6001386A6FF1947636BC7061307500595
:1011CC003357C7482DC73707112013070716369713
:1011DC001823B307F70285831CC145BD371702409E
:1011EC00505B4182370711201307071432971823DD
:1011FC0037867D01130606843307C7020583B35770
:10120C00F7026DB737479C1C13070780B357F702DB
:10121C0071BF3767730713070794B357F70279B792
:10122C0037877D0113070784B357F70241B7370798
:10123C0011201307071636971823B307F7021CC1A2
:10124C00A9B5B767CD1D938707501CC13DBDB71716
:10125C000240D85B4183B707112093870714BA97D4
:10126C009C2337877D0113070784B387E7028583A7
:10127C001CC121BDB7877D01938707841CC131B583
:10128C0018C5A9B5B7170240DC43AD83FD8B950794
:10129C0037479C1C13070780B357F7025CC5828045
:1012AC0099C5371702405C4FC98F5CCF8280B71746
:1012BC000240D84F3375A740C8CF828099C53717E5
:1012CC0002401C53C98F1CD38280B717024098531D
:1012DC003375A74088D38280B7370140938707C006
:1012EC00630CF502B7370140938707406306F5029C
:1012FC00B70700406302F50293870740630EF500C1
:10130C00B7170040938707806308F500B7170040B4
:10131C00938707C0631EF5001E21B3C7070893F718
:10132C00F7F8BA21D98F93F7F7CFFA21D98F1EA1ED
:10133C00DE215EB59E211EB5B7370140938707C0ED
:10134C006308F500B7370140938707406314F50035
:10135C009C251EB985475EA982801E31B3C707083C
:10136C00F99BB3C707081EB11631B3C60608522144
:10137C00334606081A2D334707081377C7F89E2102
:10138C005D8FF59A9E25DD8EBE21D58FB736014037
:10139C00938606C06308D500B73601409386064095
:1013AC00631ED500DD9BB625D58FED9BD621D58F41
:1013BC001376F6CFD625558EF625558E52A11AAD3D
:1013CC00FA215AB91EB182801E31B3C70708BD9BE2
:1013DC00B3C707081EB11631B3C606085A213347E6
:1013EC000708122DE5779387F7CF7D8E9E21A207F4
:1013FC00B3C707085D8E93F6F6FD9E259207B3C71B
:10140C000708DD8EBE219207B3C70708D58FB73604
:10141C000140938606C06308D500B7360140938619
:10142C000640631ED50293F7F7F7B6259206B3C6AE
:10143C000608D58F93F7F7FBD6219206B3C606089C
:10144C00D58FFD769386F63F758FD6258A06B3C663
:10145C000608D98EFA250A0733470708558F5AA173
:10146C0012ADFA211ABD1EB182801E31B3C7070816
:10147C0093F7F7EFB3C707081EB1123133460608CE
:10148C005A2133470708562DB3C6060893F6C6F8FB
:10149C009E21DD8E1376F6DF9E25A207B3C70708C3
:1014AC005D8EBE21A207B3C70708D18F3736014026
:1014BC00130606C06308C500373601401306064004
:1014CC00631FC5027D761306F67FF18FB2252206C7
:1014DC00334606085D8E1376F6BFDE21A207B3C72E
:1014EC000708D18F75767D16718FD225120633467B
:1014FC000608598EFA25120733470708518F5AA14F
:10150C0056ADFA215ABD1EB182801E317D777D17F2
:10151C00F98F1EB11A315E21B3C70708522DE5763B
:10152C009386F6CF758E9621A206B3C60608D18E89
:10153C0079767D16718F9225320633460608598EC0
:10154C00BA21320733470708518F3736014013064B
:10155C0006C06308C5003736014013060640631AFF
:10156C00C50071767D167D8EDE259A07B3C70708F8
:10157C00D18F5EA156ADFE212310F5041AB18280E5
:10158C0091C51E2193E717001EA182801E21B3C7AF
:10159C000708F99BB3C707081EA1828091C983571E
:1015AC0045046177D98FB3C707082312F5048280ED
:1015BC008357450421677D17F98F2312F504828028
:1015CC0091C51E2193E707081EA182801E21B3C777
:1015DC00070893F7F7F7B3C707081EA182801E2DE3
:1015EC00B3C70708DD9BCD8F1EAD82801E2D7D7786
:1015FC001307F77FF98FA205B3C50508DD8D0EAD76
:10160C0082805E2DB3C70708DD9BCD8F5EAD8280D7
:10161C005E2D7D771307F77FF98FA205B3C50508FB
:10162C00DD8D4EAD82804EB982800EBD82804EBD66
:10163C0082802310B5048280EFE2DFD241112A842C
:10164C00AE849A25FD77F98FBD666389D7081A2871
:10165C00FE20F576FD16758FD98F1EA85A24D6203C
:10166C009224BE24D18ED58F8D669386369F758F2E
:10167C00D98F5EA45E28B3C70708DA2493F7F7CF97
:10168C00D98F5EA80A85C13A92476545B335F502F4
:10169C0090400A0681463305F502EF10C00113078E
:1016AC004006B357E50293964700370600107D16A7
:1016BC00F18FB387E702B307F540920793872703AF
:1016CC0033D7E7021306F0636374F60293870601BF
:1016DC00B3C707081EA441016FE01FCB5E2DB3C733
:1016EC000708CD9B318B5D8F5AAD2394050085B7D0
:1016FC003D8BB367D700E9BF91C55E259397D7287B
:10170C005EA582805E2579777D17F98F5EA5828034
:10171C002A8793F7F50F95838546B315B028638E0A
:10172C00D70089466382D7028D466382D7029146E1
:10173C006397D7001307C50119A01307C50019CA71
:10174C001C43CD8F1CC3828013070501CDBF13072B
:10175C004501F5B71C43B3F5B7400CC3828093F534
:10176C00F51F4EA182804A211375F51F82801E2120
:10177C00ED8F99C3054582800145828093F7F50F63
:10178C00958385463317B028638ED70089466386C8
:10179C00D7028D466386D70291466397D7005E2D9C
:1017AC007D8F19A05E257D8FA181B315B0281E21D8
:1017BC00ED8F11CB99EB014582801E297D8FEDB702
:1017CC005E297D8FD5B70145828005458280EFE289
:1017DC007FB94111930750055C849307F0FADC84C0
:1017EC004885CC8585476389F50089476386F50272
:1017FC00094541016FE05FB91822588693074500EF
:10180C0093F7F70FAE9793F7F70F3E97D886994556
:10181C00280055230145F1BF1C225C861832D8865E
:10182C0011051375F50FAA9513F5F50FAA9793F7F4
:10183C00F70F3E9758879D452800B52B014555BF9E
:10184C00EFE2DFAF41112A8AAE8B328BB6890144AD
:10185C00814A014909A213054006EF00701C0504DA
:10186C0033440408A54763F8870EFD192684E5A0C8
:10187C009C87130750056394E70C2300FA002300A0
:10188C00FA0205496DA863170B009C8713075005D6
:10189C006387E7008547630DFB0001494DA0A3005A
:1018AC00FA0003470A02BA972300FA02094941A831
:1018BC009C871307F00A6384E700014949A0A30041
:1018CC00FA0003470A02BA972300FA02094985A8CD
:1018DC009C876384770101499DA02301FA0003478B
:1018EC000A02BA972300FA02114991A89C87714702
:1018FC006367F708A301FA0003470A023E97230027
:10190C00EA02C1E3414925A89C8733075A015CA32D
:10191C0003470A02BA972300FA02850A93FAFA0FD0
:10192C0083473A00639D5701814A414909A80347FF
:10193C000A029C87630DF704014911A001491305A4
:10194C004006EF00F00D050433440408A54763F48A
:10195C008700FD1901446388090285451305F100D0
:10196C00C92EAA84E30905EEC147E3E927FDB74771
:10197C00102093870707B347F9209C4382870149BE
:10198C007DBF21496DBF0D4541016FE0BF9E0145F3
:10199C00E5BFEFE23F9D7971AA842E84328902C2A1
:1019AC0002C402C602C802CA02CC02CE02D0230272
:1019BC000102930750052304F1029307F0FAA304E4
:1019CC00F102936705082305F1020547A305E1021F
:1019DC00230601029507A306F10299452810E12E72
:1019EC00CA860546A6854800A13DAA8711CD0145AA
:1019FC0039A83307F400938607038A9683C686FDBD
:101A0C0014A3850793F7F70F8883E3E4A7FE4561DA
:101A1C006FE09F97EFE21F9541112A84E12E130589
:101A2C004006EF0090031306800C9385D1810D4581
:101A3C008D3735E1374510201305450BEF10005855
:101A4C001306800C9385C1811145A13725E53745D7
:101A5C00102013054511EF1060569547DC871306CF
:101A6C00F10085452145A533A947DC871306F10014
:101A7C0085452945A93B13052003EF00007E1D2653
:101A8C00A2853745102013058517EF10403F0145FF
:101A9C0041016FE07F8F83C7D1818D8B1387418488
:101AAC00B3A7E7208E23374510201305450FEF1001
:101ABC00003D79B783C7C1818D8B13870184BA9799
:101ACC008C233745102013054515EF10403B71B79B
:101ADC00EFE2BF87797102C602C802CA02CC02CEFD
:101AEC0002D002D202D42306010251C52A84AE864A
:101AFC00014685456800A933AA8441E18347110159
:101B0C00A20793975760034501015D8DEF10A0204C
:101B1C0083A50183EF00D07383A54183EF0050733D
:101B2C0008C083473101A2079397576003452101F1
:101B3C005D8DEF10401E83A50183EF00707183A5AE
:101B4C004183EF00F07048C083475101A20793977F
:101B5C005760034541015D8DEF10E01B83A50183A8
:101B6C00EF00106F83A54183EF00906E08C42685AB
:101B7C0045616FE0DF808544DDBF8544CDBFEFE27A
:101B8C00CFFC79712A84AE84B28602C602C802CA1E
:101B9C0002CC02CE02D002D202D42306010263068A
:101BAC00051401468D45680061392A8963130514B3
:101BBC00C9CC034B1101220B131B5B608347010142
:101BCC00336BFB0023906401834A3101A20A939A80
:101BDC005A6083472101B3EAFA00239154018349E7
:101BEC005101A2099399596083474101B3E9F90066
:101BFC002392340183C7C1818D8B13870184BA97DB
:101C0C008823EF10401D2A8A5A85EF10C01083A537
:101C1C000183EF00F063D285EF00906388C4568592
:101C2C00EF10600F83A50183EF009062D285EF0067
:101C3C003062C8C44E85EF10000E83A50183EF00FF
:101C4C003061D285EF00D06088C841CC834A7101E5
:101C5C00A20A939A5A6083476101B3EAFA002310EF
:101C6C005401034A9101220A131A5A6083478101D5
:101C7C00336AFA00231144018344B101A204939402
:101C8C0054608347A101DD8C46A083C7D1818D8B25
:101C9C0013874184B3A7E7208A23EF10C013AA89C6
:101CAC005685EF10400783A50183EF00705ACE854F
:101CBC00EF00105A08C45285EF10E00583A501838C
:101CCC00EF001059CE85EF00B05848C42685EF10B0
:101CDC00800483A50183EF00B057CE85EF005057E9
:101CEC0008C84A8545616FE08FE9E39C05EA054920
:101CFC00CDBF0549FDB781460DA8B70711209387C5
:101D0C00C72603D747103306D50003480600338691
:101D1C00E70023000601050703D607103367C70247
:101D2C002392E7108506B3C60608E3E8B6FC014526
:101D3C0082802A88370711201307C726835747103C
:101D4C008356271063EAD700958F33C50708636362
:101D5C00B5002E858146A1A0370711201307C72691
:101D6C0003570710158F33470708BA9733C5070871
:101D7C00F9BFB70711209387C72603D7271033065F
:101D8C00D800B385E7008C210CA2050703D60710F9
:101D9C003367C7022391E7108506B3C60608E3EA4A
:101DAC00A6FC8280B70711209387C72603D727107C
:101DBC002392E7108280EFE2EFDA2A89AE840144A5
:101DCC0035A0930500083755004013050580EFF04A
:101DDC001F9A65D9B30789008C233755004013052A
:101DEC000580EFF0DF9705041374F40FE36B94FC9C
:101DFC006FE08FD9EFE20FD70111AA8402CA02CC8F
:101E0C0002CE02C202C402C602C8854537050400D0
:101E1C00EFF0CFCA85452145EFF08FC81D46A94587
:101E2C0037140140130504C0EFE0DFB69307004000
:101E3C00FC828D473ECCE1473ECE4C08130504C0D6
:101E4C00EFE01FA51D46AD45130504C0EFE09FB4A0
:101E5C009317B028FC8291473ECE4C08130504C062
:101E6C00EFE01FA326C22314010023150100231643
:101E7C00010023180100B1477C874C003754004007
:101E8C0013050480EFF04FFB854513050480EFF03C
:101E9C00BF8605469305505213050480EFF05F870B
:101EAC00B7E700E03707100023A4E710B7071120AD
:101EBC009387C726130700102390E7102391071070
:101ECC002392071005616FE02FCCEFE2AFC94111EF
:101EDC00A1453755004013050580EFF05F8901C916
:101EEC00B75700401387078083D707805E2393057D
:101EFC0000023755004013050580EFF05F8701E5C0
:101F0C0041016FE06FC83755004013050580EFF0B5
:101F1C009F85C88785451305F100F13BD5B7EFE2E6
:101F2C006FC4797102D202D402D602CC02CE231035
:101F3C00010202C402C602C802CA85458564138523
:101F4C005480EFF0EFB50546A14537140140130559
:101F5C000480EFE03FA40546A54513050480EFE09F
:101F6C007FA30546A94513050480EFE0BFA20546F3
:101F7C00AD4513050480EFE0FFA1938404F0231218
:101F8C009102E1473ED68D473ED44C101305048098
:101F9C00EFE01F9095679387F7E1FC869307300677
:101FAC00FC84231F0100231D01002C083734014041
:101FBC00130504C0EFF04FB2930700067C848547ED
:101FCC007C85231801009307803E7C872C00130529
:101FDC0004C0EFF08FB82C00130504C0EFF0CFBE97
:101FEC002C00130504C0EFF04FC82C00130504C0DF
:101FFC00EFF0AFD18545130504C0EFF02FDA814522
:10200C00130504C0EFF0AFDD8145130504C0EFF0FC
:10201C00EFDD8145130504C0EFF0AFDE81451305FC
:10202C0004C0EFF0EFDE8545130504C0EFF04FD987
:10203C008545130504C0EFF0AFD445616FE0CFB414
:10204C00EFE2AFB0AE893289B684938701828AA35E
:10205C00AEA3D2A3F6A3AA8537340140130504C05E
:10206C00EFF06FDCCE85130504C0EFF00FDCCA85F2
:10207C00130504C0EFF0AFDBA685130504C0EFF029
:10208C004FDB6FE0CFAFEFE2EFAD011102CA02CC34
:10209C0002CE02C202C402C602C88545370508003A
:1020AC00EFF0CFA185454545EFF08F9F1146AD452B
:1020BC0037150140EFE01F8E9317B028FC821144B6
:1020CC0022CE4C0837150140EFE08FFCF167938767
:1020DC0007203EC223140100231501002316010022
:1020EC006087231801004C0037540040130504C0CE
:1020FC00EFF08FD4054693055052130504C0EFF052
:10210C002FE1B7E700E03707200023A4E71085454F
:10211C00130504C0EFF04FDE05616FE0EFA6938767
:10212C004186BC3389CF03D741861AA19387418658
:10213C00B82338A1054738B1A38107008280A301D9
:10214C0005008280EFE20FA29305505237550040F4
:10215C00130505C0EFF08FE285476304F5006FE0CF
:10216C00AFA237550040130505C0EFF0CFDF137554
:10217C00F50F83C7818589EF9307B00BE311F5FE4B
:10218C00238EA1848547A38CF184238CF184C1BF59
:10219C0083C69185138716001377F70FA38CE18400
:1021AC009387C185B69788A39547E3FAE7FA238C02
:1021BC0001848147814619A81387C1853E9718234E
:1021CC00BA9693F6F60F850793F7F70F1147E37559
:1021DC00F7FE9387C185DC33E393D7F81387C1856A
:1021EC0034233C33A207DD8E2392D1865823938768
:1021FC004186B8A30547B8B39DB783A70185374778
:10220C000F0013070724B3D7E7022396F186B3C751
:10221C0007081307803EB387E70223A4F186828068
:10222C00B7F700E0D843799BD8C303D7C1863307EF
:10223C00A70223A4070098CB114798C398431367B0
:10224C00170098C3B7F700E0DC43858BE5DF37F761
:10225C0000E01C43F99B1CC38280B7F700E0D84315
:10226C00799BD8C303A781863307A70223A4070051
:10227C0098CB114798C398431367170098C3B7F7C7
:10228C0000E0DC43858BE5DF37F700E01C43F99B6E
:10229C001CC38280EFE20F8D01112A8402CA02CC8A
:1022AC0002CE02C202C402C602C8854511652505CC
:1022BC00EFE01FFF1D469945B7140140138504C07C
:1022CC00EFE04FED93070004FC828D473ECCE147D5
:1022DC003ECE4C08138504C0EFE08FDB22C22314E2
:1022EC000100231501002316010023180100A1474A
:1022FC007C874C003744014013050480EFF0CFB3CA
:10230C00854513050480EFF02FBF05616FE0CF8783
:10231C00EFE2AF832E84B289814405A893050004B3
:10232C003745014013050580EFF06FC465D91309DB
:10233C00140083050400B3C5050837450140130597
:10234C000580EFF0CFC185044A84E3C934FD4E8586
:10235C006FE0EF82AA8703A58182AA971387819CDD
:10236C0063EBE70037071820130707806367F70054
:10237C0023A4F18282807D5582807D558280EFD2AC
:10238C007FFE5D71374510201305051AEF001043D1
:10239C0085452145EFE0DFF002C002C202C485474B
:1023AC007C80C1473EC48D473EC28A8537150140AB
:1023BC00130505C0EFE0CFCD716513050520EFF0D7
:1023CC006FE515C9374510201305851BEF00103F2D
:1023DC00854537140140130504C0EFE06FDB13058E
:1023EC004006A53D8545130504C0EFE02FDA130523
:1023FC004006A535F1BF2A84374510201305C520AA
:10240C00EF00D03BEFF0BFB1374510201305C522CC
:10241C00EF00D03A930640421306404293054042E7
:10242C0013054042EFF0DFC1D520B13937451020FC
:10243C0013054526EF009038814435A8854537159E
:10244C000140130505C0EFE06FD4A9A09504A6C602
:10245C000C102285392205049357F441F9833E94DC
:10246C000D881D8C1374F40F0808ED2AA8809307AF
:10247C00703E63E7A708854537150140130505C075
:10248C00EFE0EFCF45DD854537150140130505C05D
:10249C00EFE00FD0D1451385C19BEFF06FE309E955
:1024AC009387C19B98433AD0D8433AD29C473ED4A9
:1024BC005146938541991385819AEFF04FEC0DE1CC
:1024CC009387819A98473AD6D8473AD89C4B3EDAAC
:1024DC009387419998473ADCD8473ADE9C4BBEC06B
:1024EC006800EFF0DFC39C87B5D32886EF00B002FD
:1024FC0083A5C183B12BAAC21C872304F104B9B7ED
:10250C00B483B082AC81EFF0BFB3B5B7EFD29FE527
:10251C000111EFE03F952800EFE0FF9D02C402C6D9
:10252C00054422C802CA02CC02CE2800EFE0BF97B5
:10253C00EFE01F9E2800EFE01F9C22C422C602C8B9
:10254C0002CA02CC02CE2800EFE0FF95EFE03F9DDF
:10255C003745102013058528EF00502605616FD0F4
:10256C00BFE2EFD23FE02A84AE840145EFE0DF8A80
:10257C008547631FF50A8D47630EF40A63E08704F1
:10258C0085476308F4068947631CF408CC4401456D
:10259C00EFE03F9D8C480545EFE0BF9CCC480945DA
:1025AC00EFE03F9CDC54370700017D17F98F931542
:1025BC008401DD8D0D45EFE0DF9A9DA091476311FD
:1025CC00F406CC500145EFE0DF9983C58402054544
:1025DC00EFE03F9981450945EFE0BF98CC54B70730
:1025EC000001FD17FD8D6204C18D0D45EFE07F9755
:1025FC0005A88C400145EFE0DF96CC400545EFE0A7
:10260C005F968C440945EFE0DF95DC5437070001F9
:10261C007D17F98F93158401DD8D0D45EFE07F94C7
:10262C0081450145EFE0FF9185450145EFE09F8134
:10263C006FD09FD58C4C0145EFE0BF92CC4C05453B
:10264C00EFE03F928C500945EFE0BF91DC54370727
:10265C0000017D17F98F93158401DD8D0D45EFE099
:10266C005F907DBFEFD21FD02A8481450545EFE0F6
:10267C00FF8B85476304F5006FD01FD10145EFE058
:10268C003F902A890545EFE0BF8FAA840945EFE00A
:10269C003F8F23102401135909012311240146A053
:1026AC00C18066A008A4935785005CC4814505458C
:1026BC00EFE03F8AD1B73288AA882E87CDEA63FF34
:1026CC00C50EC167636AF618B7070001B337F60089
:1026DC00B307F040E19BE1073353F6009726000067
:1026EC00938646CA9A96942213030002B697B306B1
:1026FC00F340630BF3003397D500B357F500331851
:10270C00D6005D8FB318D500135608013355C70298
:10271C00B346080893D708013377C702B385A602DE
:10272C004207D98F63FAB700C2971307F5FF63E42A
:10273C00070163E8B7303A858D8F33D7C702B3C82A
:10274C000808B3F7C702B386E602C207B3E8F8007D
:10275C0063FBD800C2989307F7FF63E5080179176C
:10276C0063E3D8003E874205598D8145828063F52D
:10277C00D500814501458280C16763E5F618B7072E
:10278C000001B3B7F600B307F040E19BE10733D883
:10279C00F600172700001307E7BE4297182393088B
:1027AC0000023E973388E8406392E81863EDB62642
:1027BC003335C500134515008145828045C6C16778
:1027CC00637BF62413370610134717000E07B35616
:1027DC00E600972700009387E7BAB6979C239306E9
:1027EC000002BA97B38EF640639DF608B387C540D6
:1027FC008545935606013346060833D5D70213D7C1
:10280C000801B3F7D7023303C502C207D98F63FAA5
:10281C006700C2971307F5FF63E4070163E06722C3
:10282C003A85B387674033D7D702B3C80808B3F7E4
:10283C00D7023306C702C207B3E8F80063FBC8002F
:10284C00C2989307F7FF63E50801791763E3C800A3
:10285C003E874205598D82809337061093C7170027
:10286C008E079DBD8146972700009387A7B1B69729
:10287C009C23014793060002BA97B38EF640E38778
:10288C00F6F63318D60133D3F50093560801335EB0
:10289C00D302B395D501B357F500CD8F3346080855
:1028AC0013D70701B318D5013373D302B305C6038D
:1028BC00420333676700637BB70042971305FEFF43
:1028CC00636A07176378B716791E42970D8F3355D5
:1028DC00D702B3C707083377D7023303A6024207E0
:1028EC00D98F63FB6700C2971307F5FF63E00715E9
:1028FC0063FE67127915C29793150E01B387674073
:10290C00C98DE5BD93B7061093C717008E0733D852
:10291C00F600172700001307E7A642971823930821
:10292C0000023E973388E840E382E8E8335EE60035
:10293C00B3960601336EDE00B3D8E500935E0E014C
:10294C00B3D7D803B39505013357E5004D8F334307
:10295C000E089356070133160601B3F8D803B305D6
:10296C00F302C208B3E6160163FBB600F296938835
:10297C00F7FF63E3C60D63F1B60CF917F2968D8E73
:10298C00B3D5D60333470708B3F6D603B308B3025F
:10299C00C206558F637B170172979386F5FF6369A7
:1029AC00C70963771709F9157297C207C16ECD8FE6
:1029BC009386FEFFB3F5D70013D30701F18E418246
:1029CC00338ED50233071741B306D30293580E0149
:1029DC00B385C502B695C6953303C30263F3D50020
:1029EC00769393D605019A966363D7026305D70055
:1029FC003E8581458280C166FD1633F7D5004207BE
:102A0C00337EDE00331505017297E373E5FE138503
:102A1C00F7FF81458280B70700016377F602935672
:102A2C00060141477DB38145054582803A85E9B56C
:102A3C00B685A5BF2A8E59BDC68791B77915C297A1
:102A4C00CDB37915C297CDB993568601614751B371
:102A5C00935775011317950093F7F70F9358970039
:102A6C007D81638507101307F00F6387E7108E08CD
:102A7C00938617F80147814E9398A82993D775012F
:102A8C001398950093F7F70F13589800FD81F9C32D
:102A9C001306F00F6388C704938717F8338ED7009B
:102AAC000E08A947014693061E001318A82963C3F4
:102ABC00E7103343B50009451A8F6344E5047D17CD
:102ACC00854563EEE5126300A60C85477A83631B8C
:102ADC00F6048147014613957701518D9317F30145
:102AEC005D8D8280138EF60F630A080A3343B5009E
:102AFC001367370029461A8F938606106344E62025
:102B0C000D463317E0281375075319CD8947638C8D
:102B1C00FE068D476384FE027686854746887A8357
:102B2C00E309F6FA368EA9A29377072481EB137783
:102B3C00870871C72E8FC288B28EC9BF9307F00F5A
:102B4C0001433706400013957701518D9317F3011C
:102B5C005D8D828063140808368E13671700A947B1
:102B6C00054693061E00E3D6E7F4A9A0639B080470
:102B7C0011478146854E19B7639008042147930687
:102B8C00F00F894EE5BD9307F00F7A83014613953C
:102B9C007701518D9317F3015D8D828013672700A8
:102BAC00A9479386061039430946E3D4E7F0AD47AD
:102BBC00E302F3F82A8F99BF31479306F00F8D4E3D
:102BCC0075BD139708609307B7FFB398F800930788
:102BDC00A0F8B386E740814E01474DB593170860C6
:102BEC001386B7FFB387F640138EA7F8A94733189F
:102BFC00C80093061E000146E3DDE7EA65BFC16E1F
:102C0C009387FEFF93D5080113550801B3F8F8001C
:102C1C00B377F80033861703B387F5021357060111
:102C2C00B3081503BE984697B385A5026373F700E6
:102C3C00F69541657D15B377A700698EC207B297EB
:102C4C001396670013580701E9833337C0002E9899
:102C5C00D98F1A083368F800B7070008B377F80063
:102C6C0081CB935718001378180033E80701368E80
:102C7C009307FE07635EF0021377780019C713778A
:102C8C00F80091466303D700110837070008337723
:102C9C00E80009C793070E081318B8491307E00F8B
:102CAC006349F70413166800258293F7F70F25B5CF
:102CBC00054799C71D8FED4681470146E3CDE6E0F8
:102CCC00130EEE09331EC801B357E8003337C001A9
:102CDC00D98F13F7770019C713F7F70091466303E1
:102CEC00D7009107370700047D8F01CB854701463C
:102CFC00DDB39307F00F0146F9BB9A0713D6970083
:102D0C008147D1BB3D4E014337064000E305C7DD8B
:102D1C002D430D4669BD1DCDB306A0409307E009B8
:102D2C00B366D50A13066009939506608D8F135709
:102D3C00F5016349F6022146638AC508E115B3968D
:102D4C00B60013F5F70FA606A5825E05558D7E0716
:102D5C00598D82800147014581465E05558D7E0760
:102D6C00598D8280130690096346F6041546138527
:102D7C00B5FF6384C500B396A60013F576001396D1
:102D8C00A64919CDBD8A1145638CA6001106B7065C
:102D9C000004F18E91C69307F0098D8F1316A64986
:102DAC009316660013F5F70FA5825E05558D7E0709
:102DBC00598D82801386B50115453396C6000D8D4D
:102DCC00B3D6A6003336C000D18E45BFA606A58269
:102DDC001305600959B71DC59307E00993160560E3
:102DEC0013076009958F6344F70221476383E60854
:102DFC00E1163317D500260713F5F70F25835E056B
:102E0C00598D8280014501475E05598D82801307DB
:102E1C0090096344F70415471386B6FF6384E600F4
:102E2C003315C500137675001317A54905C23D89E6
:102E3C001146630DC500110737060004798E19C6BB
:102E4C001305F009B307D5401317A74913F5F70F6E
:102E5C001A0725835E05598D82801387B6011546A6
:102E6C003317E500158E3337E0003355C500598D07
:102E7C0055BF2605135795001305600971B75D7191
:102E8C0022D406D62A842EDA32DC36DEBAC0BEC292
:102E9C00C2C4C6C603A5C18211C51C4D81E72AC692
:102EAC00912B32450C455418228636CEEF00B020BB
:102EBC00B250225461618280011126CA06CE22CC06
:102ECC004AC84EC652C4AA8419E11C4502901C4D36
:102EDC002E89ADE305239C4C8044B9CF9717000095
:102EEC009387475E631DF404C0407C50858B99E743
:102EFC005E2493F7072099E3284C8D2D5E24A18B3B
:102F0C0099C31C48D5E3A28526859D2A51CDFD5435
:102F1C007C50858B99E75E2493F7072099E3284C26
:102F2C00B925F24062444249B249224A2685D2442C
:102F3C000561828000455DB726856D2945B79717D9
:102F4C000000938727566314F400804479BF9717C9
:102F5C00000093872753E31AF4F8C04479B71CC4D4
:102F6C00050963C807021C401387170018C08CA3FF
:102F7C001C4483450900FD17FDF11CC463D90702ED
:102F8C002286A94526853D28FD57E302F5F8A9447C
:102F9C0041B7184C63C4E700E39745FD22862685AC
:102FAC001520E31735FDA5B7FD59294AD1B71C40AB
:102FBC001387170018C0294798A3D1BFAA8503A56A
:102FCC00C182DDBD011122CC26CA4AC806CE4EC62E
:102FDC00AA842E89328401C51C4D91E321299717AF
:102FEC0000009387274E6317F402C0401C4C1CC48E
:102FFC005E24A18B99C31C4895EFA2852685492098
:10300C0015C97D59F2406244D244B2494A854249BD
:10301C0005618280971700009387C7486314F400FA
:10302C008044E9B7971700009387C745E310F4FC79
:10303C00C0446DBF1C4808409379F90F1379F90F00
:10304C001D8D5C486346F500A2852685912C55F9AB
:10305C001C440505FD171CC41C401387170018C021
:10306C00238037015C486388A7005E24858BD9DBFD
:10307C00A947E319F9F8A28526851D2441D551B736
:10308C00411122C426C24AC006C683A4C1822A8921
:10309C002E8489C49C4C99E32685A92E9717000091
:1030AC00938747426313F402C0408317C40013F79D
:1030BC00870025E713F707010DEB25472320E900CF
:1030CC0093E707045EA47D5571A0971700009387C2
:1030DC00673D6314F4008044C9BF971700009387C1
:1030EC00673AE314F4FCC044C9B7918B9DC34C58A8
:1030FC0089C9930744046384F5004A85B92B232AB4
:10310C0004025E242322040093F7B7FD5EA41C483E
:10311C001CC05E2493E787005EA41C4899EB5E24D8
:10312C001307002093F707286385E700A2854A85DB
:10313C0061298317C40013F717001DC358482324B3
:10314C0004003307E04018CC1848014501E713F799
:10315C0007083DF7B2402244924402494101828063
:10316C0013F72700814611E3544814C4F1BF839729
:10317C00C500011122CC26CA06CE4AC84EC613F78A
:10318C008700AA842E8479E3D8416345E000B841D6
:10319C006356E008585459C303A9040023A0040043
:1031AC000C5093D7C748A9CB70485E24918B99C714
:1031BC005C401D8E5C5899C33C401D8E5C540C5079
:1031CC00814626858297FD57630CF5041C480567DC
:1031DC00232204001CC05E24F98F91C368C84C588C
:1031EC0023A0240185CD930744046384F500268530
:1031FC00AD21232A04021DA001468546268502978F
:10320C00FD572A86E313F5FA9C40C5D375476385B1
:10321C00E70059476395E70623A024010145B5A0B3
:10322C0098408317C40001CFF5466305D700D946F3
:10323C006319D7041C48232204001CC04DB718483E
:10324C002322040093D7C74818C041BF83A90501A6
:10325C00E38609FC03A905008D8B23A035013309F6
:10326C003941014791E3D84918C4E35920FB1C5458
:10327C000C50CA864E8626858297634FA000831712
:10328C00C40093E707045EA47D55F2406244D24427
:10329C004249B24905618280AA993309A940F1B724
:1032AC009C49411106C622C426C281EB8144B2401E
:1032BC0022442685924441018280AA842E8401C531
:1032CC001C4D91E3052A971700009387A71F631CD9
:1032DC00F402C0408317C400F1DB7850058B11E772
:1032EC0093F7072099E3284C51242685A285413574
:1032FC007C50AA84858BC5FF5E2493F70720C5FB01
:10330C00284CB5246DB7971700009387A719631441
:10331C00F4008044C1B7971700009387A716E31BEE
:10332C00F4FAC04445BF411122C406C62A844EA5F6
:10333C0072A5232005002322050023240500232247
:10334C00050623280500232A0500232C0500214609
:10335C0081451305C505EFD0EF83971700009387C0
:10336C00C7835CD0971700009387C7851CD4971729
:10337C000000938787895CD4971700009387C78BCD
:10338C00B24000D01CD82244410182809705000035
:10339C00938545F1BDA2411126C293078006938403
:1033AC00F5FFB384F4024AC02E8922C406C6938565
:1033BC004407692E2A8401CD2320050023222501F0
:1033CC00310508C4138684068145EFC0BFFCB240AA
:1033DC0022852244924402494101828013858187CF
:1033EC0071A21385818761A21385C18741A21385C0
:1033FC00C187B5AA411122C406C62A84F5371C4CD4
:10340C0089C72244B2404101DDB79707000093877A
:10341C0027F81CD42324040423260404232804049E
:10342C0083A7C1846394870085471CCC22853D20EB
:10343C0048C02285252008C422850D2048C4484058
:10344C0001469145CD3508440546A545E93D48441E
:10345C000946C945C93D85471CCC65B7411126C2F3
:10346C004AC006C622C42A89953F83A4C1849C4CB9
:10347C0099E326854137938484048044DC40FD170E
:10348C0063D607009C40BDC38440C5BF0317C4006E
:10349C0039EBC17785075CC4130584052322040628
:1034AC00E920813721462320040023240400232211
:1034BC00040023280400232A0400232C0400814543
:1034CC001305C405EFC01FED232A0402232C0402AC
:1034DC002324040423260404B2402285224492446B
:1034EC000249410182801304840651BF91454A85EB
:1034FC005D3588C02A8449F9ED35B1472320F900A0
:10350C00E1BF797122D44AD04ECE52CC5AC85EC695
:10351C0006D626D256CA2A892E8A130485048149D6
:10352C00054BFD5B0444832A4400FD1A63D00A0258
:10353C0000406DF8B250225492540259624AD24A59
:10354C00424BB24B4E85F24945618280DE24637B4F
:10355C00FB008397E40063877701A6854A85029A6E
:10356C00B3E9A90093848406C9B7828082808280E3
:10357C005971A2D42E848395E500A6D2CAD086D6E2
:10358C00B284368963D205025E2493F707088DEB6B
:10359C0013070040B65026542320F90098C0065952
:1035AC0096540145656182803000CD25E34E05FCC3
:1035BC003247BD67F98F7977BA9793B71700C9BFB0
:1035CC00814713070004F9B7DE25797122D406D69A
:1035DC0026D24AD04ECE898B2E8491CF9307740479
:1035EC001CC01CC885475CC8B25022549254025966
:1035FC00F2494561828074003000AA84953FA2494B
:10360C002A892685CE85992219E98317C40013F7D8
:10361C00072079FBF19B93E727005EA4C1B79707BE
:10362C0000009387E7D69CD45E2408C008C893E7B3
:10363C0007085EA4B247232A340199CB8315E40012
:10364C0026858D2D11C55E24F19B93E717005EA492
:10365C005E2433E527014AA441BFD1CD83A7C5FF22
:10366C00011122CC06CE1384C5FF63D307003E9410
:10367C002AC66D25138741881C43324581EB2322D2
:10368C00040000C36244F240056169AD637DF4003F
:10369C001040B306C4006396D7009443DC43B29643
:1036AC0014C05CC0F9BF3E87DC4399C3E37DF4FED4
:1036BC0014433306D700631F86001040B29614C320
:1036CC003306D700E390C7FC9043DC43B29614C397
:1036DC005CC34DBF6375C400B1471CC165B71040D6
:1036EC00B306C4006396D7009443DC43B29614C06F
:1036FC005CC040C341BF828041114AC0138901881C
:10370C008327090022C426C206C6AA842E8489E710
:10371C008145B1292320A900A285268589297D59B7
:10372C00631A25017D54B2402285224492440249F9
:10373C0041018280130435007198E30685FEB305C0
:10374C00A44026852D21E31025FFE9BF011126CACF
:10375C0093843500F1984AC8A104B14706CE22CC17
:10376C004EC62A89B3F4F40A63C4040063FDB400A2
:10377C00B1472320F9000145F2406244D24442494A
:10378C00B24905618280592B9389418883A709002E
:10379C003E8431E4A6854A858537FD572A84631615
:1037AC00F50A03A40900A287C1EB83290400814513
:1037BC004A85A2996D2E6394A9081C408D044A85F4
:1037CC009D8CF198B147A104B3F4F40AA6852D376A
:1037DC00FD576306F5061C40A6971CC015A01440A7
:1037EC00858E63C806042D47637DD70204C033075A
:1037FC0094006396870223A0E9005C4014C35CC369
:10380C004A850D231305B4009307440061993307CF
:10381C00F540E303F5F63A94898F1CC0B1BFD8C3C9
:10382C00E9BF58406395870023A0E900D1BFD8C3F6
:10383C00C1BFA2874040B1BF3E84DC43B5B7B1479E
:10384C002320F9004A85F9293DB704C155BF1C4610
:10385C00FD171CC663DA0700184E63C5E700A947BD
:10386C006394F5006FF00FF61C422E85138717003A
:10387C0018C28CA38280011122CC26CA4AC84EC61B
:10388C0052C406CE2A89AE893284B304D6007D5A3E
:10389C0063149400014501A80C204E864A85453FCF
:1038AC000504E31745FFF2406244D2444249B24951
:1038BC00224A05618280357122CD26CB4AC94EC77A
:1038CC0006CF52C556C35AC1DEDEE2DCAA892E846D
:1038DC003289B68409C51C4D99E3EFF0BFB1971737
:1038EC000000938727BE6318F40403A449007C509E
:1038FC00858B81EB5E2493F7072081E7284CEFF052
:10390C00FFC65E24A18B99C31C48A5E3A2854E85F6
:10391C00EFF00FF739C97C50858BA1C37D55FA4068
:10392C006A44DA444A49BA492A4A9A4A0A4BF65B2B
:10393C00665C0D618280971700009387A7B66315AC
:10394C00F40003A4890065B797170000938787B329
:10395C00E31FF4F803A4C90059BF5E2493F70720B2
:10396C00D5FF284CEFF0BFC055BF93070002A3044E
:10397C00F1029307000302D22305F10226C6930B32
:10398C005002971A0000938AEAB5294BCA849C20EE
:10399C0099C3639A7709338C2441638E2401E286A0
:1039AC004A86A2854E85EFF01FEDFD576306F5188C
:1039BC009257E2973ED29C2063800718FD571389DB
:1039CC00140002C802CE3ECA02CCA309010482D460
:1039DC0083450900154656853526C24793041900C0
:1039EC0029E513F7070109C713070002A309E1042E
:1039FC0013F7870009C71307B002A309E104834634
:103A0C0009001307A0026389E602F247CA848146C3
:103A1C002546982093851400130707FD6372E6066C
:103A2C0085C63ECE15A085049DB733055541B39789
:103A3C00A72826893EC869BF32479306470018431A
:103A4C0036C6634807023ACE98209307E002631CFF
:103A5C00F70498309307A002631AF702B24789045F
:103A6C00138747009C433AC67D57B3E7E70A3ECA23
:103A7C001DA83307E04093E727003ACE3EC8E9B7CC
:103A8C00B3876703AE848546BA9761B7850402CACB
:103A9C00814681472546982093851400130707FD1E
:103AAC006372E606E9F68C200D4617150000130527
:103ABC00E5A3892C11CD97170000938727A31D8DA3
:103ACC00C247130700043317A700D98F85043EC8DB
:103ADC008C20194617150000130585A113891400B5
:103AEC002304B102052435C99307000095E742472A
:103AFC00B2471377071009CF91073EC69257D2975A
:103B0C003ED269B5B3876703AE848546BA9761B771
:103B1C009D07E19BA107D5B7780097060000938617
:103B2C00C6D522860C084E8597000000E7000000E1
:103B3C00FD572A8AE314F5FC7C50858B81EB5E24BF
:103B4C0093F7072081E7284CEFF07FA25E2493F7D0
:103B5C000704E39507DC1255D9B3780097060000EB
:103B6C009386A6D122860C084E85F124D1B741113B
:103B7C0022C42A842E8523A4018806C6EFE08FFD7B
:103B8C00FD576316F50083A7818891C31CC0B24012
:103B9C00224441018280411122C42E848395E50088
:103BAC0006C6012B634905007C48AA977CC8B24025
:103BBC002244410182805E249397C7485EA4C5BF0E
:103BCC00DE25011122CC26CA4AC84EC606CE93F772
:103BDC000710AA842E843289B68991C78395E50093
:103BEC0089460146DD285E248315E400F240939754
:103BFC00C7485EA46244CE864A86B24942492685AD
:103C0C00D24405611DA8411122C42E848395E50080
:103C1C0006C6E1207D575E246319E5009397C748DB
:103C2C005EA4B2402244410182809397C72868C8A1
:103C3C005EA4C5BF8395E5003DA0411122C42A8432
:103C4C002E85B285368623A4018806C6EFE04FEC9C
:103C5C00FD576316F50083A7818891C31CC0B24041
:103C6C00224441018280411122C42A842E8523A43E
:103C7C00018806C6A521FD576316F50083A7818828
:103C8C0091C31CC0B240224441018280411122C424
:103C9C002A842E85B28523A4018806C6B121FD573E
:103CAC006316F50083A7818891C31CC0B2402244DF
:103CBC0041018280411122C42A842E8523A40188CB
:103CCC0006C60D29FD576316F50083A7818891C39D
:103CDC001CC0B240224441018280411122C42A847A
:103CEC002E85B285368623A4018806C61129FD5778
:103CFC006316F50083A7818891C31CC0B24022448F
:103D0C004101828093F5F50F2A966314C500014595
:103D1C0082801C21E38EB7FE0505C5BF1385418744
:103D2C006FF0DF84138541876FF07F84797156CAF9
:103D3C009C49BA8A984522D44AD04ECE52CC06D64B
:103D4C0026D25AC85EC6B3E7E70A1CC203C73504BD
:103D5C00AA892E843289368A19C385071CC21C4055
:103D6C0093F7070291C78327090089072320F900DD
:103D7C000440998891E8130B9401FD5B5C44032784
:103D8C000900998F63CCF40483473404B336F000F4
:103D9C001C4093F70702A5EB13063404D2854E851D
:103DAC00829AFD576303F5041C4011478144998B9B
:103DBC006399E7008327090044449D8C8147B3E451
:103DCC00F40A1C4418486354F700998FBE940149B7
:103DDC0069047D5B63982405014509A885465A86CC
:103DEC00D2854E85829A631E75017D55B250225440
:103DFC0092540259F249624AD24A424BB24B456143
:103E0C0082808504A5BF3307D40013060003A301E9
:103E1C00C7040347540493871600A2978906A3810D
:103E2C00E7049DBF85462286D2854E85829AE30E95
:103E3C0065FB050945B7797122D44AD04ECE52CCD8
:103E4C0006D626D256CA5AC803C8850193078007DE
:103E5C002A892E84B289368A63E2070393072006E7
:103E6C009386350463E10703630C081C93078005F4
:103E7C0017060000130646686308F814930424041C
:103E8C002301040515A89307D8F993F7F70F5546A6
:103E9C00E366F6FE1706000013068668B3C7C72054
:103EAC009C43B29782871C439384250493864700D6
:103EBC009C4314C32381F504854775A290411C4390
:103ECC00137506089385470029C19C430CC35840C1
:103EDC0063DF07129305D002A301B40418C4635E18
:103EEC000702B307F040170600001306E6602948E6
:103EFC00B68433F70703FD143297182398A03E8736
:103F0C00B3D70703E37707FF85A09C43137506041B
:103F1C000CC355DD939757605DBF6D9A10C0D1B738
:103F2C0090411C43137506089385470001C50CC3CB
:103F3C009C4331A0137606040CC37DDA9E23130731
:103F4C00F006170600001306265B6310E80C2148E8
:103F5C00A3010404584018C4E34C07F80C40ED9935
:103F6C000CC0D9F7B68449F7A147631EF8001C4072
:103F7C00858B91CB58401C4863C7E700930700031F
:103F8C00A38FF4FEFD14858E14C85287CE86700064
:103F9C00A2854A85EFF09FD9FD5A631A550D7D55C0
:103FAC00B250225492540259F249624AD24A424BBC
:103FBC00456182809C4193E707029CC113088007EE
:103FCC001706000013068654A30204050C401C437C
:103FDC0013F80508138547006305080008C39C43C4
:103FEC0039A013F8050408C3E30B08FE9E2313F74E
:103FFC00150001C793E505020CC099C3414889BF60
:10400C0018401377F7FD18C0D5BF294891B717068C
:10401C0000001306664E294835BF90411C43CC491D
:10402C0013780608138547006306080008C39C43F1
:10403C008CC339A008C3137606049C4375DA8EA38F
:10404C0023280400B68491B71C43D0418145938644
:10405C00470014C384432685EFF0DFCA01C5B307BC
:10406C0095405CC05C401CC8A301040439BF1448D3
:10407C002686CE854A85029AE30355F31C40898B2C
:10408C0085E74844B2473365F50A19BF854656861D
:10409C00CE854A85029AE30465F185045C44324777
:1040AC00998FE3C5F4FEF1BF8144930A94017D5BC3
:1040BC00F5B7411122C42A842E85B285368623A4F5
:1040CC00018806C6A120FD576316F50083A78188D9
:1040DC0091C31CC0B24022444101828093078005E9
:1040EC0023A4F1887D5582809307800523A4F18851
:1040FC007D5582809307800523A4F1880145828039
:10410C009307800523A4F1887D5582809307800551
:10411C0023A4F1887D55828053797374656D436C4B
:10412C006B3A25640D0A000056334620537973749C
:10413C00656D436F7265436C6B3A25640D0A000024
:10414C005633462077616B652075700D00000000BA
:10415C0090171020A6171020F01710205C181020B4
:10416C000C1810205C1810205C1810205C18102003
:10417C00281810205C1810205C1810205C181020D7
:10418C005C1810205C1810205C1810205C18102093
:10419C004E1810205B494D555D20E8ADA6E5918A7F
:1041AC003A20E8AFBBE58F96E99980E89EBAE4BB6C
:1041BC00AAE9878FE7A88BE5A4B1E8B4A5EFBC8C7E
:1041CC00E4BDBFE794A8E9BB98E8AEA4E580BC0DBC
:1041DC00000000005B494D555D20E99980E89EBACE
:1041EC00E4BBAAE9878FE7A88B3A2025642064708A
:1041FC00730D0A005B494D555D20E8ADA6E5918A2B
:10420C003A20E8AFBBE58F96E58AA0E9809FE5BA36
:10421C00A6E8AEA1E9878FE7A88BE5A4B1E8B4A521
:10422C00EFBC8CE4BDBFE794A8E9BB98E8AEA4E56D
:10423C0080BC0D005B494D555D20E58AA0E9809F4F
:10424C00E5BAA6E8AEA1E9878FE7A88B3A202564EA
:10425C0020470D0A000000005B494D555D20E588A4
:10426C009DE5A78BE58C96E5AE8CE688902C20E638
:10427C00B3A2E789B9E78E873D25640D0A000000DB
:10428C0056334620E7A1ACE4BBB6E5889DE5A78B89
:10429C00E58C960D000000005B494D555D20E588CE
:1042AC009DE5A78BE58C96E5A4B1E8B4A52120E8A3
:1042BC00AFB7E6A380E69FA5E68EA5E7BABF3A2086
:1042CC0050423130E28692494D555F52582C205065
:1042DC00423131E28692494D555F54582C20474E5D
:1042EC00442C20332E33560D000000005B494D55F5
:1042FC005D20E5BC80E5A78BE8AFBBE58F96E69526
:10430C00B0E68DAE2E2E2E0D000000005B45534303
:10431C005D2050574D20E5889DE5A78BE58C96E5F3
:10432C00AE8CE688902C20E59B9BE8B7AFE7BB9F53
:10433C00E4B880E8BE93E587BA2031303630757327
:10434C000D0000005B544F465D2054466D696E694C
:10435C0020E4B88BE8A786E5889DE5A78BE58C96CD
:10436C00E5AE8CE688900D005B4950435D20E588F6
:10437C009DE5A78BE58C96E5AE8CE688900D00004C
:10438C0000010202030303030404040404040404F0
:10439C0005050505050505050505050505050505C1
:1043AC0006060606060606060606060606060606A1
:1043BC000606060606060606060606060606060691
:1043CC000707070707070707070707070707070771
:1043DC000707070707070707070707070707070761
:1043EC000707070707070707070707070707070751
:1043FC000707070707070707070707070707070741
:10440C000808080808080808080808080808080820
:10441C000808080808080808080808080808080810
:10442C000808080808080808080808080808080800
:10443C0008080808080808080808080808080808F0
:10444C0008080808080808080808080808080808E0
:10445C0008080808080808080808080808080808D0
:10446C0008080808080808080808080808080808C0
:10447C0008080808080808080808080808080808B0
:10448C000000000000000000000000000000000020
:10449C000000000000000000000000000000000010
:1044AC000000000000000000000000000000000000
:1044BC0000000000000000000000000000000000F0
:1044CC0000000000000000000000000000000000E0
:1044DC0000000000000000000000000000000000D0
:1044EC00232D302B20000000686C4C00656667455E
:1044FC004647000030313233343536373839414293
:10450C0043444546000000003031323334353637F1
:10451C003839616263646566000000008AF9FFFF48
:10452C00A0F9FFFF60F9FFFF60F9FFFF60F9FFFFE3
:10453C0060F9FFFFA0F9FFFF60F9FFFF60F9FFFFD3
:10454C0060F9FFFF60F9FFFFFEFAFFFF04FAFFFFBF
:10455C0098FAFFFF60F9FFFF60F9FFFF2CFBFFFFEC
:10456C0060F9FFFF04FAFFFF60F9FFFF60F9FFFF3E
:04457C00A0FAFFFFA3
:1045800097C110209381014617C11720130181A7FD
:104590001305800097C510209385C5A617C6102067
:1045A000130686B463FAC5008322050023A05500D4
:1045B00011059105E3EAC5FE97C01020E78080A4AD
:1045C000B70237129382123E739002BC85427390F9
:1045D00012BC9D42739042809962938282087390CC
:1045E000023097C20F209382E2A193E232007390CF
:1045F000523097C20F209382C2CE73901234730050
:044600002030000066
:10460400191C1E202326282D32383C40464C505A73
:10461400000000000000000001020304060708096E
:10462400040607081109130A150B170C190D0E0FB0
:10463400101112131416181A1C1E20222426283BAB
:10464400191C1E202326282D32383C40464C505A33
:10465400000000000000000001020304060708092E
:10466400040607081109130A150B170C190D0E0F70
:10467400101112131416181A1C1E20222426283B6B
:1046840000000000E0431020C0431020A04310208D
:104694000000000000000000000000000000000016
:1046A4000000000000000000000000000000000006
:1046B40000000000000000000000000000000000F6
:1046C40000000000000000000000000000000000E6
:1046D40000000000000000000000000000000000D6
:1046E4000001020200E1F5050084D7170204060860
:1046F40000000000010203040001020201010000A5
:10470400E803E803E803E803A8031120800111206B
:1047140000000038000034430000C8426F12833A9E
:1047240002040810FA00F401E803D0078001112004
:00000001FF
