:020000021000EC
:080000006F2090460000000093
:100008001705F5DF130505EE9705FEFF938585DFD8
:100018001736FEFF1306869763FAC500832205008C
:1000280023A0550011059105E3EAC5FE1735F5DF54
:10003800130505A99735FEFF938545951736FEFFED
:100048001306C69463FAC5008322050023A0550051
:1000580011059105E3EAC5FE1735F5DF130545A639
:10006800970500009385050A1386C18263FAC500C7
:100078008322050023A0550011059105E3EAC5FE7A
:100088001385C182938581856377B5002320050098
:100098001105E36DB5FEB7B237129382023E739035
:1000A80002BC9D42739012BCBD427390428099621B
:1000B80093828208739002309702FEFF938282D463
:1000C80093E23200739052309702FEFF9382E2006F
:0800D800739012347300203014
:1000E0000000010000000000C4020A20C6020A202D
:1000F000000000007C040A20000000000000000056
:100100007C040A207C040A2000000000000000009B
:100110007C040A207C040A207C040A2000000000E1
:100120007C040A207C040A207C040A207C040A2027
:1001300000000000000000000000000000000000BF
:1001400000000000000000000000000000000000AF
:100150007C040A20000000000000000000000000F5
:100160007C040A207C040A207C040A207C040A20E7
:100170007C040A207C040A207C040A207C040A20D7
:100180007C040A207C040A207C040A207C040A20C7
:100190007C040A207C040A207C040A207C040A20B7
:1001A0007C040A207C040A207C040A207C040A20A7
:1001B0007C040A207C040A207C040A207C040A2097
:1001C0007C040A207C040A207C040A207C040A2087
:1001D0007C040A207C040A207C040A207C040A2077
:1001E0007C040A207C040A207C040A207C040A2067
:1001F0007C040A207C040A207C040A207C040A2057
:100200007C040A207C040A207C040A207C040A2046
:100210007C040A207C040A207C040A207C040A2036
:100220007C040A207C040A207C040A207C040A2026
:100230007C040A207C040A207C040A207C040A2016
:100240007C040A207C040A207C040A207C040A2006
:100250007C040A207C040A207C040A207C040A20F6
:100260007C040A207C040A207C040A207C040A20E6
:100270007C040A207C040A207C040A207C040A20D6
:100280007C040A207C040A207C040A207C040A20C6
:100290007C040A207C040A207C040A207C040A20B6
:1002A0007C040A207C040A207C040A207C040A20A6
:1002B0007C040A207C040A207C040A207C040A2096
:1002C0007C040A207C040A207C040A207C040A2086
:1002D0007C040A207C040A20000000007C040A2020
:1002E0007C040A2000000000000000007C040A20BA
:1002F00000000000000000007C040A207C040A20AA
:100300007C040A207C040A207C040A207C040A2045
:100310007C040A207C040A207C040A207C040A2035
:100320007C040A207C040A207C040A207C040A2025
:100330007C040A20397101436EC619A039714153FA
:100340006AC866CA62CC5ECE19A0397101535AD010
:1003500056D252D44ED64AD826DA22DC06DE3301F3
:100360006140828241114AC026C222C406C68282EE
:10037000B24D4101024D924C224CB24B4101024B15
:10038000924A224AB2494101024992442244B2406F
:10039000410182802A8311C62300B3007D16050324
:1003A00065FE828001A0B707EFBE37E700E09387C4
:1003B00007083CC701A0EFF2FFFA2528EF00D004A0
:1003C000716513050520EF00300A83A5C18237351A
:1003D0000A2013054587EF10E02E1305401FEF009C
:1003E000D0040145992981450145A529EF00301424
:1003F00001A0B7170240D44398472146B18A6394BD
:10040000C602B7060070758F370600506303C71425
:100410006360E6021DC7B7479C1CB7060040938780
:1004200007806307D706B7877D01938707848DA070
:10043000370600606300C710B76773079387079498
:10044000CDB79047944798479305000A93F6060E58
:1004500021831377F7037D8A05076392B608B76790
:10046000CD1D9387075033D7E702B7070C2093873A
:100470000732B2979C239146B387E7026309D600FF
:10048000856693860654B3D6C600858A91C2858355
:1004900023A8F18237160240544237070C20130775
:1004A00007319182BD8A36971823B7060C209386B0
:1004B000063EB3D7E7005842416641830D8B36971D
:1004C000182333D7E70023AAE182B7F600E083A61A
:1004D00006D1F18E91E2BA8723A6F182828093053C
:1004E000000E6392B602D45BB7070C2093870730E7
:1004F000C182B6979C23B7867D0193860684B38715
:10050000D70285838DB7930700086397F600B74736
:100510009C1C9387078081BF9307000C6397F600AC
:10052000B7677307938707943DBFB7877D019387AC
:10053000078415BFD85BB7070C209387073041832A
:10054000BA979C2337877D0113070784B387E70297
:100550003DBFB767CD1D938707501DBF01A09C45C8
:1005600003D8050013F7070193F8F7001DCB584D8A
:1005700093E8180081468D4E414E3316D0283373D0
:10058000C800631C66001393160033966E00337721
:10059000C740D04133166600518F8506E39FC6FDE4
:1005A00058CD1377F80F1DCF1841814613038002F1
:1005B0003D4E930E8004A1453316D028337FC800EA
:1005C000631EE6016395670650C913962600331F24
:1005D000CE003396C8003377E741518F8506E39DFF
:1005E000B6FC18C11307F00F6372070554410146AA
:1005F000130E8002930E80042143130786003317E5
:10060000E028B375E800631FB7006396C70358C9B5
:1006100013172600BD45B395E5003397E800B3F600
:10062000B640D98E0506E31A66FC54C18280E39E6B
:10063000D7F910C959BFE39DD7FD18C9D1BF5C4593
:1006400033F5F5003335A00082800CC982804CC997
:100650008280371701409D479306078063F8B702F1
:10066000938785FF93F7F70F631AD506B706014006
:100670008C468A073D473317F70033F7E54098C6A5
:100680009846B317F600D98F9CC682806308D502BE
:10069000930707C0630AF508631CE5163707014096
:1006A000544B8A05BD47B397B700B3F7F6405CCB10
:1006B0005C4BB315B600DD8D4CCB82803707014013
:1006C00054438A05BD47B397B700B3F7F6405CC300
:1006D0005C43B315B600DD8D4CC38280930607C022
:1006E0006304D5026312E510B70601408C4E8A07F9
:1006F0003D473317F70033F7E54098CE984EB317D0
:10070000F600D98F9CCE8280B70601408C4A8A07BA
:100710003D473317F70033F7E54098CA984AB317B7
:10072000F600D98F9CCA82803707014054478A055A
:10073000BD47B397B700B3F7F6405CC75C47B31546
:10074000B600DD8D4CC78280372701401307078034
:10075000AE876318E5043707014054538A05BD4747
:10076000B397B700B3F7F6405CD35C53B315B6004C
:10077000DD8D4CD382803727014013070780631239
:10078000E502B70601408C568A073D473317F7004C
:1007900033F7E54098D69856B317F600D98F9CD614
:1007A000828037270140130707C06317E5088A07CF
:1007B0003D473317F7003316F6009D471347F7FF01
:1007C00063FBB700B7070140945B758F98DB985BBC
:1007D000518F98DB8280B7070140D457758FD8D7E7
:1007E000D857518FD8D7828013070740E315E5F813
:1007F000B70601408C528A073D473317F70033F79D
:10080000E54098D29852B317F600D98F9CD28280D7
:1008100013070740E31AE5F237070140544F8A05F2
:10082000BD47B397B700B3F7F6405CCF5C4FB31545
:10083000B600DD8D4CCF82808280B7C700E0130503
:10084000050437F700E03345F5201C41032507D1A7
:100850001355054922051315F5291D8D133515006E
:100860008280B7F700E083A707D193F5F50F37C76C
:1008700000E093D70749A207CD8F3345E5201CC17F
:100880008280B7C700E03737A55A23A4E7208280CB
:100890001841B7D500E09C410E079306F00FB396C0
:1008A000E600B3F6D7401C4513062700130847009F
:1008B000B397C700504533160601D18F5041130836
:1008C00057003316E600D18F104919073316060179
:1008D000D18F50493317E600D98FD58F9CC18280C4
:1008E00023200500232205002324050023260500DC
:1008F00023280500232A0500828037D700E01C4307
:1009000093E707081CC3828037D700E01C43939706
:10091000F7281CC38280B7D700E0DC4B3365B520D5
:1009200033D5A7488280B7D700E03365B5203315AB
:10093000A028C8CF82804111B7D700E002C69387B4
:1009400007023EC6B2473345F5202AC6B247884360
:1009500041018280B7170240D44398472146B18AAB
:100960006394C602B7060070758F37060050630E99
:10097000C7146360E6021DC7B7479C1CB70600405A
:10098000938707806307D706B7877D01938707841E
:100990008DA037060060630BC710B7677307938796
:1009A0000794CDB79047944798479305000A93F66C
:1009B000060E21831377F7037D8A0507639DB6082A
:1009C000B767CD1D9387075033D7E702B7070C20D1
:1009D00093870736B2979C239146B387E702630952
:1009E000D600856693860654B3D6C600858A91C222
:1009F00085831CC137160240544237070C20130769
:100A000007359182BD8A3697182393860181B3D723
:100A1000E7005842416641830D8B36971823B7F69D
:100A200000E033D7E70058C183A606D1F18E91E2EA
:100A3000BA871CC5371602405C4263DD07085C427A
:100A400037479C1C13070780AD83FD8B95073357F1
:100A5000F70258C582809305000E6392B602D45BFC
:100A6000B7070C2093870734C182B6979C23B786BB
:100A70007D0193860684B387D7028583B1B7930738
:100A800000086397F600B7479C1C938707802DBF2B
:100A90009307000C6397F600B76773079387079473
:100AA00025B7B7877D019387078439BFD85BB70720
:100AB0000C20938707344183BA979C2337877D01A5
:100AC00013070784B387E70225B7B767CD1D938760
:100AD000075005B75442B7070C209387873EAD8275
:100AE0009D8AB6978C235C42B7060C209386463EBF
:100AF000B9838D8BB6979C233357B70089BF99C5AF
:100B0000371702405C4FC98F5CCF8280B717024015
:100B1000D84F3375A740C8CF828099C53717024098
:100B20001C53C98F1CD38280B7170240985333756A
:100B3000A74088D38280EFF2FF829E257D77BD6635
:100B40007D8F41112A84AE84631BD7005A2DB18B4F
:100B5000334707084D9BD98F5EAD239405001A28B3
:100B6000F577FD177D8FFE200A85D98F1EA85A24A0
:100B70008D679387379F7D8FDE20D98F9A24D98FF9
:100B8000BA24D98F5EA45E28DA24B3C7070893F786
:100B9000F7CFD98F5EA87D3B924765459040B3352E
:100BA000F50281460A063305F502B129930640068F
:100BB000B357D5021306F06313974700B377D502F6
:100BC000920793872703637AF60093070701B3C759
:100BD00007081EA441016FF02FFBB3D7D702D98FAE
:100BE000FDB75E2589C59397D7285EA58280797762
:100BF0007D17F98FDDBF93F5F51F4EA182800A2185
:100C00006D8D3335A000828083A7418337470F0065
:100C100013070724B3D7E702239EF1821307803E10
:100C2000B387E70223ACF1828280B7F700E0D843B4
:100C3000759BD8C303A781839387070823A4070064
:100C40003305E502114788CB98C398431367170013
:100C500098C3B7F700E0D843098B75DF938707087F
:100C60009843799B98C38280EFF2CFEF01112A84D9
:100C70008545254502C202C402C602C802CA02CC8A
:100C800002CEB53D854513050010413DB714014026
:100C90002D46138504C091456D3AC1477C828D472E
:100CA0003EC44C00E147138504C03EC64D38B7072B
:100CB00008000C08372500403ECC22C802CA231E7B
:100CC0000100953D854537250040213F05616FF0C6
:100CD000AFEBEFF22FE92E893284814463C58400A3
:100CE00022856FF06FEA9305000437250040013F2D
:100CF0007DD9B30799008385070037250040850417
:100D0000B3C50508CD3DD9BFAA8703A54181138787
:100D10008185AA9763EBE700370710201307078048
:100D20006365F70023AAF18082807D558280EFF20F
:100D3000CFE137350A2039711305C588EF00702CD3
:100D4000854521456D3B89473EC8371501408D4794
:100D50003ECA0C08C147130505C03ECCEFF03F80EA
:100D6000C12A83A4018283AA4182A3070100014A08
:100D7000371901408945130509C0D130894539C16A
:100D8000130509C0E93081450145713685472A8937
:100D90006317F5020C081305F100D5229307200311
:100DA000B377FA0281EF9C870D476382E712636095
:100DB000F702638C270B09476383E704050A05459F
:100DC000AD357DB7130509C0EFF03F886DBF114702
:100DD000E396E7FE5255D685E123EF00D008930550
:100DE000803E3366B502725783468103B345B50230
:100DF00037350A2013054595EF00D00CC1B783A500
:100E000001827245712BEF0010062A8983A50182A9
:100E100002557923EF003005AA8983A50182125576
:100E20004123EF005004930540063308A0403307E8
:100E3000304133062041B347B5023368050B33E731
:100E4000E90A3366C90AF25837350A201305458A7C
:100E50003368B8023367B702B3C6B9023366B60265
:100E6000B345B902EF00100691BF4245A6850D2B90
:100E7000EF00607F2A895245A6851D23EF00A07EE2
:100E8000AA8983A501826245212BEF00C07D9305CD
:100E900040063308A040B347B5023368050B33075B
:100EA00030413306204137350A2033E7E90A3366FB
:100EB000C90AF2581305058E3368B8023367B702C2
:100EC000B3C6B9023366B602B345B90261BF225553
:100ED000A685F921EF0020792A893255A685C921F6
:100EE000EF006078AA894255A6855D29EF00A077BA
:100EF000930540063308A040B347B5023368050B9D
:100F0000330730413306204137350A2033E7E90AF9
:100F10003366C90AF2581305C5913368B8023367BE
:100F2000B702B3C6B9023366B602B345B9021DBFF4
:100F3000EFF24FC30111EFF0DF9428005532054462
:100F4000280022C422C602C802CA02CC02CEEFF098
:100F50003F945D3A28006932280022C802C402C6C4
:100F600002CA02CC02CEEFF0BF92413A37350A20D6
:100F70001305C597EF00F00805616FF0EFC0EFF2C1
:100F8000CFBC2A8A01452E847D322A8905456532E7
:100F9000AA8409454D32AA890D45713A1357850136
:100FA000931785002300EA00A1835CD483470A00DD
:100FB0000D476384E704636EF70005476383E70228
:100FC00009476386E70281450145EFF0DF956FF041
:100FD0000FBB1147E399E7FE232224032304940265
:100FE000DDB72320240144C023243401E9BF232694
:100FF000240104C8232A3401F9B7232C240144CC4A
:1010000023203403C9B73288AA882E87CDEA63FF2C
:10101000C50EC167636AF618B7070001B337F6005B
:10102000B307F040E19BE1073353F6009726000039
:10103000938686A49A96942213030002B697B30669
:10104000F340630BF3003397D500B357F500331823
:10105000D6005D8FB318D500135608013355C7026B
:10106000B346080893D708013377C702B385A602B1
:101070004207D98F63FAB700C2971307F5FF63E4FD
:10108000070163E8B7303A858D8F33D7C702B3C8FD
:101090000808B3F7C702B386E602C207B3E8F80050
:1010A00063FBD800C2989307F7FF63E5080179173F
:1010B00063E3D8003E874205598D8145828063F500
:1010C000D500814501458280C16763E5F618B70701
:1010D0000001B3B7F600B307F040E19BE10733D856
:1010E000F600172700001307279942971823930843
:1010F00000023E973388E8406392E81863EDB62615
:101100003335C500134515008145828045C6C1674A
:10111000637BF62413370610134717000E07B356E8
:10112000E6009727000093872795B6979C239306A0
:101130000002BA97B38EF640639DF608B387C540A8
:101140008545935606013346060833D5D70213D793
:101150000801B3F7D7023303C502C207D98F63FA78
:101160006700C2971307F5FF63E4070163E0672296
:101170003A85B387674033D7D702B3C80808B3F7B7
:10118000D7023306C702C207B3E8F80063FBC80002
:10119000C2989307F7FF63E50801791763E3C80076
:1011A0003E874205598D82809337061093C71700FA
:1011B0008E079DBD8146972700009387E78BB697E2
:1011C0009C23014793060002BA97B38EF640E3874B
:1011D000F6F63318D60133D3F50093560801335E83
:1011E000D302B395D501B357F500CD8F3346080828
:1011F00013D70701B318D5013373D302B305C60360
:10120000420333676700637BB70042971305FEFF15
:10121000636A07176378B716791E42970D8F3355A7
:10122000D702B3C707083377D7023303A6024207B2
:10123000D98F63FB6700C2971307F5FF63E00715BB
:1012400063FE67127915C29793150E01B387674045
:10125000C98DE5BD93B7061093C717008E0733D825
:10126000F6001727000013072781429718239308D9
:1012700000023E973388E840E382E8E8335EE60008
:10128000B3960601336EDE00B3D8E500935E0E011F
:10129000B3D7D803B39505013357E5004D8F3343DA
:1012A0000E089356070133160601B3F8D803B305A9
:1012B000F302C208B3E6160163FBB600F296938808
:1012C000F7FF63E3C60D63F1B60CF917F2968D8E46
:1012D000B3D5D60333470708B3F6D603B308B30232
:1012E000C206558F637B170172979386F5FF63697A
:1012F000C70963771709F9157297C207C16ECD8FB9
:101300009386FEFFB3F5D70013D30701F18E418218
:10131000338ED50233071741B306D30293580E011B
:10132000B385C502B695C6953303C30263F3D500F2
:10133000769393D605019A966363D7026305D70027
:101340003E8581458280C166FD1633F7D500420790
:10135000337EDE00331505017297E373E5FE1385D6
:10136000F7FF81458280B70700016377F602935645
:10137000060141477DB38145054582803A85E9B53F
:10138000B685A5BF2A8E59BDC68791B77915C29774
:10139000CDB37915C297CDB993568601614751B344
:1013A000935775011317950093F7F70F935897000C
:1013B0007D81638507101307F00F6387E7108E08A0
:1013C000938617F80147814E9398A82993D7750102
:1013D0001398950093F7F70F13589800FD81F9C300
:1013E0001306F00F6388C704938717F8338ED7006E
:1013F0000E08A947014693061E001318A82963C3C7
:10140000E7103343B50009451A8F6344E5047D179F
:10141000854563EEE5126300A60C85477A83631B5E
:10142000F6048147014613957701518D9317F30117
:101430005D8D8280138EF60F630A080A3343B50070
:101440001367370029461A8F938606106344E620F7
:101450000D463317E0281375075319CD8947638C60
:10146000FE068D476384FE027686854746887A832A
:10147000E309F6FA368EA9A29377072481EB137756
:10148000870871C72E8FC288B28EC9BF9307F00F2D
:1014900001433706400013957701518D9317F301EF
:1014A0005D8D828063140808368E13671700A94784
:1014B000054693061E00E3D6E7F4A9A0639B080443
:1014C00011478146854E19B763900804214793065A
:1014D000F00F894EE5BD9307F00F7A83014613950F
:1014E0007701518D9317F3015D8D8280136727007B
:1014F000A9479386061039430946E3D4E7F0AD4780
:10150000E302F3F82A8F99BF31479306F00F8D4E0F
:1015100075BD139708609307B7FFB398F80093075A
:10152000A0F8B386E740814E01474DB59317086098
:101530001386B7FFB387F640138EA7F8A947331871
:10154000C80093061E000146E3DDE7EA65BFC16EF1
:101550009387FEFF93D5080113550801B3F8F800EF
:10156000B377F80033861703B387F50213570601E4
:10157000B3081503BE984697B385A5026373F700B9
:10158000F69541657D15B377A700698EC207B297BE
:101590001396670013580701E9833337C0002E986C
:1015A000D98F1A083368F800B7070008B377F80036
:1015B00081CB935718001378180033E80701368E53
:1015C0009307FE07635EF0021377780019C713775D
:1015D000F80091466303D7001108370700083377F6
:1015E000E80009C793070E081318B8491307E00F5E
:1015F0006349F70413166800258293F7F70F25B5A2
:10160000054799C71D8FED4681470146E3CDE6E0CA
:10161000130EEE09331EC801B357E8003337C0017B
:10162000D98F13F7770019C713F7F70091466303B3
:10163000D7009107370700047D8F01CB854701460E
:10164000DDB39307F00F0146F9BB9A0713D6970055
:101650008147D1BB3D4E014337064000E305C7DD5E
:101660002D430D4669BD13577501931795001377E8
:10167000F70F1306E00793D697009357F501635BC6
:10168000E6001306D0096359E600370500807D1592
:101690003E958280014582801306500993967629F3
:1016A000634DE600130660093307E640B3D6E60053
:1016B0003305D040EDF3368582801307A7F6B39645
:1016C000E600FDB75D7122D406D62A842EDA32DC1C
:1016D00036DEBAC0BEC2C2C4C6C603A5818111C56A
:1016E0001C4D81E72AC6912B32450C4554182286A1
:1016F00036CEEF00B020B2502254616182800111D9
:1017000026CA06CE22CC4AC84EC652C4AA8419E1C3
:101710001C4502901C4D2E89ADE305239C4C804452
:10172000B9CF9717000093872749631DF404C04081
:101730007C50858B99E75E2493F7072099E3284C2A
:101740008D2D5E24A18B99C31C48D5E3A2852685E7
:101750009D2A51CDFD547C50858B99E75E2493F7EB
:10176000072099E3284CB925F24062444249B24926
:10177000224A2685D2440561828000455DB72685D0
:101780006D2945B797170000938707416314F4004C
:10179000804479BF971700009387073EE31AF4F857
:1017A000C04479B71CC4050963C807021C401387ED
:1017B000170018C08CA31C4483450900FD17FDF1D8
:1017C0001CC463D907022286A94526853D28FD57FA
:1017D000E302F5F8A94441B7184C63C4E700E39766
:1017E00045FD228626851520E31735FDA5B7FD5951
:1017F000294AD1B71C401387170018C0294798A35E
:10180000D1BFAA8503A58181DDBD011122CC26CAE5
:101810004AC806CE4EC6AA842E89328401C51C4D04
:1018200091E3212997170000938707396317F40282
:10183000C0401C4C1CC45E24A18B99C31C4895EF6E
:10184000A2852685492015C97D59F2406244D244BB
:10185000B2494A8542490561828097170000938703
:10186000A7336314F4008044E9B797170000938707
:10187000A730E310F4FCC0446DBF1C4808409379C6
:10188000F90F1379F90F1D8D5C486346F500A285A9
:101890002685912C55F91C440505FD171CC41C40D8
:1018A0001387170018C0238037015C486388A7009E
:1018B0005E24858BD9DBA947E319F9F8A285268533
:1018C0001D2441D551B7411122C426C24AC006C6C3
:1018D00083A481812A892E8489C49C4C99E326851E
:1018E000A92E971700009387272D6313F402C04099
:1018F0008317C40013F7870025E713F707010DEBE3
:1019000025472320E90093E707045EA47D5571A0D5
:1019100097170000938747286314F4008044C9BFD9
:101920009717000093874725E314F4FCC044C9B718
:10193000918B9DC34C5889C9930744046384F50077
:101940004A85B92B232A04025E242322040093F73C
:10195000B7FD5EA41C481CC05E2493E787005EA40C
:101960001C4899EB5E241307002093F70728638532
:10197000E700A2854A8561298317C40013F7170081
:101980001DC35848232404003307E04018CC1848EE
:10199000014501E713F707083DF7B240224492449E
:1019A00002494101828013F72700814611E3544820
:1019B00014C4F1BF8397C500011122CC26CA06CEFC
:1019C0004AC84EC613F78700AA842E8479E3D8410B
:1019D0006345E000B8416356E008585459C303A971
:1019E000040023A004000C5093D7C748A9CB70482B
:1019F0005E24918B99C75C401D8E5C5899C33C4016
:101A00001D8E5C540C50814626858297FD57630CD1
:101A1000F5041C480567232204001CC05E24F98FCE
:101A200091C368C84C5823A0240185CD9307440472
:101A30006384F5002685AD21232A04021DA00146FA
:101A4000854626850297FD572A86E313F5FA9C40C2
:101A5000C5D375476385E70059476395E70623A01B
:101A600024010145B5A098408317C40001CFF54675
:101A70006305D700D9466319D7041C482322040004
:101A80001CC04DB718482322040093D7C74818C07C
:101A900041BF83A90501E38609FC03A905008D8BDD
:101AA00023A0350133093941014791E3D84918C4CE
:101AB000E35920FB1C540C50CA864E86268582971B
:101AC000634FA0008317C40093E707045EA47D550D
:101AD000F2406244D2444249B24905618280AA99E7
:101AE0003309A940F1B79C49411106C622C426C258
:101AF00081EB8144B2402244268592444101828098
:101B0000AA842E8401C51C4D91E3052A9717000075
:101B10009387870A631CF402C0408317C400F1DB7B
:101B20007850058B11E793F7072099E3284C51244F
:101B30002685A28541357C50AA84858BC5FF5E240D
:101B400093F70720C5FB284CB5246DB79717000005
:101B5000938787046314F4008044C1B7971700008B
:101B600093878701E31BF4FAC04445BF411122C4A7
:101B700006C62A844EA572A523200500232205004F
:101B8000232405002322050623280500232A050017
:101B9000232C0500214681451305C505EFE08FFF85
:101BA00097170000938767835CD09717000093878F
:101BB00067851CD497170000938727895CD49717F3
:101BC00000009387678BB24000D01CD822444101AB
:101BD000828097050000938545F1BDA2411126C280
:101BE000930780069384F5FFB384F4024AC02E89DC
:101BF00022C406C693854407692E2A8401CD23207A
:101C0000050023222501310508C413868406814579
:101C1000EFE04FF8B240228522449244024941014C
:101C200082801385418471A21385418461A213854A
:101C3000818441A213858184B5AA411122C406C6BC
:101C40002A84F5371C4C89C72244B2404101DDB7D4
:101C500097070000938727F81CD423240404232625
:101C600004042328040483A78182639487008547A2
:101C70001CCC22853D2048C02285252008C4228511
:101C80000D2048C4484001469145CD3508440546DD
:101C9000A545E93D48440946C945C93D85471CCC91
:101CA00065B7411126C24AC006C622C42A89953F9B
:101CB00083A481829C4C99E32685413793848404D4
:101CC0008044DC40FD1763D607009C40BDC38440C0
:101CD000C5BF0317C40039EBC17785075CC4130582
:101CE000840523220406E9208137214623200400AD
:101CF000232404002322040023280400232A0400B0
:101D0000232C040081451305C405EFE0AFE8232A26
:101D10000402232C04022324040423260404B240D6
:101D200022852244924402494101828013048406A0
:101D300051BF91454A855D3588C02A8449F9ED3502
:101D4000B1472320F900E1BF797122D44AD04ECEA9
:101D500052CC5AC85EC606D626D256CA2A892E8AC0
:101D6000130485048149054BFD5B0444832A440028
:101D7000FD1A63D00A0200406DF8B250225492540A
:101D80000259624AD24A424BB24B4E85F2494561F2
:101D90008280DE24637BFB008397E4006387770106
:101DA000A6854A85029AB3E9A90093848406C9B737
:101DB0008280828082805971A2D42E848395E5002E
:101DC000A6D2CAD086D6B284368963D205025E24F2
:101DD00093F707088DEB13070040B65026542320D5
:101DE000F90098C00659965401456561828030001B
:101DF000F12DE34E05FC3247BD67F98F7977BA972D
:101E000093B71700C9BF814713070004F9B7DE2550
:101E1000797122D406D626D24AD04ECE898B2E8412
:101E200091CF930774041CC01CC885475CC8B2508E
:101E3000225492540259F249456182807400300064
:101E4000AA84953FA2492A892685CE85992219E937
:101E50008317C40013F7072079FBF19B93E7270052
:101E60005EA4C1B7970700009387E7D69CD45E2491
:101E700008C008C893E707085EA4B247232A3401C4
:101E800099CB8315E4002685B52511C55E24F19B09
:101E900093E717005EA45E2433E527014AA441BFFF
:101EA000D1CD83A7C5FF011122CC06CE1384C5FF77
:101EB00063D307003E942AC65525138701851C432A
:101EC000324581EB2322040000C36244F2400561E5
:101ED00051AD637DF4001040B306C4006396D70093
:101EE0009443DC43B29614C05CC0F9BF3E87DC4328
:101EF00099C3E37DF4FE14433306D700631F8600C5
:101F00001040B29614C33306D700E390C7FC904349
:101F1000DC43B29614C35CC34DBF6375C400B147C4
:101F20001CC165B71040B306C4006396D700944344
:101F3000DC43B29614C05CC040C341BF82804111F3
:101F40004AC01389C1848327090022C426C206C659
:101F5000AA842E8489E7814599292320A900A28596
:101F60002685B1217D59631A25017D54B240228511
:101F70002244924402494101828013043500719841
:101F8000E30685FEB305A44026851521E31025FF51
:101F9000E9BF011126CA93843500F1984AC8A1040B
:101FA000B14706CE22CC4EC62A89B3F4F40A63C4E4
:101FB000040063FDB400B1472320F9000145F2405D
:101FC0006244D2444249B24905618280412B9389DF
:101FD000018583A709003E8431E4A6854A858537BB
:101FE000FD572A846316F50A03A40900A287C1EBF2
:101FF0008329040081454A85A299552E6394A90836
:102000001C408D044A859D8CF198B147A104B3F41E
:10201000F40AA6852D37FD576306F5061C40A697E2
:102020001CC015A01440858E63C806042D47637D2F
:10203000D70204C0330794006396870223A0E90007
:102040005C4014C35CC34A85312B1305B40093076D
:10205000440061993307F540E303F5F63A94898F1C
:102060001CC0B1BFD8C3E9BF58406395870023A007
:10207000E900D1BFD8C3C1BFA2874040B1BF3E84F1
:10208000DC43B5B7B1472320F9004A85E1293DB7C4
:1020900004C155BF1C46FD171CC663DA0700184E65
:1020A00063C5E700A9476394F5006FF00FF61C4283
:1020B0002E851387170018C28CA38280011122CCB1
:1020C00026CA4AC84EC652C406CE2A89AE89328470
:1020D000B304D6007D5A63149400014501A80C2076
:1020E0004E864A85453F0504E31745FFF2406244AA
:1020F000D2444249B249224A05618280357122CDDB
:1021000026CB4AC94EC706CF52C556C35AC1DEDEDA
:10211000E2DCAA892E843289B68409C51C4D99E374
:10212000EFF0BFB197170000938707A96317F40476
:1021300003A449007C50858B99E75E2493F7072020
:1021400099E3284CBD315E24A18B99C31C48B9EF9B
:10215000A2854E85EFF02FF731C97C50858BA1C346
:102160007D55FA406A44DA444A49BA492A4A9A4AA9
:102170000A4BF65B665C0D618280971700009387BF
:10218000A7A16315F40003A489006DB79717000099
:102190009387879EE310F4FA03A4C90061BF5E240D
:1021A00093F70720D5FF284C31315DBF930700021C
:1021B000A304F1029307000302D22305F10226C60D
:1021C000930B5002971A0000938A0AA1294BCA84E4
:1021D0009C2099C363997709338C2441638D240132
:1021E000E2864A86A2854E85D13DFD576306F518E5
:1021F0009257E2973ED29C2063800718FD571389BF
:10220000140002C802CE3ECA02CCA309010482D443
:1022100083450900154656853526C24793041900A3
:1022200029E513F7070109C713070002A309E10411
:1022300013F7870009C71307B002A309E104834617
:1022400009001307A0026389E602F247CA848146A7
:102250002546982093851400130707FD6372E60650
:1022600085C63ECE15A08504A5B733055541B39765
:10227000A72826893EC869BF3247930647001843FE
:1022800036C6634807023ACE98209307E002631CE3
:10229000F70498309307A002631AF702B247890443
:1022A000138747009C433AC67D57B3E7E70A3ECA07
:1022B0001DA83307E04093E727003ACE3EC8E9B7B0
:1022C000B3876703AE848546BA9761B7850402CAAF
:1022D000814681472546982093851400130707FD02
:1022E0006372E606E9F68C200D461715000013050B
:1022F000258F892C11CD971700009387678E1D8D30
:10230000C247130700043317A700D98F85043EC8BE
:102310008C201946171500001305C58C138914006D
:102320002304B102052435C99307000095E742470D
:10233000B2471377071009CF91073EC69257D2973D
:102340003ED271B5B3876703AE848546BA9761B74D
:102350009D07E19BA107D5B77800970600009386FB
:1023600026D622860C084E8597000000E700000064
:10237000FD572A8AE314F5FC7C50858B81EB5E24A3
:1023800093F7072081E7284CEFF0DFA25E2493F754
:102390000704E39707DC1255E9B3780097060000BD
:1023A000938606D222860C084E85F124D1B74111BE
:1023B00022C42A842E8523AA018406C6EFE0DF9476
:1023C000FD576316F50083A7418591C31CC0B24039
:1023D000224441018280411122C42E848395E5006C
:1023E00006C63123634905007C48AA977CC8B240E1
:1023F0002244410182805E249397C7485EA4C5BFF2
:10240000DE25011122CC26CA4AC84EC606CE93F755
:102410000710AA842E843289B68991C78395E50076
:1024200089460146DD285E248315E400F240939737
:10243000C7485EA46244CE864A86B2494249268590
:10244000D24405611DA8411122C42E848395E50064
:1024500006C6E1207D575E246319E5009397C748BF
:102460005EA4B2402244410182809397C72868C885
:102470005EA4C5BF8395E5003DA0411122C42A8416
:102480002E85B285368623AA018406C6EFE07F84B6
:10249000FD576316F50083A7418591C31CC0B24068
:1024A000224441018280411122C42A842E8523AA1C
:1024B000018406C69521FD576316F50083A7418563
:1024C00091C31CC0B240224441018280411122C408
:1024D0002A842E85B28523AA018406C6A121FD5730
:1024E0006316F50083A7418591C31CC0B240224406
:1024F00041018280411122C42A842E8523AA0184AD
:1025000006C63D21FD576316F50083A7418591C39B
:102510001CC0B240224441018280411122C42A845D
:102520002E85B285368623AA018406C60129FD5769
:102530006316F50083A7418591C31CC0B2402244B5
:102540004101828093F5F50F2A966314C500014579
:1025500082801C21E38EB7FE0505C5BF138501846B
:102560006FF03F85138501846FF0DF84797156CA5F
:102570009C49BA8A984522D44AD04ECE52CC06D62F
:1025800026D25AC85EC6B3E7E70A1CC203C73504A1
:10259000AA892E843289368A19C385071CC21C4039
:1025A00093F7070291C78327090089072320F900C1
:1025B0000440998891E8130B9401FD5B5C44032768
:1025C0000900998F63CCF40483473404B336F000D8
:1025D0001C4093F70702A5EB13063404D2854E8501
:1025E000829AFD576303F5041C4011478144998B7F
:1025F0006399E7008327090044449D8C8147B3E435
:10260000F40A1C4418486354F700998FBE9401499A
:1026100069047D5B63982405014509A885465A86AF
:10262000D2854E85829A631E75017D55B250225423
:1026300092540259F249624AD24A424BB24B456126
:1026400082808504A5BF3307D40013060003A301CD
:10265000C7040347540493871600A2978906A381F1
:10266000E7049DBF85462286D2854E85829AE30E79
:1026700065FB050945B7797122D44AD04ECE52CCBC
:1026800006D626D256CA5AC803C8850193078007C2
:102690002A892E84B289368A63E2070393072006CB
:1026A0009386350463E10703630B081C93078005D9
:1026B00017060000130686536307F81493042404D6
:1026C0002301040515A89307D8F993F7F70F55468A
:1026D000E366F6FE170600001306C653B3C7C7200D
:1026E0009C43B29782871C439384250493864700BA
:1026F0009C4314C32381F504854765A290411C4384
:10270000137506089385470029C19C430CC35840A4
:1027100063DE07129305D002A301B40418C4635EFC
:102720000702B307F040170600001306264C29489D
:10273000B68433F70703FD143297182398A03E8719
:10274000B3D70703E37707FF85A09C4313750604FF
:102750000CC355DD939757605DBF6D9A10C0D1B71C
:1027600090411C43137506089385470001C50CC3AF
:102770009C4331A0137606040CC37DDA9E23130715
:10278000F0061706000013066646631FE80A214894
:10279000A3010404584018C4E34C07F80C40ED9919
:1027A0000CC0D9F7B68449F7A147631EF8001C4056
:1027B000858B91CB58401C4863C7E7009307000303
:1027C000A38FF4FEFD14858E14C85287CE86700048
:1027D000A2854A85613BFD5A6319550D7D55B2505E
:1027E000225492540259F249624AD24A424B4561FC
:1027F00082809C4193E707029CC11308800717065B
:1028000000001306E63FA30204050C401C4313F826
:102810000508138547006305080008C39C4339A0D9
:1028200013F8050408C3E30B08FE9E2313F71500F5
:1028300001C793E505020CC099C3414891BF1840F8
:102840001377F7FD18C0D5BF294899B717060000C0
:102850001306C63929483DBF90411C43CC49137823
:102860000608138547006306080008C39C438CC311
:1028700039A008C3137606049C4375DA8EA3232877
:102880000400B68499B71C43D04181459386470024
:1028900014C3844326857D3101C5B30795405CC0D0
:1028A0005C401CC8A30104040DB714482686CE85DD
:1028B0004A85029AE30455F31C40898B85E7484416
:1028C000B2473365F50A21BF85465686CE854A85CF
:1028D000029AE30565F185045C443247998FE3C5AC
:1028E000F4FEF1BF8144930A94017D5BF5B7411179
:1028F00022C42A842E85B285368623AA018406C680
:10290000A120FD576316F50083A7418591C31CC024
:10291000B2402244410182809307800523AAF184BA
:102920007D5582809307800523AAF1847D5582809E
:102930009307800523AAF1840145828093078005CF
:1029400023AAF1847D5582809307800523AAF18410
:102950007D5582805635462053797374656D436F7B
:102960007265436C6B3A25640D0A000056354620AB
:10297000E7A1ACE4BBB6E5889DE5A78BE58C960D99
:10298000000000005B5635465D20E99980E89EBA5C
:102990003A20256C642E2530326C6420256C642E20
:1029A0002530326C6420256C642E2530326C642016
:1029B0006470732068623D256C750D0A000000008C
:1029C0005B5635465D20E5A7BFE680813A20523D43
:1029D000256C642E2530326C6420503D256C642EAD
:1029E0002530326C6420593D256C642E2530326CC4
:1029F000642068623D256C750D0A00005B56354603
:102A00005D20E58AA0E8AEA13A20256C642E253031
:102A1000326C6420256C642E2530326C6420256C69
:102A2000642E2530326C6420472068623D256C7529
:102A30000D0A00005B5635465D20544F463A20256E
:102A40006C642E2530336C64206D20636F6E663DA0
:102A500025642068623D256C750D0A005B49504372
:102A60005D20E5889DE5A78BE58C96E5AE8CE68834
:102A7000900D000000010202030303030404040498
:102A800004040404050505050505050505050505FA
:102A900005050505060606060606060606060606DA
:102AA00006060606060606060606060606060606C6
:102AB00006060606070707070707070707070707AA
:102AC0000707070707070707070707070707070796
:102AD0000707070707070707070707070707070786
:102AE0000707070707070707070707070707070776
:102AF000070707070808080808080808080808085A
:102B00000808080808080808080808080808080845
:102B10000808080808080808080808080808080835
:102B20000808080808080808080808080808080825
:102B30000808080808080808080808080808080815
:102B40000808080808080808080808080808080805
:102B500008080808080808080808080808080808F5
:102B600008080808080808080808080808080808E5
:102B70000808080800000000000000000000000035
:102B80000000000000000000000000000000000045
:102B90000000000000000000000000000000000035
:102BA0000000000000000000000000000000000025
:102BB0000000000000000000000000000000000015
:102BC0000000000000000000000000000000000005
:102BD00000000000232D302B20000000686C4C000A
:102BE0006566674546470000303132333435363745
:102BF0003839414243444546000000003031323309
:102C00003435363738396162636465660000000028
:102C1000D6FAFFFFECFAFFFFACFAFFFFACFAFFFFBA
:102C2000ACFAFFFFACFAFFFFECFAFFFFACFAFFFFD4
:102C3000ACFAFFFFACFAFFFFACFAFFFF48FCFFFF66
:102C400050FBFFFFE2FBFFFFACFAFFFFACFAFFFF18
:102C500076FCFFFFACFAFFFF50FBFFFFACFAFFFF73
:082C6000ACFAFFFFEAFBFFFFE5
:102C680097E10A20938181F717D10E2013010139CA
:102C7800B726024098428D47D98F9CC217D5FFFFCF
:102C88001305453897D50A209385455717D60A2046
:102C98001306466463FAC5008322050023A0550085
:102CA80011059105E3EAC5FE98C297D00A20E7808E
:042CB800E0540000E4
:102CBC00191C1E202326282D32383C40464C505AD5
:102CCC0000000000000000000102030406070809D0
:102CDC00040607081109130A150B170C190D0E0F12
:102CEC00101112131416181A1C1E20222426283B0D
:102CFC00191C1E202326282D32383C40464C505A95
:102D0C00000000000000000001020304060708098F
:102D1C00040607081109130A150B170C190D0E0FD1
:102D2C00101112131416181A1C1E20222426283BCC
:102D3C0000000000D42A0A20B42A0A20942A0A206F
:102D4C000000000000000000000000000000000077
:102D5C000000000000000000000000000000000067
:102D6C000000000000000000000000000000000057
:102D7C000000000000000000000000000000000047
:102D8C000000000000000000000000000000000037
:102D9C000001020202040608000000000102030404
:102DAC000001020238040C2080030C2000000000FB
:0C2DBC000000C84200007A4480030C2094
:0400000310000000E9
:00000001FF
