:020000021000EC
:080000006F20403700000000F2
:100008001705F5DF130505EE9705FEFF938585DFD8
:100018001726FEFF1306460863FAC500832205006B
:1000280023A0550011059105E3EAC5FE1725F5DF64
:100038001305C5199725FEFF938505061726FEFFAC
:100048001306860563FAC5008322050023A0550020
:1000580011059105E3EAC5FE1725F5DF1305051718
:10006800970500009385050A1386418263FAC50047
:100078008322050023A0550011059105E3EAC5FE7A
:1000880013854182938581A56377B50023200500F8
:100098001105E36DB5FEB7B237129382023E739035
:1000A80002BC9D42739012BCBD427390428099621B
:1000B80093828208739002309702FEFF938282D463
:1000C80093E23200739052309702FEFF938242010E
:0800D800739012347300203014
:1000E0000000010000000000C4020A20C6020A202D
:1000F0000000000070040A20000000000000000062
:1001000070040A2070040A200000000000000000B3
:1001100070040A2070040A2070040A200000000005
:1001200070040A2070040A2070040A2070040A2057
:1001300000000000000000000000000000000000BF
:1001400000000000000000000000000000000000AF
:1001500070040A2000000000000000000000000001
:1001600070040A2070040A2070040A2070040A2017
:1001700070040A2070040A2070040A2070040A2007
:1001800070040A2070040A2070040A2070040A20F7
:1001900070040A2070040A2070040A2070040A20E7
:1001A00070040A2070040A2070040A2070040A20D7
:1001B00070040A2070040A2070040A2070040A20C7
:1001C00070040A2070040A2070040A2070040A20B7
:1001D00070040A2070040A2070040A2070040A20A7
:1001E00070040A2070040A2070040A2070040A2097
:1001F00070040A2070040A2070040A2070040A2087
:1002000070040A2070040A2070040A2070040A2076
:1002100070040A2070040A2070040A2070040A2066
:1002200070040A2070040A2070040A2070040A2056
:1002300070040A2070040A2070040A2070040A2046
:1002400070040A2070040A2070040A2070040A2036
:1002500070040A2070040A2070040A2070040A2026
:1002600070040A2070040A2070040A2070040A2016
:1002700070040A2070040A2070040A2070040A2006
:1002800070040A2070040A2070040A2070040A20F6
:1002900070040A2070040A2070040A2070040A20E6
:1002A00070040A2070040A2070040A2070040A20D6
:1002B000D6020A2070040A2070040A2070040A2062
:1002C00070040A2070040A2070040A2070040A20B6
:1002D00070040A2070040A200000000070040A2044
:1002E00070040A20000000000000000070040A20D2
:1002F000000000000000000070040A2070040A20C2
:1003000070040A2070040A2070040A2070040A2075
:1003100070040A2070040A2070040A2070040A2065
:1003200070040A2070040A2070040A2070040A2055
:1003300070040A20397101436EC619A03971415306
:100340006AC866CA62CC5ECE19A0397101535AD010
:1003500056D252D44ED64AD826DA22DC06DE3301F3
:100360006140828241114AC026C222C406C68282EE
:10037000B24D4101024D924C224CB24B4101024B15
:10038000924A224AB2494101024992442244B2406F
:10039000410182802A8311C62300B3007D16050324
:1003A00065FE828001A0B707EFBE37E700E09387C4
:1003B00007083CC701A0392F73002030EFF29FFAE5
:1003C0001D209527716513050520EF00C07B83A5CF
:1003D000418237250A2013058508EF00D040130518
:1003E000401F9D2701A0B7170240D44398472146DC
:1003F000B18A6394C602B7060070758F3706005045
:100400006303C7146360E6021DC7B7479C1CB706A9
:100410000040938707806307D706B7877D019387DE
:1004200007848DA0370600606300C710B7677307A5
:1004300093870794CDB79047944798479305000A50
:1004400093F6060E21831377F7037D8A05076392DF
:10045000B608B767CD1D9387075033D7E702B707B4
:100460000C2093870732B2979C239146B387E7020B
:100470006309D600856693860654B3D6C600858A7E
:1004800091C2858323A4F182371602405442370774
:100490000C20130707319182BD8A36971823B706BF
:1004A0000C209386063EB3D7E7005842416641834D
:1004B0000D8B3697182333D7E70023A6E182B7F6D2
:1004C00000E083A606D1F18E91E2BA8723A2F182E1
:1004D00082809305000E6392B602D45BB7070C20AE
:1004E00093870730C182B6979C23B7867D01938698
:1004F0000684B387D70285838DB793070008639777
:10050000F600B7479C1C9387078081BF9307000CB8
:100510006397F600B7677307938707943DBFB78764
:100520007D019387078415BFD85BB7070C2093879D
:1005300007304183BA979C2337877D0113070784CF
:10054000B387E7023DBFB767CD1D938707501DBF37
:1005500001A09C4503D8050013F7070193F8F700A5
:100560001DCB584D93E8180081468D4E414E3316F1
:10057000D0283373C800631C6600139316003396AB
:100580006E003377C740D04133166600518F850621
:10059000E39FC6FD58CD1377F80F1DCF1841814654
:1005A000130380023D4E930E8004A1453316D028DC
:1005B000337FC800631EE6016395670650C9139632
:1005C0002600331FCE003396C8003377E741518FA2
:1005D0008506E39DB6FC18C11307F00F637207058B
:1005E00054410146130E8002930E800421431307E9
:1005F00086003317E028B375E800631FB7006396E1
:10060000C70358C913172600BD45B395E5003397B6
:10061000E800B3F6B640D98E0506E31A66FC54C16D
:100620008280E39ED7F910C959BFE39DD7FD18C951
:10063000D1BF371701409D479306078063F8B70283
:10064000938785FF93F7F70F631AD506B706014026
:100650008C468A073D473317F70033F7E54098C6C5
:100660009846B317F600D98F9CC682806308D502DE
:10067000930707C0630AF508631CE51637070140B6
:10068000544B8A05BD47B397B700B3F7F6405CCB30
:100690005C4BB315B600DD8D4CCB82803707014033
:1006A00054438A05BD47B397B700B3F7F6405CC320
:1006B0005C43B315B600DD8D4CC38280930607C042
:1006C0006304D5026312E510B70601408C4E8A0719
:1006D0003D473317F70033F7E54098CE984EB317F0
:1006E000F600D98F9CCE8280B70601408C4A8A07DB
:1006F0003D473317F70033F7E54098CA984AB317D8
:10070000F600D98F9CCA82803707014054478A057A
:10071000BD47B397B700B3F7F6405CC75C47B31566
:10072000B600DD8D4CC78280372701401307078054
:10073000AE876318E5043707014054538A05BD4767
:10074000B397B700B3F7F6405CD35C53B315B6006C
:10075000DD8D4CD382803727014013070780631259
:10076000E502B70601408C568A073D473317F7006C
:1007700033F7E54098D69856B317F600D98F9CD634
:10078000828037270140130707C06317E5088A07EF
:100790003D473317F7003316F6009D471347F7FF21
:1007A00063FBB700B7070140945B758F98DB985BDC
:1007B000518F98DB8280B7070140D457758FD8D707
:1007C000D857518FD8D7828013070740E315E5F833
:1007D000B70601408C528A073D473317F70033F7BD
:1007E000E54098D29852B317F600D98F9CD28280F8
:1007F00013070740E31AE5F237070140544F8A0513
:10080000BD47B397B700B3F7F6405CCF5C4FB31565
:10081000B600DD8D4CCF82808280B7170240D44372
:1008200098472146B18A6394C602B7060070758F57
:1008300037060050630EC7146360E6021DC7B74752
:100840009C1CB7060040938707806307D706B787CD
:100850007D01938707848DA037060060630BC71066
:10086000B767730793870794CDB790479447984726
:100870009305000A93F6060E21831377F7037D8A0A
:100880000507639DB608B767CD1D9387075033D71B
:10089000E702B7070C2093870736B2979C2391464F
:1008A000B387E7026309D600856693860654B3D6FC
:1008B000C600858A91C285831CC137160240544206
:1008C00037070C20130707359182BD8A3697182306
:1008D00093860181B3D7E7005842416641830D8B6F
:1008E00036971823B7F600E033D7E70058C183A640
:1008F00006D1F18E91E2BA871CC5371602405C42E0
:1009000063DD07085C4237479C1C13070780AD83F3
:10091000FD8B95073357F70258C582809305000E6B
:100920006392B602D45BB7070C2093870734C18269
:10093000B6979C23B7867D0193860684B387D7023A
:100940008583B1B7930700086397F600B7479C1CEF
:10095000938707802DBF9307000C6397F600B76756
:1009600073079387079425B7B7877D01938707841B
:1009700039BFD85BB7070C20938707344183BA97F8
:100980009C2337877D0113070784B387E70225B7C8
:10099000B767CD1D9387075005B75442B7070C20A2
:1009A0009387873EAD829D8AB6978C235C42B706BB
:1009B0000C209386463EB9838D8BB6979C23335784
:1009C000B70089BF99C5371702405C4FC98F5CCF0C
:1009D0008280B7170240D84F3375A740C8CF8280B6
:1009E00099C5371702401C53C98F1CD38280B71793
:1009F000024098533375A74088D38280EFF29F96C8
:100A00009E257D77BD667D8F41112A84AE84631B50
:100A1000D7005A2DB18B334707084D9BD98F5EAD58
:100A2000239405001A28F577FD177D8FFE200A858F
:100A3000D98F1EA85A248D679387379F7D8FDE201C
:100A4000D98F9A24D98FBA24D98F5EA45E28DA244C
:100A5000B3C7070893F7F7CFD98F5EA87D3B9247BE
:100A600065459040B335F50281460A063305F50227
:100A7000F12A93064006B357D5021306F063139785
:100A80004700B377D5029207938727036379F6006F
:100A900093070701B3C707081EA44101F5B0B3D7F8
:100AA000D702D98FC5BF5E2589C59397D7285EA584
:100AB000828079777D17F98FDDBF93F5F51F4EA101
:100AC00082804A211375F51F82800A216D8D33358E
:100AD000A0008280EFF21F8937240040A145130552
:100AE00004C0E53709C5035704C0835744C0372401
:100AF000004093050002130504C0C13F05C513055E
:100B000004C0C137B7070C209387074303D747209A
:100B1000B386E70088A283D6072005073367D7028C
:100B20002392E72095B083A7C18237470F001307B0
:100B30000724B3D7E702239AF1821307803EB387D5
:100B4000E70223A8F1828280B7F700E0D843759BC3
:100B5000D8C303A701839387070823A4070033059D
:100B6000E502114788CB98C398431367170098C3D1
:100B7000B7F700E0D843098B75DF938707089843E0
:100B8000799B98C38280EFF2EFFD01112A8485459D
:100B9000254502C202C402C602C802CA02CC02CE65
:100BA0001535854513050010253DB71401402D4628
:100BB000138504C09145B53CC1477C828D473EC436
:100BC0004C00E147138504C03EC66132B7070800F8
:100BD0000C08372500403ECC22C802CA231E010063
:100BE000313D8545372500407D3D05616FF0CFF9EA
:100BF000EFF24FF72E893284814463C58400228549
:100C00006FF08FF893050004372500407D3D7DD9B6
:100C1000B307990083850700372500408504B3C5D5
:100C20000508613DD9BFAA8703A54181138781A526
:100C3000AA9763EBE7003707102013070780636567
:100C4000F70023AAF18082807D5582803288AA88AD
:100C50002E87CDEA63FFC50EC167636AF618B70732
:100C60000001B337F600B307F040E19BE1073353CF
:100C7000F600971600009386E6509A969422130386
:100C80000002B697B306F340630BF3003397D50029
:100C9000B357F5003318D6005D8FB318D50013563F
:100CA00008013355C702B346080893D708013377C4
:100CB000C702B385A6024207D98F63FAB700C2976D
:100CC0001307F5FF63E4070163E8B7303A858D8FBA
:100CD00033D7C702B3C80808B3F7C702B386E60222
:100CE000C207B3E8F80063FBD800C2989307F7FF88
:100CF00063E50801791763E3D8003E874205598D03
:100D00008145828063F5D500814501458280C167B8
:100D100063E5F618B7070001B3B7F600B307F04074
:100D2000E19BE10733D8F60017170000130787454A
:100D300042971823930800023E973388E840639255
:100D4000E81863EDB6263335C50013451500814517
:100D5000828045C6C167637BF624133706101347AC
:100D600017000E07B356E6009717000093878741D8
:100D7000B6979C2393060002BA97B38EF640639D04
:100D8000F608B387C54085459356060133460608E5
:100D900033D5D70213D70801B3F7D7023303C502FF
:100DA000C207D98F63FA6700C2971307F5FF63E4A0
:100DB000070163E067223A85B387674033D7D702DC
:100DC000B3C80808B3F7D7023306C702C207B3E8AF
:100DD000F80063FBC800C2989307F7FF63E50801BA
:100DE000791763E3C8003E874205598D82809337A7
:100DF000061093C717008E079DBD81469717000008
:100E000093874738B6979C23014793060002BA9709
:100E1000B38EF640E387F6F63318D60133D3F500E8
:100E200093560801335ED302B395D501B357F5004D
:100E3000CD8F3346080813D70701B318D501337394
:100E4000D302B305C603420333676700637BB70071
:100E500042971305FEFF636A07176378B716791E7A
:100E600042970D8F3355D702B3C707083377D702A0
:100E70003303A6024207D98F63FB6700C2971307AB
:100E8000F5FF63E0071563FE67127915C2979315A6
:100E90000E01B3876740C98DE5BD93B7061093C7B0
:100EA00017008E0733D8F600171700001307872D99
:100EB00042971823930800023E973388E840E38264
:100EC000E8E8335EE600B3960601336EDE00B3D881
:100ED000E500935E0E01B3D7D803B39505013357F0
:100EE000E5004D8F33430E08935607013316060174
:100EF000B3F8D803B305F302C208B3E6160163FBE7
:100F0000B600F2969388F7FF63E3C60D63F1B60C63
:100F1000F917F2968D8EB3D5D60333470708B3F68B
:100F2000D603B308B302C206558F637B17017297CD
:100F30009386F5FF6369C70963771709F9157297F7
:100F4000C207C16ECD8F9386FEFFB3F5D70013D3D2
:100F50000701F18E4182338ED50233071741B30664
:100F6000D30293580E01B385C502B695C6953303D7
:100F7000C30263F3D500769393D605019A96636313
:100F8000D7026305D7003E8581458280C166FD1684
:100F900033F7D5004207337EDE0033150501729723
:100FA000E373E5FE1385F7FF81458280B7070001F3
:100FB0006377F6029356060141477DB381450545A7
:100FC00082803A85E9B5B685A5BF2A8E59BDC68708
:100FD00091B77915C297CDB37915C297CDB993560C
:100FE0008601614751B35D7122D406D62A842EDA78
:100FF00032DC36DEBAC0BEC2C2C4C6C603A5818119
:1010000011C51C4D81E72AC6A12132450C45541853
:10101000228636CEEF00F00FB250225461618280FA
:10102000011122CC26CA4AC806CE4EC6AA842E89F1
:10103000328401C51C4D91E3212997170000938745
:1010400067286317F402C0401C4C1CC45E24A18BAB
:1010500099C31C4895EFA2852685492015C97D595D
:10106000F2406244D244B2494A85424905618280D5
:1010700097170000938707236314F4008044E9B7AF
:101080009717000093870720E310F4FCC0446DBF5E
:101090001C4808409379F90F1379F90F1D8D5C48AE
:1010A0006346F500A2852685912C55F91C4405055B
:1010B000FD171CC41C401387170018C0238037017C
:1010C0005C486388A7005E24858BD9DBA947E319B8
:1010D000F9F8A28526851D2441D551B7411122C4B6
:1010E00026C24AC006C683A481812A892E8489C467
:1010F0009C4C99E32685A92E971700009387871C9F
:101100006313F402C0408317C40013F7870025E778
:1011100013F707010DEB25472320E90093E70704A8
:101120005EA47D5571A0971700009387A7176314DD
:10113000F4008044C9BF971700009387A714E314F5
:10114000F4FCC044C9B7918B9DC34C5889C993071F
:1011500044046384F5004A85B92B232A04025E24E3
:101160002322040093F7B7FD5EA41C481CC05E2434
:1011700093E787005EA41C4899EB5E2413070020C8
:1011800093F707286385E700A2854A8561298317BD
:10119000C40013F717001DC3584823240400330765
:1011A000E04018CC1848014501E713F707083DF760
:1011B000B2402244924402494101828013F7270041
:1011C000814611E3544814C4F1BF8397C50001114F
:1011D00022CC26CA06CE4AC84EC613F78700AA8478
:1011E0002E8479E3D8416345E000B8416356E008B6
:1011F000585459C303A9040023A004000C5093D7EA
:10120000C748A9CB70485E24918B99C75C401D8E5E
:101210005C5899C33C401D8E5C540C508146268519
:101220008297FD57630CF5041C48056723220400D0
:101230001CC05E24F98F91C368C84C5823A02401B8
:1012400085CD930744046384F5002685AD21232AC8
:1012500004021DA00146854626850297FD572A8671
:10126000E313F5FA9C40C5D375476385E7005947FA
:101270006395E70623A024010145B5A09840831794
:10128000C40001CFF5466305D700D9466319D704DA
:101290001C48232204001CC04DB718482322040018
:1012A00093D7C74818C041BF83A90501E38609FC4D
:1012B00003A905008D8B23A035013309394101476E
:1012C00091E3D84918C4E35920FB1C540C50CA863A
:1012D0004E8626858297634FA0008317C40093E74C
:1012E00007045EA47D55F2406244D2444249B249AB
:1012F00005618280AA993309A940F1B79C4941113F
:1013000006C622C426C281EB8144B240224426850F
:10131000924441018280AA842E8401C51C4D91E330
:10132000052A971700009387E7F9631CF402C04071
:101330008317C400F1DB7850058B11E793F7072082
:1013400099E3284C51242685A28541357C50AA84F6
:10135000858BC5FF5E2493F70720C5FB284CB52479
:101360006DB7971700009387E7F36314F400804488
:10137000C1B7971700009387E7F0E31BF4FAC04466
:1013800045BF411122C406C62A844EA572A523205A
:101390000500232205002324050023220506232817
:1013A0000500232A0500232C05002146814513054D
:1013B000C505EFE03FFE97170000938727835CD0B9
:1013C00097170000938727851CD4971700009387F1
:1013D000E7885CD4971700009387278BB24000D032
:1013E0001CD822444101828097050000938545F175
:1013F000BDA2411126C2930780069384F5FFB384F2
:10140000F4024AC02E8922C406C693854407692E79
:101410002A8401CD2320050023222501310508C49B
:10142000138684068145EFE0FFF6B2402285224410
:1014300092440249410182801385C18371A21385C0
:10144000C18361A21385018441A213850184B5AAD9
:10145000411122C406C62A84F5371C4C89C7224490
:10146000B2404101DDB797070000938727F81CD4ED
:1014700023240404232604042328040483A70182CC
:101480006394870085471CCC22853D2048C0228577
:10149000252008C422850D2048C4484001469145B6
:1014A000CD3508440546A545E93D48440946C945AA
:1014B000C93D85471CCC65B7411126C24AC006C646
:1014C00022C42A89953F83A401829C4C99E32685F6
:1014D0004137938484048044DC40FD1763D60700C1
:1014E0009C40BDC38440C5BF0317C40039EBC1771E
:1014F00085075CC41305840523220406E92081378F
:10150000214623200400232404002322040023284E
:101510000400232A0400232C040081451305C4057C
:10152000EFE05FE7232A0402232C040223240404AF
:1015300023260404B24022852244924402494101F8
:1015400082801304840651BF91454A855D3588C069
:101550002A8449F9ED35B1472320F900E1BF7971BB
:1015600022D44AD04ECE52CC5AC85EC606D626D217
:1015700056CA2A892E8A130485048149054BFD5BCE
:101580000444832A4400FD1A63D00A0200406DF827
:10159000B250225492540259624AD24A424BB24B40
:1015A0004E85F24945618280DE24637BFB00839790
:1015B000E40063877701A6854A85029AB3E9A9000A
:1015C00093848406C9B78280828082805971A2D4B4
:1015D0002E848395E500A6D2CAD086D6B2843689F9
:1015E00063D205025E2493F707088DEB13070040D2
:1015F000B65026542320F90098C006599654014548
:10160000656182803000E12DE34E05FC3247BD6705
:10161000F98F7977BA9793B71700C9BF8147130736
:101620000004F9B7DE25797122D406D626D24AD035
:101630004ECE898B2E8491CF930774041CC01CC896
:1016400085475CC8B250225492540259F249456110
:10165000828074003000AA84953FA2492A89268599
:10166000CE85992219E98317C40013F7072079FB67
:10167000F19B93E727005EA4C1B79707000093870B
:10168000E7D69CD45E2408C008C893E707085EA488
:10169000B247232A340199CB8315E4002685A5257A
:1016A00011C55E24F19B93E717005EA45E2433E529
:1016B00027014AA441BFD1CD83A7C5FF011122CC88
:1016C00006CE1384C5FF63D307003E942AC6452582
:1016D000138781841C43324581EB2322040000C31D
:1016E0006244F240056141AD637DF4001040B306F1
:1016F000C4006396D7009443DC43B29614C05CC028
:10170000F9BF3E87DC4399C3E37DF4FE14433306FF
:10171000D700631F86001040B29614C33306D7006B
:10172000E390C7FC9043DC43B29614C35CC34DBF47
:101730006375C400B1471CC165B71040B306C4004F
:101740006396D7009443DC43B29614C05CC040C398
:1017500041BF828041114AC0138941848327090017
:1017600022C426C206C6AA842E8489E78145892917
:101770002320A900A2852685A1217D59631A250170
:101780007D54B24022852244924402494101828024
:10179000130435007198E30685FEB305A440268541
:1017A0000521E31025FFE9BF011126CA9384350006
:1017B000F1984AC8A104B14706CE22CC4EC62A8968
:1017C000B3F4F40A63C4040063FDB400B1472320FA
:1017D000F9000145F2406244D2444249B2490561F0
:1017E000828071239389818483A709003E8431E438
:1017F000A6854A858537FD572A846316F50A03A412
:101800000900A287C1EB8329040081454A85A2997A
:10181000452E6394A9081C408D044A859D8CF1983F
:10182000B147A104B3F4F40AA6852D37FD5763062A
:10183000F5061C40A6971CC015A01440858E63C8F1
:1018400006042D47637DD70204C0330794006396D6
:10185000870223A0E9005C4014C35CC34A85212BA6
:101860001305B4009307440061993307F540E3037F
:10187000F5F63A94898F1CC0B1BFD8C3E9BF584070
:101880006395870023A0E900D1BFD8C3C1BFA28759
:101890004040B1BF3E84DC43B5B7B1472320F900D7
:1018A0004A85D1293DB704C155BF1C46FD171CC64A
:1018B00063DA0700184E63C5E700A9476394F50093
:1018C0006FF00FF61C422E851387170018C28CA3E9
:1018D0008280011122CC26CA4AC84EC652C406CE06
:1018E0002A89AE893284B304D6007D5A63149400E9
:1018F000014501A80C204E864A85453F0504E317A3
:1019000045FFF2406244D2444249B249224A05614D
:101910008280357122CD26CB4AC94EC706CF52C52B
:1019200056C35AC1DEDEE2DCAA892E843289B6842F
:1019300001C51C4D91E3293E9717000093878798B6
:101940006317F40403A449007C50858B99E75E2457
:1019500093F7072099E3284C85395E24A18B99C31E
:101960001C48B9EFA2854E85EFF04FF731C97C5086
:10197000858BA1C37D55FA406A44DA444A49BA4985
:101980002A4A9A4A0A4BF65B665C0D618280971779
:101990000000938727916315F40003A489006DB7B5
:1019A000971700009387078EE310F4FA03A4C90089
:1019B00061BF5E2493F70720D5FF284C39315DBF06
:1019C00093070002A304F1029307000302D2230548
:1019D000F10226C6930B5002971A0000938A8A9050
:1019E000294BCA849C2099C363997709338C24417D
:1019F000638D2401E2864A86A2854E85D93DFD5736
:101A00006306F5189257E2973ED29C206380071830
:101A1000FD571389140002C802CE3ECA02CCA309A6
:101A2000010482D483450900154656852D26C247F8
:101A30009304190029E513F7070109C713070002EA
:101A4000A309E10413F7870009C71307B002A3092C
:101A5000E104834609001307A0026389E602F24706
:101A6000CA8481462546982093851400130707FDF4
:101A70006372E60685C63ECE15A08504A5B733057C
:101A80005541B397A72826893EC869BF32479306B8
:101A90004700184336C6634807023ACE982093079A
:101AA000E002631CF70498309307A002631AF70260
:101AB000B2478904138747009C433AC67D57B3E772
:101AC000E70A3ECA1DA83307E04093E727003ACE55
:101AD0003EC8E9B7B3876703AE848546BA9761B756
:101AE000850402CA814681472546982093851400C3
:101AF000130707FD6372E606E9F68C200D4617050D
:101B000000001305A57E812C11CD97070000938757
:101B1000E77D1D8DC247130700043317A700D98F37
:101B200085043EC88C201946170500001305457C26
:101B3000138914002304B102392C2DC99307000026
:101B400095E74247B2471377071009CF91073EC682
:101B50009257D2973ED271B5B3876703AE8485465C
:101B6000BA9761B79D07E19BA107D5B778009706A3
:101B70000000938646D622860C084E85970000000A
:101B8000E7000000FD572A8AE314F5FC7C50858BA2
:101B900099E75E2493F7072099E3284C3D345E24AF
:101BA00093F70704E39807DC1255F1B37800970622
:101BB0000000938646D222860C084E85F124D9B7C0
:101BC000411122C42A842E8523A6018406C6EFF083
:101BD0008F85FD576316F50083A7C18491C31CC090
:101BE000B240224441018280411122C42E84839557
:101BF000E50006C63123634905007C48AA977CC8E6
:101C0000B2402244410182805E249397C7485EA47B
:101C1000C5BFDE25011122CC26CA4AC84EC606CE53
:101C200093F70710AA842E843289B68991C78395C9
:101C3000E50089460146DD285E248315E400F24074
:101C40009397C7485EA46244CE864A86B249424909
:101C50002685D24405611DA8411122C42E84839596
:101C6000E50006C6E1207D575E246319E5009397E1
:101C7000C7485EA4B2402244410182809397C7289E
:101C800068C85EA4C5BF8395E5003DA0411122C48C
:101C90002A842E85B285368623A6018406C6EFE007
:101CA0003FF5FD576316F50083A7C18491C31CC09F
:101CB000B240224441018280411122C42A842E85EF
:101CC00023A6018406C69521FD576316F50083A758
:101CD000C18491C31CC0B2402244410182804111A1
:101CE00022C42A842E85B28523A6018406C6A1219A
:101CF000FD576316F50083A7C18491C31CC0B24091
:101D0000224441018280411122C42A842E8523A6C7
:101D1000018406C63D21FD576316F50083A7C184E3
:101D200091C31CC0B240224441018280411122C4AF
:101D30002A842E85B285368623A6018406C601290B
:101D4000FD576316F50083A7C18491C31CC0B24040
:101D500022444101828093F5F50F2A966314C50051
:101D6000014582801C21E38EB7FE0505C5BF1385A2
:101D700081836FF07F85138581836FF01F85797173
:101D800056CA9C49BA8A984522D44AD04ECE52CCE3
:101D900006D626D25AC85EC6B3E7E70A1CC203C7F6
:101DA0003504AA892E843289368A19C385071CC254
:101DB0001C4093F7070291C7832709008907232056
:101DC000F9000440998891E8130B9401FD5B5C4491
:101DD00003270900998F63CCF40483473404B33696
:101DE000F0001C4093F70702A5EB13063404D285DC
:101DF0004E85829AFD576303F5041C4011478144C8
:101E0000998B6399E7008327090044449D8C81479F
:101E1000B3E4F40A1C4418486354F700998FBE9445
:101E2000014969047D5B63982405014509A885463D
:101E30005A86D2854E85829A631E75017D55B250B1
:101E4000225492540259F249624AD24A424BB24B4E
:101E5000456182808504A5BF3307D40013060003C3
:101E6000A301C7040347540493871600A297890669
:101E7000A381E7049DBF85462286D2854E85829A3E
:101E8000E30E65FB050945B7797122D44AD04ECEE1
:101E900052CC06D626D256CA5AC803C88501930723
:101EA00080072A892E84B289368A63E20703930762
:101EB00020069386350463E10703630B081C930730
:101EC000800517060000130626436307F8149304E1
:101ED00024042301040515A89307D8F993F7F70FF5
:101EE0005546E366F6FE1706000013066643B3C7C1
:101EF000C7209C43B29782871C4393842504938612
:101F000047009C4314C32381F504854765A2904193
:101F10001C43137506089385470029C19C430CC3D5
:101F2000584063DE07129305D002A301B40418C41D
:101F3000635E0702B307F040170600001306C63BB6
:101F40002948B68433F70703FD143297182398A065
:101F50003E87B3D70703E37707FF85A09C4313753C
:101F600006040CC355DD939757605DBF6D9A10C092
:101F7000D1B790411C43137506089385470001C5EE
:101F80000CC39C4331A0137606040CC37DDA9E2358
:101F90001307F0061706000013060636631FE80A4B
:101FA0002148A3010404584018C4E34C07F80C402E
:101FB000ED990CC0D9F7B68449F7A147631EF80024
:101FC0001C40858B91CB58401C4863C7E7009307A2
:101FD0000003A38FF4FEFD14858E14C85287CE86AD
:101FE0007000A2854A85613BFD5A6319550D7D55E8
:101FF000B250225492540259F249624AD24A424B98
:10200000456182809C4193E707029CC113088007C9
:10201000170600001306862FA30204050C401C437C
:1020200013F80508138547006305080008C39C439F
:1020300039A013F8050408C3E30B08FE9E2313F729
:10204000150001C793E505020CC099C3414891BF33
:1020500018401377F7FD18C0D5BF294899B7170660
:1020600000001306662929483DBF90411C43CC4916
:1020700013780608138547006306080008C39C43CD
:102080008CC339A008C3137606049C4375DA8EA36B
:1020900023280400B68499B71C43D0418145938618
:1020A000470014C3844326857D3101C5B30795409D
:1020B0005CC05C401CC8A30104040DB7144826860C
:1020C000CE854A85029AE30455F31C40898B85E747
:1020D0004844B2473365F50A21BF85465686CE850A
:1020E0004A85029AE30565F185045C443247998F7D
:1020F000E3C5F4FEF1BF8144930A94017D5BF5B71B
:10210000411122C42A842E85B285368623A60184F5
:1021100006C6A120FD576316F50083A7C18491C3AD
:102120001CC0B2402244410182809307800523A64F
:10213000F1847D5582809307800523A6F1847D5527
:1021400082809307800523A6F1840145828093074E
:10215000800523A6F1847D5582809307800523A600
:10216000F1847D5582800000563546205379737482
:10217000656D436F7265436C6B3A25640D0A000010
:10218000000102020303030304040404040404041E
:1021900005050505050505050505050505050505EF
:1021A00006060606060606060606060606060606CF
:1021B00006060606060606060606060606060606BF
:1021C000070707070707070707070707070707079F
:1021D000070707070707070707070707070707078F
:1021E000070707070707070707070707070707077F
:1021F000070707070707070707070707070707076F
:10220000080808080808080808080808080808084E
:10221000080808080808080808080808080808083E
:10222000080808080808080808080808080808082E
:10223000080808080808080808080808080808081E
:10224000080808080808080808080808080808080E
:1022500008080808080808080808080808080808FE
:1022600008080808080808080808080808080808EE
:1022700008080808080808080808080808080808DE
:10228000000000000000000000000000000000004E
:10229000000000000000000000000000000000003E
:1022A000000000000000000000000000000000002E
:1022B000000000000000000000000000000000001E
:1022C000000000000000000000000000000000000E
:1022D00000000000000000000000000000000000FE
:1022E000232D302B20000000686C4C00656667458C
:1022F00046470000303132333435363738394142C1
:10230000434445460000000030313233343536371F
:10231000383961626364656600000000DCFBFFFF22
:10232000F2FBFFFFB2FBFFFFB2FBFFFFB2FBFFFFC1
:10233000B2FBFFFFF2FBFFFFB2FBFFFFB2FBFFFFB1
:10234000B2FBFFFFB2FBFFFF4EFDFFFF56FCFFFF9E
:10235000E8FCFFFFB2FBFFFFB2FBFFFF7CFDFFFFCE
:10236000B2FBFFFF56FCFFFFB2FBFFFFB2FBFFFF1C
:04237000F0FCFFFF7F
:1023740097F10A209381C18617E10E20130141C809
:10238400B726024098428D47D98F9CC217E5FFFFBC
:10239400130585C797E50A20938585E617E60A2085
:1023A400130686F363FAC5008322050023A05500B3
:1023B40011059105E3EAC5FE98C297E00A20E7807B
:0423C40020E4000011
:1023C800191C1E202326282D32383C40464C505AD2
:1023D80000000000000000000102030406070809CD
:1023E800040607081109130A150B170C190D0E0F0F
:1023F800101112131416181A1C1E20222426283B0A
:10240800191C1E202326282D32383C40464C505A91
:10241800000000000000000001020304060708098C
:10242800040607081109130A150B170C190D0E0FCE
:10243800101112131416181A1C1E20222426283BC9
:1024480000000000E0210A20C0210A20A0210A2063
:102458000000000000000000000000000000000074
:102468000000000000000000000000000000000064
:102478000000000000000000000000000000000054
:102488000000000000000000000000000000000044
:102498000000000000000000000000000000000034
:1024A8000001020202040608000000000102030401
:1024B8000001020238060C2080030C2000000000F6
:0424C80080030C2061
:0400000310000000E9
:00000001FF
